:020000040800F2
:10000000700E0020ED010008D13600089D31000877
:10001000CD3600081D0300080D4000080000000058
:1000200000000000000000000000000091380008FF
:100030008103000800000000D5360008953800084C
:10004000070200080702000807020008070200086C
:10005000070200080702000807020008070200085C
:100060000702000807020008070200082103000831
:100070002D03000839030008450300085103000858
:100080005D030008000000000702000807020008E6
:10009000070200080702000807020008070200081C
:1000A000070200080702000807020008070200080C
:1000B00007020008070200080702000807020008FC
:1000C00007020008070200080702000807020008EC
:1000D000D9360008DD3F0008F53F00080702000898
:1000E00007020008070200080702000807020008CC
:1000F00007020008070200080702000800000000CD
:1001000000000000070200080000000007020008CD
:1001100007020008000000000702000807020008AC
:1001200069030008750300080702000807020008B9
:10013000070200080000000000000000070200089D
:10014000070200080702000800000000000000008D
:10015000000000000000000000000000000000009F
:10016000000000000000000000000000070200087E
:10017000070200080000000000000000000000006E
:10018000000000000702000800000000000000005E
:10019000000000000000000000000000000000005F
:1001A000000000000000000007020008070200082D
:1001B000070200080702000807020008000000000C
:1001C000000000000702000800000000000000001E
:1001D0000702000807020008DFF80CD000F08CF8D6
:1001E00000480047F9440008700E00200648804788
:1001F00006480047FEE7FEE7FEE7FEE7FEE7FEE70C
:10020000FEE7FEE7FEE7FEE799380008D90100089F
:100210002DE9F05F0546002092469B46884606463B
:10022000814640241BE0284641464746224600F0CE
:1002300053F853465A46C01A914110D311461846F6
:10024000224600F03AF82D1A67EB01084F46224685
:100250000120002100F031F817EB00094E41201E6B
:10026000A4F10104DFDC484631462A464346BDE896
:10027000F09F40EA01039B0703D009E008C9121F61
:1002800008C0042AFAD203E011F8013B00F8013B50
:10029000521EF9D27047D2B201E000F8012B491E7C
:1002A000FBD270470022F6E710B513460A46044613
:1002B0001946FFF7F0FF204610BD202A04DB203A44
:1002C00000FA02F1002070479140C2F1200320FAA9
:1002D00003F3194390407047202A04DB203A21FAA7
:1002E00002F00021704721FA02F3D040C2F120024F
:1002F0009140084319467047064C074D06E0E068F8
:1003000040F0010394E8070098471034AC42F6D35C
:10031000FFF766FF0052000820520008FEE70000C9
:1003200040F2F840C2F2000000F058BC40F25850D1
:10033000C2F2000000F052BC40F2D860C2F20000ED
:1003400000F04CBC40F23870C2F2000000F046BC35
:1003500040F29870C2F2000000F040BC40F2B85089
:10036000C2F2000000F03ABC40F21860C2F2000095
:1003700000F034BC40F27860C2F2000000F02EBC05
:1003800070470000EFF3108072B600BFFEE7000078
:10039000B0B582B090F85820012A01D1022141E085
:1003A000012280F858200022019200920368B3F1E4
:1003B000A04F2FD140F208344FF6006EC5F2000472
:1003C000CFF6FF7E54F80E209B681A43520721D4C3
:1003D000D1F800C02268BCF1000F22F4604324D0A1
:1003E0004A6890F8385042EA45321A4322604FF684
:1003F0000052CFF6FF72A25854F80E301A43D207BB
:1004000023D1226840F61F7389689A43114341EA59
:100410000C0119E0C16D41F02001C16501210022EC
:1004200080F85820084602B0B0BD4FF60051236056
:10043000CFF6FF71615854F80E201143C90704D15B
:10044000216840F61F72914321600021E7E7000018
:10045000F0B581B00022009290F85820012A01D115
:1004600002218DE10123076880F85830BB685B07E3
:1004700035D4D1E900531F26C3F3012407EB8404CC
:10048000226B03F01F039E40B243C5F3846606FA55
:1004900003F31A432263BA68BB6802F0040203F054
:1004A0000803D21840F0AD800A6807F1140304264F
:1004B000C2F34064D1F808E006EAD25C53F8245055
:1004C000C2F304540722A240BEF1004F25EA020500
:1004D0000BD143F80C501A6842F000430DE0C16D97
:1004E00041F02001C165012147E10EFA04F22A43DF
:1004F00043F80C201A6822F000437B61D1E9043CE8
:10050000FD68042B50D13A6E3A6E0B68C2F38462D8
:1005100093FAA3F6B6FA86F65D0308BFC3F38466C2
:100520004FF6FF73B242C0F2070303D13A6E22F0D6
:1005300000423A667A6E7A6E0E68C2F3846296FA68
:10054000A6F5B5FA85F51E4208BFC6F38465AA4232
:1005500003D17A6E22F000427A66BA6EBA6E0E68E5
:10056000C2F3846296FAA6F5B5FA85F51E4208BF75
:10057000C6F38465AA4203D1BA6E22F00042BA667D
:10058000FA6EFA6E0E68C2F3846296FAA6F5B5FAB0
:1005900085F51E4208BFC6F38465AA4231D1FA6EC2
:1005A00022F00042FA662CE0062202EA95020E686A
:1005B00007F160050CFA02FC55F823404FF20002E7
:1005C000C0F2FF3206F0F846224046EA0C063243FB
:1005D00042F0004245F823200A698B6955F82260F1
:1005E00026F08076334345F822300A690B7F55F8B0
:1005F0002260012B26F0007608BF06F1007645F850
:100600002260BA68D20745D1D1F800C0CA684FF657
:10061000FF74D7F8B060634602F01805C0F2070413
:100620006FF3DF4324FA05F59E4305EA0C052E43DC
:100630000025C4F27F05AA42C7F8B0602AD19CFA0F
:10064000ACF2B2FA82F2002B08BF4FEA9C62013290
:1006500002F01E0302F01F0201260025964002EB65
:100660004202CFF6206505EB0255354345F0007593
:100670000A2B38BF46EA0255C5F3406307EB8303F4
:100680008A685E69C5F304550724AC40A643AA40B6
:1006900032435A6109680022C8F2080211426BD045
:1006A00040F2083EC5F2000EDEF800300022CCF227
:1006B0002132914203F0E07C04D01022C9F2C00242
:1006C00091422CD11A022AD4B7F1A04F54D1DEF8AE
:1006D000001042F6635221F0E07141EA0C0141F44E
:1006E0000001CEF8001040F20401C2F200010968D6
:1006F000C0F23E528909A1FB0212910901EB4101AE
:100700000C2202EB810100910099A9B300990139F3
:100710000091009900294FF00001F7D12DE000224F
:10072000CCF25272914208BF13F0807216D00022B0
:10073000CCF6843291424FF0000108BF13F48002DE
:100740001BD1AEF50272974217D0DEF8001021F0EF
:10075000E07141EA0C0141F480010BE0AEF5027159
:100760008F4209D0DEF8001021F0E07141EA0C015F
:1007700041F08071CEF800100021002280F858204E
:10078000084601B0F0BD0000B0B582B004460020BC
:10079000002C019045D0E06D30B9204600F0F8F80B
:1007A0000020206684F8580021688868800006D5FB
:1007B00088684FF6C072C5F6FF721040886088687E
:1007C000C00021D44FF6C0728868C5F6FF7202F1EE
:1007D0008052104000F18050886040F20400C2F264
:1007E0000000006842F663528009C0F23E52A0FB4E
:1007F00002029009022202EB400000BF0190019822
:1008000010B101980138F9E78868C0000CD4E06D98
:1008100040F01000E065206E40F0010020660120ED
:1008200003E0012002B0B0BD00208A68E36D02F051
:10083000040203F01003D218E26D70D122F4817229
:100840000232E2658A68D2071AD140F2083C4FF6BC
:1008500000534FF60062C5F2000CCFF6FF73CFF6DF
:10086000FF725CF803305CF802201A43D20707D10C
:100870006268DCF8003023F47C131A43CCF80020C3
:10088000627FE36B43EA4232D4E902C31A4394F82D
:10089000243042EA0C02012B42EA034207D1D4F889
:1008A00028C00023CFF6FE7303EB4C431A43E36AE0
:1008B00033B1D4F830C003F4787343EA0C031A431D
:1008C000D1F80CC044F20703CFF6F07303EA0C032F
:1008D0001A43CA600A69636B22F040621A430A61D4
:1008E0008A68120742D494F83820237F520042EAE3
:1008F000833CCB6844F2020223EA020242EA0C0281
:10090000CA6022690B6972B143F480330B61D1F87C
:10091000C0C043F6FF732CEA03031A430BE042F016
:100920001001012030E023F480320A61D1F8C020A8
:1009300043F6FF739A43C1F8C02094F840300A6927
:10094000012B10D140F2FD7322EA030CD4E91132DD
:10095000D4E913E543EA0C031A4342EA0E022A43A0
:1009600042F0010201E022F001020A6162690B6BB0
:10097000012A23F00F0202D1236A013B1A430A63C2
:10098000E16D012262F30101E16502B0B0BD00003A
:1009900070B598B0044600201790CDE91500CDE958
:1009A000130002A84421FFF77DFC206840F20011EB
:1009B000C5F20001884242D0B0F1A04F40F09380D0
:1009C0004FF4004002904FF00050119002A800F048
:1009D00077FD002818BFFFF7D5FC40F21001C2F2E6
:1009E00000010A6841F24C00C4F20200531C0B6083
:1009F00042B9016841F400510160016801F40051FD
:100A0000019101990168002641F00101016000682F
:100A100013A900F001000190019801201390032018
:100A200014904FF09040159600F030FA40F2F845DF
:100A30000820C2F20005C4F20200052141E04FF493
:100A4000004002904FF00050119002A800F038FDD5
:100A5000002818BFFFF796FC40F21001C2F2000117
:100A60000A6841F24C00C4F20200531C0B6042B908
:100A7000016841F400510160016801F400510191E5
:100A800001990168002641F002010160006813A984
:100A900000F00200019001984FF4006013900320D1
:100AA000149040F20040C4F60000159600F0EEF9F4
:100AB0000820C4F2020040F258551430C2F200057A
:100AC00024218022286028466960AE60EE602A6199
:100AD0006E61AE61EE612E6200F0D4F808B1FFF7EE
:100AE00051FC6565AC6218B070BD000080B5014670
:100AF00090F82500022824D10868D1E910CE8A6C2C
:100B0000036823F00E030360136823F480731360FB
:100B1000026822F0010202600EF01F00012202FAB8
:100B200000F0CCF80400D1E913205060486D60B1AA
:100B3000026822F480720260D1E91602426000204D
:100B400004E00420C863012000E00020012281F8B5
:100B50002520002281F8242080BD000080B590F877
:100B6000251002292DD10168D0E910CE826C0B68C6
:100B700023F00E030B600B6823F001030B60116878
:100B800021F4807111600EF01F02012101FA02F2BE
:100B9000CCF80420D0E913325A60426D32B11368A8
:100BA00023F480731360D0E91623536080F8251076
:100BB000826B002180F824100AB19047002108467A
:100BC00080BD0421C1630121002280F8251080F836
:100BD0002420084680BD0000C06B7047B0B5D0E946
:100BE00010C30268DCF8001003F01F030424D2F8DD
:100BF00000E09C400C4218BF1EF0040521D10224E5
:100C00009C400C4218BF1EF0020527D1D9400907AD
:100C100023D51EF0080108BFB0BD116821F00E01F8
:100C20001160012101FA03F2CCF80420C16380F8BD
:100C30002510416B002280F8242071B1BDE8B0403E
:100C400008471168890603D4116821F00401116076
:100C5000CCF80440016B0029F0D1B0BD11688906C1
:100C600006D4116821F00A011160012180F82510D5
:100C7000CCF80440C16A0022002980F82420DDD18C
:100C8000EBE7000000284FF0010C00F08B802DE90D
:100C9000F04F0021C4F2020103684FF6F83201F56B
:100CA0008168CBF6FD72434538BF02F580624CF691
:100CB000CD451A44CCF6CC45A2FB052E03F0FC0230
:100CC000A2F10802A2FB052900F1080B01F58064DE
:100CD0006FF003029BE8400C3CBF0024C4F2020406
:100CE00001F5026502EA9E02434538BF01F5006541
:100CF000C0E91042022480F825401C6847F6F077CE
:100D000024EA0707D0E9054147EA0A0747EA0B0743
:100D1000D0E907E83C43214341EA0E0141EA0801DA
:100D2000314319600021C4F2020101F50861C16478
:100D3000C9F304112A440CFA01F38264B6F5804F1A
:100D4000036504BF00214160476840F6840CF9B296
:100D500011607A1EC4F2020C032ACCF8003012D8BB
:100D600001390CEB8102002301F01F01012742F839
:100D70007C3F0CF1BC0307FA01F1C0E91523C16502
:100D8000CCF8C01003E00021C0E91511C1654FF097
:100D9000000C0121C0F83CC080F8251080F824C068
:100DA000BDE8F04F604670472DE9F04190F824C04F
:100DB000BCF1010F40D04FF0010C80F824C090F836
:100DC00025C0BCF1010F34D14FF0020C80F825C0D2
:100DD0004FF0000CC0F83CC0D0F800C000F14C0E41
:100DE0009EE83040DCF80060BEF1000F26F00106FE
:100DF000CCF8006065601CBFD0E916456560D0E99D
:100E00001076846806F01F060125D0F83080B540C2
:100E10007D60CCF80430102C0B4604BF13460A4604
:100E2000B8F1000FCCF80830CCF80C2007D00E2118
:100E30000CE0002180F824100220BDE8F081DCF8ED
:100E4000001021F00401CCF800100A21DCF8002089
:100E50001143CCF80010806C0168C90303D5016808
:100E600041F480710160BEF1000F05D0DEF8000092
:100E700040F48070CEF80000DCF8000040F0010083
:100E8000CCF800000020BDE8F08100002DE9F04F13
:100E900082B00A68002A00F0C58041F2004500F1E6
:100EA0003847C4F60005062340F200484FEAB7264B
:100EB000A84208BF0523C4F20108052E38BF4FEA37
:100EC000B72300244FF0030E00270025009309E00C
:100ED0000A68013532FA05F307F1020704F1040448
:100EE00000F0A080012303FA05FC12EA0C09EFD000
:100EF000D1F804A00AF00302A2F1010BBBF1010F2B
:100F000011D8D0F808B0CE680EFA07F32BEA030325
:100F1000BE40334383604368CAF3001623EA0C03E0
:100F2000AE4033434360032A1ED0D0F80CC08B6818
:100F30000EFA07F62CEA0606BB403343022AC360CA
:100F400012D16FF0030202EA5502024404F01C06BB
:100F50000F23D2F820C003FA06FA0B692CEA0A0C18
:100F6000B34043EA0C03136202684E680EFA07F3BB
:100F70009A4306F00303BB401A4316F4403F026055
:100F8000A6D041F26003C4F202031A684FF6084A81
:100F900042F001021A601A68CFF6FF7A02F00102ED
:100FA0000192019A25F00302424452F80AC004F06B
:100FB0000C060F23B3402CEA030C009B03FA06F641
:100FC00046EA0C0342F80A30D8F808C04B684CEAED
:100FD000090640F20C4ADA0258BF2CEA0906C8F8A2
:100FE0000860C4F2010ADAF800C09A024CEA090665
:100FF00058BF2CEA0906CAF80060D8F804C09A0362
:101000004CEA090658BF2CEA0906C8F80460D8F86B
:101010000020DB0342EA090658BF22EA0906C8F8A5
:10102000006055E702B0BDE8F08F0000006908409D
:1010300018BF0120704700001823002A08BF28238A
:10104000C150704740F66C20C2F200000068704743
:1010500090F84120202A03D190F84020012A01D1A4
:1010600002207047242280F841200268136823F090
:1010700001031360136823F480531360136819434A
:101080001160116841F001011160202180F84110C8
:10109000002180F8401008467047000090F8412079
:1010A000202A03D190F84020012A01D10220704764
:1010B000242280F841200268136823F001031360A2
:1010C000136823F4706343EA01211160116841F051
:1010D00001011160202180F84110002180F84010AA
:1010E00008467047002804BF0120704710B5044629
:1010F00090F8410028B9002084F84000204600F014
:1011000045F8242084F8410094E80310E36802685D
:1011100021F0706122F00102026001618168012BFF
:1011200021F4004181604FF4044108BF4FF40041B5
:1011300041EA0C0181604168022B21F4006108BF83
:1011400001F500614160416804F1100341F0007154
:1011500041F400414160C16821F40041C1600ECBFF
:10116000114341EA0321C160D4E907121143016030
:10117000016841F00101016000202021606484F8D1
:101180004110206384F8420010BD0000F0B597B014
:101190000446002501A844211695CDE91455CDE952
:1011A0001255FFF77FF8206847F60001C4F20001EE
:1011B000884201D017B0F0BD4FF4807401A80194AB
:1011C000099500F07DF9002818BFFFF7DBF841F220
:1011D0004C05C4F202052868122640F00100286080
:1011E0002868002700F0010000900098286840F06F
:1011F00004002860286800F0040000900098129411
:10120000022012AC16904FF0904021461396CDE983
:101210001477FFF73BFE4FF4006012A9C1C108200C
:10122000169040F60000C4F6000021461597FFF71F
:101230002DFEE86840F08040E860E86800F08040FB
:101240000090009817B0F0BD40F2080040F66C2105
:10125000C2F20000C2F2000100680A68104408608F
:101260007047000080B5032000F08CF80F2000F0DC
:1012700009F800281CBF012080BD00F02DF80020D7
:1012800080BD0000B0B540F20801C2F2000109685B
:1012900001B3044640F20400C2F200004FF47A7237
:1012A0000068B2FBF1F1B0FBF1F001F04BFA0F2C4A
:1012B0004FF001050CD858B94FF0FF3021460022FD
:1012C000002500F033F840F20C00C2F20000046088
:1012D0002846B0BD0120B0BD82B041F25800C4F232
:1012E0000200816841F001018160816801F0010123
:1012F00001910199016841F080510160006800F09E
:1013000080500090009802B000F0D0B8002848BF8C
:10131000704700F01F01012202FA01F14EF20012A3
:101320004009CEF2000242F82010704710B54EF688
:101330000C5CCEF2000CDCF80030C3F3022E8EF011
:101340000704042C28BF0424BEF103034FF0FF3E22
:101350000EFA04F438BF0023A14399400EFA03F3B8
:101360009A43114300F1604200F00F03090102F5B6
:101370006442043B6344002848BF03F10C0211702F
:1013800010BD00004EF60C51CEF200010A684FF677
:10139000FF031A4060F30A2242F0806040F0FD70C3
:1013A00008607047B0F5007F3BD0002872D147F24B
:1013B000000CC4F2000CDCF80010DCF8802001F412
:1013C000C06122F48072B1F5806FCCF8802026D104
:1013D000DCF80010012262F34A21CCF8001040F240
:1013E0000401C2F200010968322359434DF68363B8
:1013F000C4F21B33A1FB031302EB9341002200BF95
:10140000DCF81400013942F10003400501D5002B3E
:10141000F6D1DCF81400400544BF032070470020DB
:10142000704747F2000CC4F2000CDCF80010DCF846
:10143000802001F4C06142F48072B1F5806FCCF875
:101440008020ECD1DCF80010012262F34A21CCF8B4
:10145000001040F20401C2F200010968322359432E
:101460004DF68363C4F21B33A1FB031302EB9341DC
:10147000002200BFDCF81400013942F100034005EE
:1014800001D5002BF6D1DCF81400400544BF032041
:101490007047C4E747F20000C4F20000016802226E
:1014A00062F34A21016000207047000047F2080003
:1014B000C4F20000016841F48041016070470000FF
:1014C0002DE9F04381B08146807841F2880700071A
:1014D000C4F2020701D4002565E057F8300C10F083
:1014E00080580BD157F8300C40F0805047F8300C42
:1014F00057F8300C00F080500090009847F200043C
:10150000C4F20004206840F480702060FFF79AFD68
:10151000054600BF206810F4807607D1FFF792FDE2
:10152000401B0328F6D3032516B933E000258EB3FC
:10153000B86810F4407012D0D9F8401088420BD02F
:10154000B868B96820F4407041F48031B960B96876
:1015500021F48031B960B860C00703D111E00020E8
:10156000C0070ED0FFF76EFD064641F2893400BF7A
:10157000B868800705D4FFF765FD801BA042F7D34C
:1015800003253DB9B868D9F8401020F440700843ED
:101590000025B860B8F1000F05D157F8300C20F0E5
:1015A000805047F8300CD9F80000C10712D18107EC
:1015B00019D4410720D4010727D481062ED441062F
:1015C00035D401063CD4C10543D481054AD4410534
:1015D00051D460E03968D9F8042021F003011143A7
:1015E00039608107E5D53968D9F8082021F00C0168
:1015F000114339604107DED53968D9F80C2021F054
:101600003001114339600107D7D53968D9F8102066
:1016100021F0C001114339608106D0D53968D9F86D
:10162000142021F44061114339604106C9D539685D
:10163000D9F8182021F44051114339600106C2D570
:101640003968D9F81C2021F4404111433960C105A3
:10165000BBD53968D9F8202021F4403111433960D5
:101660008105B4D53968D9F8242021F440211143EB
:10167000396041050FD53968D9F8282021F4401187
:101680001143B2F5801F396005D157F87C1C41F435
:10169000801147F87C1C01050FD53968D9F82C203A
:1016A00021F440011143B2F5800F396005D157F89C
:1016B0007C1C41F4801147F87C1CC1040FD53968AB
:1016C000D9F8302021F040711143B2F1807F3960A8
:1016D00005D157F87C1C41F4801147F87C1C81042B
:1016E0000FD53968D9F8342021F040611143B2F1A7
:1016F000006F396005D157F87C1C41F4801147F820
:101700007C1C41040FD53968D9F8382021F040619C
:101710001143B2F1006F396005D157F87C1C41F4D8
:10172000801147F87C1C00040FD53868D9F83C10AC
:1017300020F040500843B1F1805F386005D157F880
:101740007C0C40F4803047F87C0C284601B0BDE8A2
:10175000F08300002DE9F047002800F0088142F2F4
:10176000000AC4F2020A0446DAF800000D4600F04E
:101770000F0088420DD2DAF8000020F00F00284355
:10178000CAF80000DAF8000000F00F00A84240F0AC
:10179000EE80216841F20808C807C4F202080CD1A3
:1017A0004FF00009206881074BD4B9F1800F61D157
:1017B000D8F8000020F0F0005AE06068022800F03D
:1017C000CA80032840F0CF8058F8082C920140F1DD
:1017D000CE80D8F80420D8F8043042F20046C3F393
:1017E000031302F00302D8F804700133C0F2F406C8
:1017F000032A04BF41F20026C0F27A06B6FBF3F2D8
:10180000D8F80430C7F306277A43C3F341630227AD
:1018100007EB4303B2FBF3F24BF20043C0F2C443C5
:101820009A4240F2EC80D8F8002012F0F00F00F05D
:10183000DC80890740F1E380A168002940F0DF8067
:10184000D3E0410705D5D8F8001041F4E061C8F8AD
:101850000010000706D5D8F80000072161F30D201D
:10186000C8F80000D8F80000A16820F0F000084394
:10187000C8F80000DAF8000000F00F00A84219D9FB
:10188000DAF8000020F00F002843CAF80000FFF744
:10189000D9FB064641F28837DAF8000000F00F0065
:1018A000A84207D0FFF7CEFB801BB842F4D9032033
:1018B000BDE8F0872068410707D5D8F80010E26836
:1018C00021F4E0611143C8F80010000708D5D8F8EA
:1018D0000000216920F4605040EAC100C8F800000F
:1018E000D8F8000042F20041C0F2F40100F00C0010
:1018F0000428084600F0A480D8F8000000F00C008E
:10190000082841F20020C0F27A0000F09980D8F84F
:10191000002002F00C020C2A40F09180D8F804203C
:10192000D8F8043002F00302C3F30313D8F80470AC
:101930000133032A08BF0146B1FBF3F0D8F80410C5
:10194000C7F30627C1F341610222784302EB41014C
:10195000B0FBF1F074E058F8081C89035CBF01206B
:10196000BDE8F08706E058F8081C490502D40120BC
:10197000BDE8F087D8F8001001F00C0104293ED032
:10198000D8F8001001F00C01082938D0D8F8001060
:1019900001F00C010C2932D1D8F80410D8F8042039
:1019A00042F20047C2F3031201F00301D8F80430F9
:1019B0000132C0F2F407032904BF41F20027C0F24C
:1019C0007A07B7FBF2F1D8F80420C3F30623594392
:1019D000C2F34162022303EB4202B1FBF2F14BF28C
:1019E0000042C0F2C442914209D9D8F8001008223E
:1019F00062F307114FF08009C8F8001001E04FF0C2
:101A00000009D8F8001021F003010843C8F80000CD
:101A1000FFF718FB064641F2883700BFD8F80000F0
:101A2000616800F00C00B0EB810F3FF4BBAEFFF734
:101A300009FB801BB842F1D90320BDE8F0870020E4
:101A4000D8F8001045F24402C1F30311C0F60002B9
:101A5000515C40F2040201F01F0120FA01F140F252
:101A60000C00C2F200000068C2F200021160BDE882
:101A7000F047FFF707BC000040F2040041F2080104
:101A8000C2F20000C4F202010068096845F2540283
:101A9000C1F30221C0F60002515C01F01F01C840F1
:101AA0007047000040F2040041F20801C2F2000059
:101AB000C4F202010068096845F25402C1F3C22170
:101AC000C0F60002515C01F01F01C84070470000E1
:101AD00080B541F20C01C4F2020151F8040C42F24B
:101AE0000042C0F2F40200F00C000428104608BFC7
:101AF00080BD51F8040C00F00C00082841F20020D1
:101B0000C0F27A0022D051F8043C03F00C030C2BF5
:101B10001CBF002080BDD1F800C00B680CF0030C86
:101B2000C3F3031E0B680EF1010EBCF1030F08BFD7
:101B300002460968B2FBFEF0C3F30623C1F341611C
:101B40000222584302EB4101B0FBF1F080BD0000DE
:101B50002DE9F04182B0002800F0018104460078B0
:101B600041F20006C007C4F2020654D12078800773
:101B700072D42078000700F195802078400700F1AA
:101B8000B3802078800600F10081E569002D00F027
:101B90001882B06800F00C000C2840F05981012D2B
:101BA00000F0DD80F068216A00F003028A4240F014
:101BB000D680626A6FF00F0300F0F00103EB0212AF
:101BC000914240F0CC80A16A00F4FE42B2EB012FBA
:101BD00040F0C580E16A00F07842B2EBC16F40F09E
:101BE000BE80226B0023CFF6E07303EA025200F4BA
:101BF000C001A2F50012914240F0B180616B4FF03C
:101C00007E4202EA016100F0C06001F17E4188423B
:101C100040F0A580D5E1B06800F00C01F06808291B
:101C200059D0032281F00C0122EA00000844B0FAE6
:101C300080F040094FD16568B5F5A02F00F0D38042
:101C4000B5F5803F00F0D380306820F480303060FC
:101C5000306820F48020CDE0B068F16800F00C001E
:101C6000042866D001F0030180F00C0081F002012D
:101C70000844B0FA80F040095BD1E168306800297F
:101C800000F0D38040F480703060FFF7DBF9054648
:101C90003068400500F1FE80FFF7D4F9401B0228B0
:101CA000F6D930E16169D6F89400002900F0898006
:101CB00040F00100C6F89400FFF7C4F9054600BFE4
:101CC000D6F8940080073FF558AFFFF7BBF9401BEB
:101CD0000228F5D917E1306880037FF547AF6068C7
:101CE00000287FF443AF3AE0B06D10F0805808D17F
:101CF000B06D40F08050B065B06D00F08050019044
:101D0000019847F20007C4F200073868C0052AD4DA
:101D1000386840F480703860FFF794F9054600BFDA
:101D20003868C0051FD4FFF78DF9401B0228F7D98A
:101D3000E9E03068400501D5E06880B1706821694C
:101D400020F0FE4040EA0160706040F20C00C2F2F8
:101D500000000068FFF796FA00283FF40AAF012060
:101D600002B0BDE8F081A568052D00F0B080012D1E
:101D700000F0B380D6F8900020F00100C6F8900083
:101D8000D6F8900020F00400ABE0A169D6F89800E6
:101D9000002900F0878040F00100C6F89800FFF7A6
:101DA00051F90546D6F8980080073FF5EEAEFFF7EB
:101DB00049F9401B02284FF00300F3D902B0BDE8F7
:101DC000F08120F00100C6F89400FFF73BF90546CA
:101DD000D6F8940080077FF5D0AEFFF733F9401BAB
:101DE0000228F5D98FE0306840F4802030603068F8
:101DF00040F480303060FFF725F9002D054610D003
:101E0000306880033FF5B2AEFFF71CF9401B642831
:101E1000F6D978E0FFF716F9401B64284FF003006D
:101E2000CCD830688003F5D4A0E620F48070306010
:101E3000FFF708F9054600BF306840057FF599AE09
:101E4000FFF700F9401B02284FF00300F4D9B5E773
:101E5000306820F080703060FFF7F4F8022D0546FE
:101E60000CD100BF3068800167D5FFF7EBF8401B4D
:101E700002284FF00300F5D9A0E700BF30688001C9
:101E800040F19880FFF7DEF8401B02284FF0030076
:101E9000F4D993E77068216920F0FE4040EA0160C0
:101EA000706066E620F00100C6F89800FFF7CAF8F7
:101EB000054600BFD6F8980080077FF566AEFFF7AD
:101EC000C1F8401B02284FF00300F3D976E7D6F89B
:101ED000900040F00400C6F89000D6F8900040F062
:101EE0000100C6F89000FFF7ADF8002D054641F25D
:101EF000883715D0D6F89000800715D4FFF7A2F8E0
:101F0000401BB842F6D9032002B0BDE8F08100BF03
:101F1000FFF798F8401BB8424FF003003FF64EAF72
:101F2000D6F890008007F3D4B8F1000F7FF429AE03
:101F3000B06D20F08050B06523E6F06848F20C01E7
:101F4000C0F29F1104F1200700EA010C8ECF6FF060
:101F50000F00D4E90C5400EB02100022CFF6E0721F
:101F600041EA0C0102EA05520843A2F500124FF0C3
:101F70007E4540EA032005EA0465104305F17E45ED
:101F800040EAC7602843F060306840F080703060FD
:101F9000F06840F08070F060FFF754F80446306855
:101FA00080010ED4FFF74EF8001B02284FF003000B
:101FB000F5D903E7F0684FF6FC71CFF6EE61084003
:101FC000F060002002B0BDE8F08100007047000022
:101FD000B0B582B0044600684168826812F04003E0
:101FE00005D112F0010518BF11F040050ED195077B
:101FF00004D511F0800501D0216D08E012F4B07F06
:1020000018BF11F0200507D102B0B0BDE16C204629
:1020100002B0BDE8B0400847BBB194F85D30032B77
:1020200008D100210191C168019180680190019857
:1020300002B0B0BD236E43F0040323660023019376
:10204000C368019383680193019B12F0200302F49B
:1020500080720CD0236E43F00103236600230193AA
:1020600083680193036823F040030360019B42B13E
:10207000226E42F0080222660022019282680192DA
:10208000019A226E002ABFD04268890722F0E0023E
:1020900042604FF0010284F85D201FD0416843F296
:1020A000E56521F003014160A06DC0F6000538B17F
:1020B0008563FEF753FD18B1206E40F040002066A6
:1020C000606D0028A0D08563FEF748FD00289BD0F6
:1020D000206E40F04000206602B0B0BD204602B045
:1020E000BDE8B040FFF772BF002804BF0120704771
:1020F000B0B50446406A20B10020206104F114000C
:1021000005E06068B0F5827F03D004F11C00002177
:1021100001600025A56294F85D0020B9204684F88E
:102120005C5000F053F8022084F85D002068D4F879
:102130000CE00268BEF5E06F22F0400202604EF44F
:10214000006298BF0125B2F5706F1CBF0023A36227
:102150004FEA053CD4E90135D4E9042103F4827344
:1021600005F404452B4402F002021A44A36901F06D
:102170000101E569114403F40072114405F03802CD
:10218000256A114405F08002A56A114405F4005245
:10219000114301600421626A0EF4706501EA134183
:1021A000636B45EA0C0502F01002294303F00803B3
:1021B000114319434160C16921F40061C1610020EC
:1021C0000121206684F85D10B0BD00002DE9F041CA
:1021D00086B00446006843F60001C4F20001002600
:1021E0008842CDE90466CDE90266019602D006B0C8
:1021F000BDE8F08141F25800C4F20200016841F2EA
:102200004C0741F4804101600068C4F2020700F409
:10221000804000900098386801A940F002003860C2
:10222000386800F00200009000984FF46040019080
:102230000220CDE90206032004900520059040F21B
:102240000040C4F60000FEF721FE40F2B855A7F5A5
:102250007E60C2F200050C214FF0800885E8430043
:102260002846C5E90368C5E90566C5E90766FEF7BE
:1022700009FD002818BFFEF785F8A565AC6240F29D
:102280001865A7F64440C2F200050D211022002374
:1022900085E80F012846C5E90533C5E90733FEF790
:1022A000F1FC002818BFFEF76DF824200021002261
:1022B0006565AC62FFF73AF82420FFF727F806B00F
:1022C000BDE8F0812DE9F04182B01D4616460F466B
:1022D0000446FEF7B7FE94F85D1001290DD1804643
:1022E000002F4FF0010018BF002E02D102B0BDE850
:1022F000F08194F85C00012803D1022002B0BDE80F
:10230000F081012084F85C00032084F85D00002047
:102310002066A763A687E6872064A4F84400A4F893
:102320004600A168C4E91300B1F5004F08D1206848
:10233000016821F040010160016841F480410160C1
:1023400020680168490603D4016841F0400101603A
:102350006168731EE268B1FA81F1B3FA83F3490947
:102360005B09B2F5E06F41EA03012ED931B137F8CC
:10237000021BC160A763E08F0138E087E08F00286F
:1023800060D06E1C0BE000BFA16B31F8022BC26065
:10239000A163E08F0138E087E08F002852D02068E9
:1023A00081688907F0D4FEF74DFE002EF4D0A0EB33
:1023B0000800A842F0D3012084F85D00002084F8D2
:1023C0005C00032002B0BDE8F08100294FF6FE71E9
:1023D00011D0E28F022A05D337F8022BC2604FF6E4
:1023E000FE7004E03A780273A06B471C481CA76398
:1023F000E28F1044E087E08F20B36E1C4F1C0AE090
:1024000000780873A06B39460130A063E08F084460
:10241000E087E08FB0B121688868800708D4FEF7B4
:1024200011FE002EF5D0A0EB0800A842F1D3C2E7C0
:10243000E28FA06B022AE3D330F8022BCA604FF67A
:10244000FE71E2E720464FF4C0512A46434601F0B0
:1024500051F968B920462946424601F0BFF938B91A
:1024600020464FF4C0612A46434601F043F928B1A3
:10247000206E40F02000206620202066A06838B939
:10248000002001902068C168019180680190019846
:10249000012084F85D00002084F85C00206E002894
:1024A00018BF012002B0BDE8F08100002DE9F04323
:1024B00081B01E4615460F460446FEF7C3FD94F84C
:1024C0005D10814601290DD06068B0F5827F15D17D
:1024D000A06800284FF0020008BF042902D001B014
:1024E000BDE8F083002F4FF0010018BF002DF6D09B
:1024F000002EF4D094F85C00012803D1022001B032
:10250000BDE8F083012084F85C0094F85D000428A5
:102510001CBF052084F85D00002020662564A4F817
:102520004660A4F84460A763E687C4E91300206806
:10253000A687E1684268B1F5E06F22F48052134645
:1025400098BF03F58053012E88BF1346436002688D
:10255000520603D4026842F0400202606268731EB1
:10256000B2FA82F2B3FA83F3DDF8208052095B09F4
:10257000B1F5E06F43EA02013CD931B137F8021BF3
:10258000C160A763E08F0138E087012608F10105EB
:10259000E08F20B9B4F84600002800F0A38020683E
:1025A000816889070CD5E18F51B1012E08D1A16B4B
:1025B000002631F8022BC260A163E18F0139E18767
:1025C0008168C9070DD0B4F8461051B1C068216CBC
:1025D000012621F8020B2164B4F846000138A4F862
:1025E0004600FEF72FFD002DD2D0A0EB090040459C
:1025F000CED36DE000294FF6FE7111D0E28F022A92
:1026000005D337F8022BC2604FF6FE7004E03A782B
:102610000273A06B471C481CA763E28F1044E0873D
:10262000012708F101054E1CE08F18B9B4F84600E7
:10263000002857D020688168890717D5E18FA9B194
:10264000012F13D1E28FA16B022A05D331F8022B9F
:10265000C2604FF6FE7004E009780173A06B411C64
:102660003046A163E18F00270844E0872068816835
:10267000C90725D0B4F8461011B3B4F846100229A2
:1026800012D3C168226C22F8021B2264B4F84610EF
:102690000239A4F84610B4F8461001290FD8416851
:1026A00041F4805141600AE0007B216C0870206C8D
:1026B00001302064B4F846000138A4F84600012730
:1026C000FEF7C0FC002DAFD0A0EB09004045ABD316
:1026D000012084F85D00002084F85C00032001B034
:1026E000BDE8F08320464FF4C05142464B4601F00E
:1026F00001F868B9204641464A4601F06FF838B9FA
:1027000020464FF4C06142464B4600F0F3FF60B1F3
:10271000206E40F02000206620202066002084F8F3
:102720005C00012001B0BDE8F083012084F85D0069
:10273000002084F85C00206E002818BF012001B042
:10274000BDE8F083411E0020B0EB116F1CBF0120DB
:1027500070474EF21002CEF2000251604EF6235145
:10276000CEF20001F0230B700721906011607047DA
:1027700090F88410012904BF022070472421C0F87A
:10278000881002681168136823F00103136021F0B8
:1027900000530021416613602022C0F8882080F891
:1027A0008410084670470000704700007047000022
:1027B000B0B590F88420012A04BF0220B0BD0123E7
:1027C000242280F88430C0F888200268D0F864E0C1
:1027D000D2F800C01468BEF1000F24F001041460A8
:1027E000946824F0606441EA040191601BD0916810
:1027F000936845F2840E5B0FC0F6000E45F28C051F
:102800001EF80340C0F60005EB5CC1F34261E40032
:10281000B4FBF3F41EF80130695CDB00B3FBF1F3A9
:10282000A0F86A4001E0A0F86A302021A0F86830E2
:10283000C2F800C0C0F88810002180F88410084653
:10284000B0BD0000B0B590F88420012A04BF02207A
:10285000B0BD0123242280F88430C0F888200268AB
:10286000D0F864E0D2F800C01468BEF1000F24F084
:1028700001041460946824F0604441EA040191600A
:102880001BD09168936845F2840E5B0FC0F6000E72
:1028900045F28C051EF80340C0F60005EB5CC1F361
:1028A0004261E400B4FBF3F41EF80130695CDB0024
:1028B000B3FBF1F3A0F86A4001E0A0F86A302021F0
:1028C000A0F86830C2F800C0C0F88810002180F875
:1028D00084100846B0BD000070470000704700003B
:1028E00010B50446206850E8000F216820F490706D
:1028F00041E80002002AF5D14FF6FE70CEF6FF70D7
:10290000216851E8021F2268014042E80213002BAF
:10291000F6D1E06E012809D1206850E8000F216847
:1029200020F0100041E80002002AF5D120688068FC
:1029300040061CD5206850E8020F216820F04000B6
:1029400041E80202002AF5D1D4F8800078B10021D4
:102950008163FEF7CBF850B1D4F88000FEF73CF964
:10296000202804D11020C4F89000032010BD0020BE
:10297000A4F85E0021680F220A628A6942F0080208
:102980008A612021C4F88C10E06610BD70470000F9
:1029900070B5036840F62F02D969044618689E682E
:1029A0000A40202A05D100F0200206F08055521975
:1029B00029D140F60F020A400CD00122C1F20002D8
:1029C00006EA020C40F22012C0F20042024012EB72
:1029D0000C0220D1E26E012A06D111F0100218BFBC
:1029E00010F0100240F0F280CA0240F1CA8016F4E2
:1029F000800200F0C6804FF4801120461962BDE8C5
:102A00007040FFF76BBF616F002900F0998120468D
:102A1000BDE870400847CA0718BF10F4807207D09D
:102A200001221A62D4F8902042F00102C4F89020EA
:102A30008A0706F0010E0AD5BEF1000F07D0022268
:102A40001A62D4F8902042F00402C4F890204A0799
:102A50000AD5BEF1000F07D004221A62D4F89020E4
:102A600042F00202C4F890200A070CD500F02002C0
:102A700052EA0C0207D008221A62D4F8902042F0E1
:102A80000802C4F890200A050BD510F0806208D027
:102A90004FF400621A62D4F8902042F02002C4F889
:102AA0009020D4F89020002A00F04A8111F02001F3
:102AB0001EBF00F0200006F0805110EB010040F036
:102AC00040812068D4F89010806801F0280100F05F
:102AD0004000401806D12046FFF758FF0020C4F8F8
:102AE00090002DE1206850E8000F216820F49070DC
:102AF00041E80002002AF5D14FF6FE70CEF6FF70D5
:102B0000216851E8021F2268014042E80213002BAD
:102B1000F6D1E06E012809D1206850E8000F216845
:102B200020F0100041E80002002AF5D12020C4F86E
:102B30008C000020E066216860678868400640F1EC
:102B4000EA8000BF206850E8020F216820F04000B2
:102B500041E80202002AF5D1D4F88000002800F0F4
:102B6000DA8043F65521C0F600018163FDF7F6FFD8
:102B7000002800F0E580D4F88000816BBDE870404B
:102B800008470A0606D500F0800206F40003D218B2
:102B900040F0C6804A0640F1A68010F0400200F0E6
:102BA000A28000BF206850E8000F216820F040009C
:102BB00041E80002002AF5D120200021C4F8880055
:102BC0002046A167BDE8704000F0E6BA1020186208
:102BD0009868400637D4B4F85C00B4F85E10B4F8D6
:102BE0005E20002A18BF884200F0AA80401A00BF69
:102BF000216851E8001F226821F4907142E8001317
:102C0000002BF5D14FF6FE71CEF6FF71226852E827
:102C1000022F23680A4043E80226002EF6D1202125
:102C2000C4F88C100021E166616700BF216851E89B
:102C3000001F226821F0100142E80013002BF5D19B
:102C4000022281B261E0D4F88000006841688AB253
:102C5000002A52D0B4F85C309A424ED2A4F85E10EA
:102C60000068800632D400BF206850E8000F216859
:102C700020F4807041E80002002AF5D1206850E875
:102C8000020F216820F0010041E80202002AF5D17C
:102C9000206850E8020F216820F0400041E802025D
:102CA000002AF5D12020C4F88C000020E06600BF87
:102CB000206850E8000F216820F0100041E8000271
:102CC000002AF5D1D4F88000FDF710FF022020671C
:102CD000B4F85C00B4F85E10401A81B22046BDE83A
:102CE0007040FFF761BD0A021FD510F080421CD072
:102CF0002046BDE87040FFF7EFBDB4F85C1091428C
:102D00001ED1006880061BD5022220462267BDE83E
:102D10007040FFF749BD2046BDE87040FFF736BE62
:102D2000A16F00297FF473AE0AE0C90108D5B0F1A4
:102D3000FF3FC8BF70BD2046BDE87040FFF736BDFD
:102D400070BD616F00293FF4BCAE20468847B8E6ED
:102D500010B5D8B10446D0F8880028B9002084F80E
:102D60008400204600F026F82420C4F8880020685B
:102D7000A16A026822F00102026011B1204600F04F
:102D800095FD204600F020FF012801D1012010BD53
:102D90002168486820F490404860886820F02A0044
:102DA0008860086840F0010220460A60BDE81040D3
:102DB00000F0F0BD2DE9F04198B00446002602A8CD
:102DC00044211796CDE91566CDE91366FDF76AFA39
:102DD000206844F20041C4F2000188426FD043F6FB
:102DE0000001C4F20101884240F0D8800120029025
:102DF000002602A80396FEF763FB002818BFFDF724
:102E0000C1FA41F24C00C4F20200416940F23008BC
:102E100041F4804141614169C4F2020801F48041FA
:102E200001910199016841F001010160006813A955
:102E300000F00100019001984FF4C060139002204F
:102E4000CDE91406072017904FF090401696FEF734
:102E50001DF840F2D865C2F2000519201021C5E91D
:102E6000008005F108008027C2C02846C5E9056634
:102E7000C5E90766FDF706FF002818BFFDF782FACF
:102E8000E567AC6240F2786508F57B70C2F2000538
:102E90001821002285E807002846C5E90327C5E96F
:102EA0000522C5E90722FDF7EDFE002818BFFDF752
:102EB00069FAC4F8805005F12800252565E002254F
:102EC00002A802950496FEF7FBFA002818BFFDF74A
:102ED00059FA41F24C00C4F20200C16840F23008D5
:102EE00041F40031C160C168002601F40031019154
:102EF00001990168C4F2020841F002010160006812
:102F000013A900F00200019001981820CDE91305E3
:102F10000720179040F20040C4F60000CDE9156686
:102F2000FDF7B4FF40F2387508F11400C2F2000555
:102F30001A21802785E843002846C5E90367C5E9CB
:102F40000566C5E90766FDF79DFE002818BFFDF779
:102F500019FAC4F88050AC6240F2987508F1280064
:102F6000C2F200051B21102285E8C7002846C5E9EA
:102F70000566C5E90766FDF785FE002818BFFDF761
:102F800001FAE56705F1280026250460284600219E
:102F90000022FEF7CBF92846FEF7B8F918B0BDE8D5
:102FA000F0810000B0B50446D0F88C0020281CBF8A
:102FB0000220B0BD96460A4600294FF0010018BF16
:102FC000BEF1000F00D1B0BD4FF0000CC4F86CC0D2
:102FD000216848F20000C4F2000081420CD0486829
:102FE000000209D5206850E8000F216840F0806099
:102FF00041E80003002BF5D12220A265A4F85CE093
:10300000C4F890C0C4F88C00D4F88000F8B143F63E
:103010002931C0F6000143F6AD3343F6612C00F1CF
:103020002C07C0F60003C0F6000C87E80A102168E0
:103030000025243173468563FDF7B6FE38B11020B4
:10304000C4F890002020C4F88C000120B0BD206995
:1030500050B100BF206850E8000F216840F4807034
:1030600041E80002002AF5D1206850E8020F2168EB
:1030700040F0010041E80202002AF5D1206850E842
:10308000020F216840F0400041E80202002AF5D119
:103090000020B0BD70470000704700002DE9F043EC
:1030A00081B00446D0F8880020281FD18846002926
:1030B0004FF001006CD01646002A69D00020C4F8F9
:1030C000900021201D46C4F88800FDF7BBFFA4F83E
:1030D0005460A4F85660A1680646B1F5805F01D13E
:1030E000206938B1C1464FF0000805E0022001B068
:1030F000BDE8F0834FF00009B4F8560058B36F1CD8
:103100000EE0B9F1000F1DD019F8010B216888629B
:10311000B4F856000138A4F85600B4F85600D0B1FF
:103120002068C0690006ECD4002FF9D0FDF78AFFB3
:1031300001464FF0030045B3891BA94225D82068FA
:103140000068EDE738F8020B21686FF35F208862B2
:103150004FF00009DCE72068C069400614D46F1CFA
:1031600004E000BF2068C06940060DD4002FF9D0EC
:10317000FDF768FF01464FF0030035B1891BA942F6
:1031800003D820680068EDE700202021C4F88810EB
:1031900001B0BDE8F083000070470000FEE70000CA
:1031A00010B58CB040F22040C2F200004FF0A041B8
:1031B00000244FF4403280E816004FF4807104235D
:1031C000818301210B94CDE90944CDE90744CDE980
:1031D0000544CDE90344CDE90144C0E90344C0E915
:1031E0000543016280F82440C0E90B4480F83810A0
:1031F000C46380F84040FDF7C7FA002818BFFDF708
:10320000C1F840F22040C2F2000009A90994FDF77C
:10321000BFF8002818BFFDF7B5F80220C0F2304013
:10322000019006200290072003907F200490042044
:1032300005900020069040F22040C2F2000001A953
:10324000FDF706F9002818BFFDF79CF80CB010BD7B
:10325000B0B588B040F28C4040F20011C2F20000DC
:10326000C5F2000100244FF44032102380E81E0014
:103270004FF48071042581830121CDE90644CDE915
:103280000444CDE90244CDE90044C0E90444856129
:10329000016280F82440C0E90B4480F83810C46310
:1032A00080F84040FDF770FA002818BFFDF76AF873
:1032B00044F20000C3F6C02000900620CDE90104CE
:1032C0007F20CDE9030540F28C40C2F20000694640
:1032D0000594FDF7BDF8002818BFFDF753F808B0B6
:1032E000B0BD000080B584B041F24800C4F20200D5
:1032F0000168002241F004010160016801F004014D
:1033000003910399016841F001010160016801F036
:10331000010102910299016841F002010160006817
:10332000002100F00200019001980B20FDF7FEFF44
:103330000B20FDF7EBFF0C2000210022FDF7F6FF2C
:103340000C20FDF7E3FF0D2000210022FDF7EEFF2A
:103350000D20FDF7DBFF0E2000210022FDF7E6FF28
:103360000E20FDF7D3FF0F2000210022FDF7DEFF26
:103370000F20FDF7CBFF102000210022FDF7D6FF24
:103380001020FDF7C3FF382000210022FDF7CEFFFB
:103390003820FDF7BBFF392000210022FDF7C6FFD2
:1033A000392004B0BDE88040FDF7B0BF2DE9F043FF
:1033B00087B0002741F24C000697CDE90477CDE9AC
:1033C0000277C4F20200016840F2004841F00401B3
:1033D00001600168C4F6000801F00401019101993F
:1033E000016808F5806541F0200101600168002254
:1033F00001F0200101910199016841F00101016092
:10340000016801F0010101910199016841F0020197
:103410000160006840F2DF7100F002000190019845
:103420002846FDF709FE4FF0904048F2FE010022C9
:10343000FDF702FE404640F227410022FDF7FCFD69
:1034400040464FF4805101224FF00109FDF7F4FD91
:103450004FF4404002AECDE90207284631460497BA
:10346000FDF714FD40F2DF30CDE9020903242846C0
:10347000314604970594FDF709FDFE20CDE90209C8
:103480004FF090403146CDE90474FDF7FFFC41F266
:103490000740CDE9020940463146CDE90474FDF705
:1034A000F5FC4FF4006002A981E881024FF09040E2
:1034B0003146FDF7EBFC4FF40040CDE902094FF037
:1034C00090403146CDE90477FDF7E0FC4FF4806091
:1034D000CDE9020928463146CDE90477FDF7D6FC4F
:1034E0002020CDE9020940463146CDE90477FDF7B9
:1034F000CDFC8020CDE90207404631460497FDF718
:10350000C5FC07B0BDE8F08380B540F2F87047F61F
:103510000001C2F20000C4F2000148F2C2520023CE
:10352000C4F2B2024FF0010C80E80E10C0E904337F
:10353000C0E906330362FDF7D5FD002818BFFCF78C
:1035400021FF40F2F870C2F200000021FDF780FD7B
:10355000002818BFFCF716FF40F2F870C2F2000016
:103560000021FDF79BFD002808BF80BDBDE880401D
:10357000FCF708BF10B540F64C0043F60001C2F25C
:103580000000C4F200014FF4827200234FF4E06C9B
:103590004FF4007E082480E80E100721C0E90433B0
:1035A000C0E906E4C0E90833C0E90A31C0E90C34D7
:1035B000FEF79AFD002808BF10BDBDE81040FCF7DB
:1035C000E1BE000080B540F6B00043F60001C2F253
:1035D0000000C4F2010100234FF00C0C4FF46122F3
:1035E00080E80E00C0E90333C0E905C3C0E9073332
:1035F000C0E90933FFF7ACFB002818BFFCF7C2FE97
:1036000040F6B000C2F200000021FFF71BF90028CD
:1036100018BFFCF7B7FE40F6B000C2F20000002170
:10362000FFF7C6F8002818BFFCF7ACFE40F6B00064
:10363000C2F20000FFF79CF8002808BF80BDBDE87B
:103640008040FCF79FBE000080B540F6441044F275
:103650000041C2F20000C4F2000100234FF00C0C44
:103660004FF4E13280E80E00C0E90333C0E905C33E
:10367000C0E90733C0E90933FFF76AFB002818BF28
:10368000FCF780FE40F64410C2F200000021FFF774
:10369000D9F8002818BFFCF775FE40F64410C2F2B6
:1036A00000000021FFF784F8002818BFFCF76AFE2D
:1036B00040F64410C2F20000FFF75AF8002808BF95
:1036C00080BDBDE88040FCF75DBE0000FEE7000065
:1036D000FEE700007047000040F64C00C2F2000018
:1036E000FEF776BC806A0021A0F84610C187FEF77D
:1036F0006DBC00002DE9F04F83B04FF000091E466D
:1037000090460D4683468DF80790FDF79BFC301AD6
:1037100000EB0807FDF796FC40F20401C2F200013D
:10372000096823225143090DDBF800A07943029177
:10373000DAF8081029424DD0064608F1010404E0E9
:10374000DBF800008068284217D0B5F5C06F05D1BE
:103750009AF80C008DF807009DF80700002CEFD0B8
:10376000FDF770FC801BB8420AD20298029900282B
:1037700008BF0746481E0290E2E74FF0000929E023
:10378000DBE900014268B1F5827F22F0E00242608D
:103790000BD1DBF80810B1F5004F02D0B1F5806F06
:1037A00003D1016821F040010160DBF82810B1F578
:1037B000005F07D1016821F400510160016841F404
:1037C0000051016001208BF85D0000208BF85C0047
:1037D0004FF00309484603B0BDE8F08FF0B581B063
:1037E00015460E460446FDF72DFC281A8719FDF7ED
:1037F00029FC40F20401C2F200010968C1F3CB3197
:103800007943009121688968090602D4002001B03B
:10381000F0BD0546013603E0206880680006F5D556
:10382000002EF9D0FDF70EFC401BB84207D20098DD
:103830000099002808BF0746481E0090ECE7D4E92D
:1038400000014268B1F5827F22F0E00242600AD1B5
:10385000A168B1F5004F02D0B1F5806F03D10168C6
:1038600021F040010160A16AB1F5005F07D1016854
:1038700021F400510160016841F400510160012010
:1038800084F85D00002084F85C00032001B0F0BDE6
:1038900070470000FDF7D8BC4EF68850CEF200000D
:1038A000016841F4700101607047000080B5816AD1
:1038B0000A070CD4CA0715D18A071ED44A0727D491
:1038C000CA0630D48A0639D44A0657D541E0026880
:1038D000D0F838C0536823F4004343EA0C03536024
:1038E000CA07E9D00268D0F82CC0536823F400332B
:1038F00043EA0C0353608A07E0D50268D0F830C071
:10390000536823F4803343EA0C0353604A07D7D546
:103910000268D0F834C0536823F4802343EA0C03D0
:103920005360CA06CED50268D0F83CC0936823F431
:10393000805343EA0C0393608A06C5D50268D0F829
:1039400040C0936823F4005343EA0C0393604A0693
:1039500014D50268D0F844C05368BCF5801F23F426
:10396000801343EA0C03536008D1D2F804C0D0F8A6
:1039700048E02CF4C00343EA0E035360090658BF25
:1039800080BD0168C06C4A6822F400221043486080
:1039900080BD0000B0B582B004460020C4F890009D
:1039A000FDF750FB21680546096809071BD56FF034
:1039B0007E4C20464FF4001100222B46CDF800C06B
:1039C00000F068FA78B100BF206850E8000F216865
:1039D00020F0800041E80002002AF5D12020C4F840
:1039E0008800032031E020680068400725D56FF08B
:1039F0007E4C20464FF4800100222B46CDF800C0BB
:103A000000F048FAC8B100BF206850E8000F2168F4
:103A100020F4907041E80002002AF5D1206850E8B7
:103A2000020F216820F0010041E80202002AF5D1CE
:103A30002020C4F88C00032007E02020C4F8880070
:103A4000C4F88C000020E0662067002184F8841010
:103A500002B0B0BD806A0021A0F85E10FEF796BFEC
:103A6000806A0368D0F88820D0F88CC09B681B0659
:103A70001BD5212A19D10022A0F85620026852E84D
:103A8000002F036822F0C00243E800210029F5D18D
:103A9000016851E8021F026821F4000142E80213A4
:103AA000002BF5D12021C0F88810016889684906EB
:103AB00032D5BCF1220F2FD10021A0F85E1000BF3B
:103AC000016851E8001F026821F4907142E8001378
:103AD000002BF5D14FF6FE7CCEF6FF7C026852E853
:103AE000022F036802EA0C0243E802210029F5D103
:103AF000C16E01290AD100BF016851E8001F0268A8
:103B000021F0100142E80013002BF5D12021C0F86C
:103B10008C100021C1664167D0F8901041F010016F
:103B2000C0F89010FEF732BF0168806A0968890604
:103B300030D40021A0F85E10016851E8001F02682F
:103B400021F4807142E80013002BF5D1016851E89F
:103B5000021F026821F0010142E80213002BF5D197
:103B6000016851E8021F026821F0400142E8021397
:103B7000002BF5D12021C0F88C10C16E012909D18C
:103B8000016851E8001F026821F0100142E80013AB
:103B9000002BF5D100210167C16E012918BFFFF785
:103BA00079BAB0F85C10FEF7FFBD0000806A012111
:103BB0000167C16E012918BFFFF76EBAB0F85C103B
:103BC0004908FEF7F1BD0000F0B581B0044604F1EC
:103BD00008064ECE0068194341EA0603E16906680B
:103BE00046F6F315CCF6FF752E4033430B430360C6
:103BF00043684FF2FF4523F440531A43426048F2B2
:103C00000002A369C4F2000290421CBF266A33433B
:103C10008668C1F2FF152E4033438360C36A666A2B
:103C200023F00F033343C36244F6FF33C4F20003AF
:103C300098424FF0100314DD44F60046C4F200062B
:103C4000B04221D0904226D043F60006C4F20106CD
:103C5000B04235D141F28803C4F202031B6889A641
:103C60002AE044F20046C4F20006B0421AD044F6FC
:103C70000006C4F20006B04222D141F28803C4F229
:103C800002031B681B0913E041F28803C4F202031C
:103C90001B689B090CE041F28803C4F202031B6815
:103CA0009B0A05E041F28803C4F202031B689B08EB
:103CB00045F27406C0F6000603F0030356F82330FD
:103CC000904242F20040C0F2F40014D0B1F5004F2F
:103CD00020D1082B00F272800027DFE803F0056A8C
:103CE000766F736F6F6F95000027FDF7C5FE002894
:103CF00040F06C808DE0082B1DD80027DFE803F032
:103D0000051B221B1F1B1B1B52000027FDF7B4FEC7
:103D1000C8B94CE0082B00F283800027DFE803F0ED
:103D2000057B878084808080A3000027FDF7A4FEA8
:103D300000287DD19CE00020012720B937E0002732
:103D4000FDF7C6FE98B3616A45F25C02C0F6000258
:103D500032F811206568B0FBF2F305EB45018B42A8
:103D60004FF00101C0F085802E03B34200F2818044
:103D700000210023FCF74CFA090241EA106100021D
:103D800010EB550041F100012A460023FCF740FAF0
:103D90004FF60052A0F54071C0F20F0291425CD381
:103DA000012166E04FF4004000270028CBD13946BE
:103DB0005FE00027FDF776FE40B92AE000200127EA
:103DC00020B926E00027FDF783FE10B3616A45F2B3
:103DD0005C02C0F6000232F811106268B0FBF1F02C
:103DE000510801EB4000B0FBF2F04FF6EF72A0F18A
:103DF0001001914206D84FF6F0710140C0F3420025
:103E000008442AE0012134E04FF400400027002854
:103E1000DCD139462DE00027FDF744FE40B927E00C
:103E20000020012720B923E00027FDF751FEF8B15B
:103E3000616A45F25C02C0F6000232F81110626855
:103E4000B0FBF1F000EB5200B0FBF2F04FF6EF7276
:103E5000A0F11001914204D880B22168C8603946AF
:103E600007E0012105E04FF4004000270028DFD1E2
:103E700039464FF001100022A06662670846A2672B
:103E800001B0F0BD010000000400000002000000CD
:103E9000080000002DE9F04381B004460068C069C5
:103EA0000840401AB0FA80F04009904257D1DDF83E
:103EB000208015460E46994608F1010709E000BF2B
:103EC0002068C0693040801BB0FA80F04009A842E9
:103ED00049D1002FF4D0FDF7B5F80146B8F1000F35
:103EE0004FF0030040D0A1EB090141453CD82068C8
:103EF00001684907E4D5402EE2D0802EE0D0C169A8
:103F0000090734D4C1690905DAD54FF400610162AB
:103F1000206850E8000F216820F4907041E800020A
:103F2000002AF5D14FF6FE70CEF6FF70216851E8F9
:103F3000021F2268014042E80213002BF6D1E06E16
:103F4000012809D1206850E8000F216820F01000F6
:103F500041E80002002AF5D10320202130E00020B2
:103F600001B0BDE8F083002001B0BDE8F083082176
:103F7000016200BF206850E8000F216820F49070B3
:103F800041E80002002AF5D14FF6FE70CEF6FF7030
:103F9000216851E8021F2268014042E80213002B09
:103FA000F6D1E06E012809D1206850E8000F2168A1
:103FB00020F0100041E80002002AF5D1012008217C
:103FC0002022C4F88C200022E2666267C4F89010B8
:103FD00084F8842001B0BDE8F083000080B540F68D
:103FE000B000C2F20000FEF7D3FCBDE8804000F054
:103FF00055BB000080B540F64410C2F20000FEF749
:10400000C7FCBDE8804000F073BB0000FEE7000085
:1040100010B540F21402C2F200021278D2B1044686
:10402000084410F8020C0D2814D1081910F8010CDE
:104030000A280FD123780AA012A17D2200F09EFD4C
:1040400020780C2807D00B2818BF10BDBDE8104001
:1040500000F0AABA10BDBDE8104000F073BB00BF6D
:104060005B25733A25645D205265636569766564F6
:10407000203078253032582066726F6D20424C0D0A
:104080000A000000626C5F636D645F68616E646C5F
:104090006572000010B5FCF7D5FF40F21804C2F2BB
:1040A00000042168401AB0F57A7F38BF10BDFCF7D4
:1040B000C9FF206040F20040C4F600008021FCF7F8
:1040C000B5FF40F21404C2F20004217801280BD19C
:1040D00039B945F2BC1112A0C0F60001502200F01F
:1040E0004DFD0120207010BD39B145F2BC1104A076
:1040F000C0F60001582200F041FD0020207010BDE4
:104100005B25733A25645D20424C204C696E6B2020
:10411000646973636F6E6E65637465640D0A000095
:104120005B25733A25645D20424C204C696E6B2000
:10413000636F6E6E65637465640D0A0010B548F2B6
:10414000203140F21C0C4FF0000ECEF6B851C2F2F6
:10415000000C00BF0823704681EA5002C40708BF64
:104160004208013B1046F7D14CF82E000EF1010E2B
:10417000BEF5807F08BF10BDECE70000002904BF3A
:104180000020704740F21C0C421E4FF0FF30C2F27C
:10419000000C00BF12F8013F013983EA0003DBB2D3
:1041A0005CF8233083EA1020F4D1C043704700004C
:1041B0002DE9F04FEBB02AA800F06CFC002800F0CD
:1041C000B4809DF8A9000B2840F0BA809DF8AA00A1
:1041D000402840F0B5809DF8AB00172840F0B08033
:1041E00045F2B115C0F6000544F2317483A02946AA
:1041F0006622C4F64F4400F0C1FC9DF8A9009DF86A
:10420000AA109DF8A8309DF8AB70CDE9000181A0FF
:1042100029466F22029700F0B1FC45F2786004ADA8
:10422000C1F2342005F110094FF0000B069048460A
:1042300088210494CDF814B0FFF7A0FF4FF6007862
:1042400045F2940A2BACC0F27F08C0F6000A079032
:1042500024E000BF45F22C1045F29C11C0F600008E
:10426000C0F60001222200F089FC00F06BFA002663
:10427000079F45F2B1115046C0F6000192225B46FD
:104280000096019700F07AFC30462946982200F00B
:1042900023FB0BF1010BBBF1110F5FD00698CDF89A
:1042A00014B0013006904FF0FF3000BF29180130E4
:1042B0006F284874FAD10020291800F10A02013051
:1042C000182881F88020F7D148468821FFF756FF4B
:1042D0000026079006E0FF20FF2819D2464506F584
:1042E0008076B7D2304621464FF4807200F08AFBC8
:1042F0009DF8AC00FF28F1D1012000BFB0F5807F10
:10430000E9D0215C0130FF29F8D00238FF28E5D33D
:1043100045F2CD0045F29C11C0F60000C0F6000148
:104320001B22334600F02AFCA2E745F2B1112AA075
:10433000C0F600016B2200F021FC6BB0BDE8F08FED
:1043400045F26F1045F2B111C0F60000C0F6000151
:10435000602200F013FC6BB0BDE8F08F45F2B1179E
:1043600045F2531A00240DF11008C0F60007C0F6FC
:10437000000A0FF2C40B0AE0584639469E22234633
:1043800000F0FCFB0134112CA6F58076D5D0304628
:104390004146982200F036FB049844F23171C4F68D
:1043A0004F418842E8D148468821FFF7E7FE079D44
:1043B000A8420DD1DDE90501AA22CDE9000145F2AF
:1043C000F200C0F60000394623460295D8E700BF48
:1043D00050463946A522D2E75B25733A25645D2015
:1043E0004661696C656420746F2072656164204663
:1043F0006C6173682049440D0A0000005B25733A24
:1044000025645D20476F6F6420666C617368206966
:10441000640D0A005B25733A25645D2069643A20C7
:10442000253032582025303258202530325820256A
:104430003032580D0A0000005B25733A25645D2078
:104440004C6F672025643A20496E76616C69642060
:104450006D616769630D0A0080B582B0019040F616
:10446000B000C2F2000001A901224FF0FF33FEF7B5
:1044700015FE019802B080BD70B5C0B04FF6007651
:1044800000246D46C0F27F0606E000BFFF281BD265
:10449000B44204F5807415D2204629464FF4807248
:1044A00000F0B0FA9DF80000FF28F1D1002100BF14
:1044B0000846FF29EAD029184978FF2900F10101AF
:1044C000F6D0E3E7002505E0C4F30F2103A0250A99
:1044D00000F054FBA8B240B070BD00BF57726974C1
:1044E0007465642070616765206E756D6265723AEF
:1044F00020256C750D0A000094B0FCF7B3FE06ACE5
:1045000020463821FBF7CEFE002500200595CDE999
:104510000355CDE90155FCF745FF4FF48071099132
:1045200040210A91042102200F9155210690CDE9E6
:104530000D00CDE91010CDE912002046FDF708FB73
:1045400018B1EFF3108072B6FEE70F200190032040
:10455000CDE9020501A80421CDE90455FDF7FAF8DB
:1045600018B1EFF3108072B6FEE7FEF71FFFFEF7FB
:10457000B9FEFEF715FEFEF76BFEFEF7C5FFFEF770
:10458000F9FFFFF71FF8FFF75FF8FFF7D7FDFFF719
:104590000FFEFFF771FF00F049F800BF00F06CF864
:1045A000FFF778FDFAE70000F0B5A7B0FFF764FF6A
:1045B000044645F2D11045F2EF11C0F60000C0F6F6
:1045C00000015C22234600F0D9FA40F6D811C2F26D
:1045D00000011A200870200A487040F60D20A1F84A
:1045E000030040F64410C2F2000005224FF0FF33F2
:1045F0008C70FEF753FDBCB140F644162702002430
:1046000001ADC2F2000600BF20462946982200F004
:10461000F9F93046294698224FF0FF33FEF73EFD68
:1046200004F58074A742EFD127B0F0BD10B540F675
:10463000B000C2F20000016810240A6842F01002C3
:104640000A600C6240F6EC11C2F200014022FEF753
:10465000A9FC40F64410C2F2000003684022196829
:1046600041F01001196040F62C21C2F200011C62D9
:10467000BDE81040FEF796BC10B540F21D44C2F2F2
:1046800000042178002908BF10BD40F62C20C2F29A
:104690000000FFF7BDFC0020207010BD10B540F6F3
:1046A000B000C2F200000168CA69D20658BF10BD4E
:1046B00010220A62D0F8800000684068010406D029
:1046C00040F21C41C0F14000C2F20001087040F607
:1046D000B004C2F200042046FEF702F940F6EC11E5
:1046E000C2F2000120464022BDE81040FEF75ABC4D
:1046F00010B540F64410C2F200000168CA69D20643
:1047000058BF10BD10220A62D0F8800000684068CF
:10471000010406D040F21D41C0F14000C2F2000188
:10472000087040F64414C2F200042046FEF7D8F8A0
:1047300040F62C21C2F2000120464022BDE8104084
:10474000FEF730BC2DE9F04182B0FCF77BFC8046DF
:1047500027A000F065FC40F20045C4F6000528469D
:104760004FF4805100220024FCF766FC40F64C0612
:104770000620C2F200068DF805004FF0FF370DF15C
:10478000050101AA304601238DF804400097FDF78A
:104790008DFE28464FF480510122FCF74DFC28463F
:1047A0004FF480510022FCF747FCC7208DF807002A
:1047B0000DF107010DF10602304601238DF8064088
:1047C0000097FDF773FE28464FF480510122FCF755
:1047D00033FC00F089F9FCF735FCA0EB08030AA0D4
:1047E00012A1472200F0CAF902B0BDE8F08100BF73
:1047F0005374617274696E672063686970206572B2
:104800006173652E2E2E0D005B25733A25645D20A5
:104810004368697020657261736520746F6F6B20E7
:10482000256C75206D730D0A000000007874323518
:10483000665F636869705F657261736500000000A0
:1048400070B584B020218DF80A10010C40F20044AC
:104850008DF80B10010AC4F600048DF80C108DF8C9
:104860000D00002520464FF4805100220195FCF7F1
:10487000E3FB8DF80E5040F64C050620C2F2000511
:104880008DF80F004FF0FF360DF10F010DF10E0204
:10489000284601230096FDF709FE20464FF480517B
:1048A0000122FCF7C9FB20464FF480510022FCF79F
:1048B000C3FB0DF10A0101AA284604230096FDF767
:1048C000F5FD20464FF480510122FCF7B5FB00F0C6
:1048D0000BF904B070BD0000F0B5C3B0044600068B
:1048E0006DD1501E1546FF2869D802AF0E46C5F59A
:1048F00080717819FF22FF2D88BF0021FBF7CBFCC8
:10490000384631462A46FBF7B4FC200508D12DA0D5
:1049100037A16C22234600F031F92046FFF790FFC3
:1049200002208DF80400200C8DF80500200A8DF877
:1049300006008DF8074000F0D7F840F20044C4F6B6
:10494000000420464FF4805100220025FCF774FB40
:104950008DF80A5140F64C050620C2F200058DF88C
:104960000B014FF0FF370DF20B110DF58572284644
:1049700001230097FDF79AFD20464FF48051012254
:10498000FCF75AFB20464FF480510022FCF754FB01
:1049900001A9284604224FF0FF33FDF793FC02A93A
:1049A00028464FF480724FF0FF33FDF78BFC204612
:1049B0004FF480510122FCF73FFB00F095F843B023
:1049C000F0BD00BF5B25733A25645D2045726173BD
:1049D000696E6720736563746F722061742061640F
:1049E00064726573732030782530386C580D0A0076
:1049F00078743235665F706167655F70726F677279
:104A0000616D00002DE9F04784B00E46032140F2AD
:104A100000488DF80C10010CC4F600088DF80D103C
:104A2000010A15468DF80E108DF80F0040464FF420
:104A300080510022FCF700FB40F64C00C2F200005F
:104A400003A904224FF0FF334FF0FF39FDF73AFC82
:104A5000B5B140F64C074FF0FF0AC2F200070DF166
:104A60000B0400BF38462146324601238DF80BA0C7
:104A7000CDF80090FDF71AFD013D06F10106F1D1D8
:104A800040464FF480510122FCF7D6FA04B0BDE84D
:104A9000F087000070B582B040F2004604469F20C7
:104AA000C4F600068DF8070030464FF4805100220E
:104AB000FCF7C2FA40F64C004FF0FF35C2F200009E
:104AC0000DF10701224604230095FDF7EFFCB0FA33
:104AD00080F0440930464FF480510122FCF7ACFAD3
:104AE000204602B070BD00002DE9F04F83B040F2C7
:104AF00000444BF2C04740F64C05C4F60004CFF624
:104B0000B3774FF00008C2F200050DF10B0A0DF16A
:104B10000A0B4FF0FF3600BF20464FF480510022B1
:104B2000FCF78AFA05208DF8090028460DF10901E5
:104B300002AA01238DF808800096FDF7B7FCFF203C
:104B40008DF80B00284651465A4601238DF80A80FD
:104B50000096FDF7ABFC9DF80A9020464FF480517B
:104B60000122FCF769FA013703D25FEAC970D3D199
:104B70000026304603B0BDE8F08F00000FB4054BAF
:104B800010B503A9044A029800F018F810BC5DF8AB
:104B900014FB0000594400080000002002E008C88F
:104BA000121F08C1002AFAD170477047002001E0A7
:104BB00001C1121F002AFBD1704700002DE9FF4FF1
:104BC0008DB00F460546002606E025280BD0DDE90E
:104BD0000F1290476D1C761C28780028F5D111B073
:104BE0003046BDE8F08F0024A246A1460122EC49E0
:104BF00000E0044315F8013F203B02FA03F00842AD
:104C0000F7D128782A2810D06FF02F022878A0F149
:104C10003001092914D80AEB8A0102EB410144F062
:104C2000020400EB010A6D1CF0E701CF5FEA000A05
:104C300003D544F40054CAF1000A44F002046D1C88
:104C400028782E2817D115F8010F44F004042A28DB
:104C50000ED06FF02F022878A0F1300109290AD870
:104C600009EB890102EB410100EB01096D1CF2E740
:104C700057F8049B6D1C28786C280FD006DC4C2854
:104C800017D068280DD06A2814D104E0742810D0F9
:104C90007A280FD10DE044F400140AE044F48014A3
:104CA00001E044F440146978814202D104F5801493
:104CB0006D1C6D1C2A786E2A1FD00CDC632A31D043
:104CC00004DC002A8BD0582A11D1A3E0642A68D0D2
:104CD000692A0CD165E0732A2ED004DC6F2A73D0C8
:104CE000702A04D19BE0752A6FD0782A6ED01046C6
:104CF000DDE90F129047761C50E1C4F30250022800
:104D000006D0032809D0042801CF09D0066045E168
:104D100001CFF117C0E9006140E101CF06803DE11C
:104D200006703BE117F8040B8DF8000000208DF8A9
:104D30000100EB46012003E057F804BB4FF0FF30C1
:104D400061074FF0000102D40DE008F1010188462F
:104D500049450FDA8045F8DB1BF808100029F4D12B
:104D600008E008F1010188468142FADB1BF80810CF
:104D70000029F6D1DDE90F23AAEB08008146214680
:104D800000F036F9304400EB080604E0DDE90F12CC
:104D90001BF8010B9047B8F10108F7D221464846AD
:104DA000F7E00A21C4F302534FF0000B0891022BE5
:104DB00004D001CFC117032B09D00AE0FF1D27F053
:104DC0000707F7E8020108E032E01FE020E000B248
:104DD000C117042B01D140B2C117031E71F10003AA
:104DE00007DA4FF0000CD0EB0C006CEB01012D2327
:104DF00002E0230504D52B238DF82430012303E0A2
:104E0000E30701D02023F7E7984658E00A2110E095
:104E100010210EE010204FF0000B08900CE0102144
:104E20004FF0000B44F004044FF00809089103E030
:104E300008214FF0000B0891C4F30253022B04D059
:104E400001CF0021032B06D006E0FF1D27F0070746
:104E5000F7E8020103E080B2042B00D1C0B24FF0AA
:104E6000000823072BD5702A07D0DDF820C08CF06E
:104E7000100C5CEA0B0C05D00EE040238DF82430BA
:104E8000012308E050EA010306D030238DF82430D6
:104E90008DF8252002239846DDF820C08CF0080C00
:104EA0005CEA0B0C0BD150EA010301D1630706D574
:104EB00030238DF824304FF00108A9F10109582A58
:104EC00004D038A20B9208AA0A920BE03AA2F9E7A2
:104ED0005B46089AFBF79CF90B9B9B5C0A9A521E57
:104EE0000A92137050EA0102F2D10A98ADEB000069
:104EF00000F1200B600702D524F4803401E04FF06C
:104F00000109D94502DDA9EB0B0000E0002000EB10
:104F10000B0141440890AAEB010AE00306D4DDE945
:104F20000F232146504600F063F806444FF0000975
:104F300008E009A911F80900DDE90F12904709F10D
:104F40000109761CC145F4DBE0030CD5DDE90F2334
:104F50002146504600F04CF8064404E0DDE90F120B
:104F600030209047761C0899481E08900029F5DCEF
:104F700008E00A980A990078491C0A91DDE90F12A5
:104F80009047761CBBF10001ABF1010BF1DC21462F
:104F90005046DDE90F2300F019F806446D1C1BE6AE
:104FA00009280100303132333435363738396162FF
:104FB00063646566000000003031323334353637C3
:104FC0003839414243444546000000002DE9F04194
:104FD000044600251E461746880404D405E03946D9
:104FE0002020B0476D1C641EF9D52846BDE8F0812D
:104FF0002DE9F041044600251E469046C80301D520
:10500000302700E02027880404D505E041463846D3
:10501000B0476D1C641EF9D52846BDE8F08100003C
:1050200010B5044601E0FFF717FA14F8010B044924
:105030000028F8D1BDE810400A20FFF70DBA0000A3
:105040000000002000000000000000000102030436
:105050000607080900000000010203040100020025
:105060000400060008000A000C00100020004000A8
:1050700080000001000000000400000002000000A9
:1050800008000000010101030701000008040204F8
:10509000080101015B25733A25645D20577269742C
:1050A000696E67206C6F6720256420746F206164CF
:1050B00064726573732030782530386C58206372C1
:1050C000633A2030782530386C580D0A005B257320
:1050D0003A25645D204E6578742077726974652086
:1050E000706167652061742030782530386C580D08
:1050F0000A005B25733A25645D204C6F67202564A8
:105100003A205365713D256C752C2054696D65738B
:1051100074616D703D30782530386C582C204352C6
:10512000433D30782530386C580D0A005B25733AC2
:1051300025645D20466C6173682066756C6C2C205C
:105140007772617070696E6720746F206261736539
:105150000D0A005B25733A25645D204C6F6720259E
:10516000643A20435243206572726F720D0A005BED
:1051700025733A25645D20556E65787065637465A6
:105180006420466C6173682049442C2061626F7210
:1051900074696E6720746573740D0A0066696E64C5
:1051A0005F6E6578745F77726974655F616464725D
:1051B00000666C6173685F7465737400626C5F6C29
:1051C000696E6B5F7374617475735F636865636B3D
:1051D000005B25733A25645D2057726974746564B9
:1051E000206E756D6265723A20256C750D0A00732C
:1051F000656E645F73617665645F6461746100000D
:105200002052000800000020100000009C4B000805
:105210003052000810000020600E0000AC4B000867
:10522000000000000024F400010000001000000055
:04000005080001D915
:00000001FF
