:020000040800F2
:10000000301C0020ED01000817370008DF31000820
:100010001537000865040008394600080000000094
:10002000000000000000000000000000113E000879
:100030006F0500080000000019370008133E000893
:10004000070200080702000807020008070200086C
:10005000070200080702000807020008070200085C
:1000600007020008070200080702000869040008E8
:1000700075040008810400088D0400089904000834
:10008000A50400080000000007020008070200089D
:10009000070200080702000807020008070200081C
:1000A000070200080702000807020008070200080C
:1000B00007020008070200080702000807020008FC
:1000C00007020008070200080702000807020008EC
:1000D000F13B000811460008254600080702000809
:1000E00007020008070200080702000807020008CC
:1000F00007020008070200080702000800000000CD
:1001000000000000070200080000000007020008CD
:1001100007020008000000000702000807020008AC
:10012000B1040008BD040008070200080702000827
:10013000070200080000000000000000070200089D
:10014000070200080702000800000000000000008D
:10015000000000000000000000000000000000009F
:10016000000000000000000000000000070200087E
:10017000070200080000000000000000000000006E
:10018000000000000702000800000000000000005E
:10019000000000000000000000000000000000005F
:1001A000000000000000000007020008070200082D
:1001B000070200080702000807020008000000000C
:1001C000000000000702000800000000000000001E
:1001D0000702000807020008DFF80CD000F07AF8E8
:1001E00000480047994E0008301C00200648804710
:1001F00006480047FEE7FEE7FEE7FEE7FEE7FEE70C
:10020000FEE7FEE7FEE7FEE7893E0008D9010008A9
:100210002DE9F05F0546002092469B46884606463B
:10022000814640241BE0284641464746224600F0CE
:1002300041F853465A46C01A914110D31146184608
:10024000224600F028F82D1A67EB01084F46224697
:100250000120002100F01FF817EB00094E41201E7D
:10026000A4F10104DFDC484631462A464346BDE896
:10027000F09FD2B201E000F8012B491EFBD270477B
:100280000022F6E710B513460A4604461946FFF762
:10029000F0FF204610BD202A04DB203A00FA02F1CC
:1002A000002070479140C2F1200320FA03F3194364
:1002B00090407047202A04DB203A21FA02F0002106
:1002C000704721FA02F3D040C2F120029140084366
:1002D00019467047064C074D06E0E06840F0010300
:1002E00094E8070098471034AC42F6D3FFF778FF44
:1002F00088500008A850000810B5846AE16D11F01C
:10030000500F06D0E16DC90630D5204600F0D3FB72
:1003100010BDE06D40F40070E065206801680907D9
:1003200012D502F073FFE8B12068C068800419D4C8
:10033000E06D20F48070E065E06DC00412D4E06DE3
:1003400040F00100E0650DE0C06880070AD4E06D70
:1003500020F48070E065E06DC00403D4E06D40F0EF
:100360000100E065204600F093FB10BD616D496B14
:10037000BDE81040084710B5806AC16D41F04001EA
:10038000C165016E41F00401016600F094FB10BDEF
:1003900010B5806A00F08EFB10BD0000F8B5044671
:1003A00000200090206802F025FF78BB206881685B
:1003B000284A114209D0E06D40F01000E065206E3F
:1003C00040F0010020660120F8BD8168214E7F3E8B
:1003D0003140491C81602048806800F0E0700002D4
:1003E00010D51E481E490068B0FBF1F0401C00EB20
:1003F00040008000009002E00098401E00900098AD
:100400000028F9D101F0D0F805461CE020E002F008
:10041000F1FE20B9206881683140491C816001F0FB
:10042000C3F8401B02280ED920680068C043C007EB
:1004300009D0E06D40F01000E065206E40F0010052
:1004400020660120F8BD20680168C943C907DED1D4
:100450000020F8BD3F000080000300504000002055
:10046000400D0300FEE70000014800F011BE00004F
:1004700094090020014800F00BBE0000F4090020A0
:10048000014800F005BE0000040D0020014800F006
:10049000FFBD0000C40D0020014800F0F9BD0000C0
:1004A000240E0020014800F0F3BD00001C0B0020CA
:1004B000014800F0EDBD00007C0B0020014800F079
:1004C000E7BD0000640D00200D4902688A4201D298
:1004D0000C4901E00B492031D2B2083A1423B2FB97
:1004E000F3F2436C23F0030319448164054980311E
:1004F000C16402F01F0201219140016570470000B4
:1005000008040240000802400179074A491E02EB34
:1005100081024265044A4032826501F01F020121D6
:100520009140C165704700000009024030B5D0E934
:1005300013546C60446D002C02D0D0E916546C60EA
:1005400090F8444004F01F050124AC40056C6C6039
:10055000046863608368102B04D0036899600068A6
:10056000C26030BD03689A600068C16030BD7047EA
:1005700072B6FEE72DE9F0479CB004460D464FF0F9
:10058000000994F8580001280DD0012084F8580083
:1005900000261896199620684FF0A0482D4F404528
:1005A00005D1019704E002201CB0BDE8F087019658
:1005B000019840B1019802F025FE8246206802F0C1
:1005C00021FE40B10AE0E06D40F02000E06584F8D3
:1005D00058600120E8E7BAF1000F09D0E06D40F063
:1005E0002000E0654FF0010984F858604846DBE7D9
:1005F0001948296840F61F72D1B1816894F83830E3
:1006000021F4604141EA43316B6819438160D8F8B5
:100610000810C1F30001BB68C3F300031943E3D121
:10062000AB68296819438368934319438160DBE70A
:10063000816821F460418160D8F80810C1F300019D
:10064000BB68C3F300031943CED181689143816035
:10065000CAE7000000010050000300502DE9F84FE8
:1006600004460D46002600270097DFF8F49394F81F
:100670005800012811D04FF0010884F858802068F4
:1006800002F0BCFD58B1E06D40F02000E0650126AD
:1006900084F858703046BDE8F88F0220FBE7A9883F
:1006A00020682A6801F4407300EB9310036B01F09B
:1006B0001F014FF01F0C0CFA01FCC2F3846223EA05
:1006C0000C038A4013430363206802F097FD8246BF
:1006D000206802F08BFD5AEA000A3CD1AA68B2F108
:1006E000004F39D02968206802F098FD20684169E0
:1006F00021F00041416120686A69C168C1F3C1010C
:1007000049008A402969042934D02B6800EB810014
:10071000016EDFF850C303F0F84301EA0C01134304
:10072000194341F00041016620682A69A96900EB7C
:100730008200026E22F080720A430266297F2068DE
:100740002A69012913D0002100EB8200026E22F0F9
:1007500000720A4302667CE029680022206802F0E9
:100760005DFD2068416941F000414161C3E74FF000
:100770000071E9E7002102F033FD40036ED0002153
:10078000206802F02DFD90FAA0F0B0FA80F1286800
:1007900042036AD090FAA0F0B0FA80F0814204D10E
:1007A00000221146206802F048FD0121206802F075
:1007B00017FD40035CD00121206802F011FD90FA82
:1007C000A0F0B0FA80F12868420358D090FAA0F067
:1007D000B0FA80F0814204D100220121206802F0A9
:1007E0002CFD0221206802F0FBFC40034AD00221CC
:1007F000206802F0F5FC90FAA0F0B0FA80F12868C9
:10080000420346D090FAA0F0B0FA80F0814204D1C1
:1008100000220221206802F010FD0321206802F06E
:10082000DFFC400338D00321206802F0D9FC90FAA5
:10083000A0F0B0FA80F12868420334D090FAA0F01A
:10084000B0FA80F0814204D100220321206802F036
:10085000F4FC206802F0CEFC40B3B0E00021206838
:1008600002F0BEFCC0F3846191E7C0F3846095E7B9
:100870000121206802F0B4FCC0F38461A3E7C0F357
:100880008460A7E70221206802F0AAFCC0F384611B
:10089000B5E7C0F38460B9E70321206802F0A0FC4B
:1008A000C0F38461C7E7C0F38460CBE720682A7B8C
:1008B000296850F8B03FC1F3120C23EA0C0302F090
:1008C000180C694A22FA0CF20A4013430360E868E4
:1008D000484574D12868410319D090FAA0F1B1FAC3
:1008E00081F1491C01F01F01092931D84103002978
:1008F00010D090FAA0F1B1FA81F101F1010101F0FB
:100900001F0108FA01F808D1C0F3846109E0C0F3BF
:100910008461E6E7C0F38461EFE790FAA0F1B1FAF1
:1009200081F101F1010101F01F0148EA816102D169
:10093000C0F3846003E090FAA0F0B0FA80F000F118
:10094000010000F01F0000EB400041EA005132E0DE
:100950004FEA403100290DD090FAA0F1B1FA81F1AF
:1009600001F1010101F01F0108FA01F805D1C0F3FE
:10097000846106E0C0F38461F2E790FAA0F1B1FA75
:1009800081F101F1010101F01F0148EA816102D109
:10099000C0F3846003E090FAA0F0B0FA80F000F1B8
:1009A000010000F01F00A0F10A0000EB400041EA46
:1009B000005040F00071AA68206802F02FFC2B481C
:1009C000296801423FF464AE294A906800F0E07063
:1009D000284B994202D0284B99421FD103021DD4C3
:1009E0002168B1F1A04F7FF453AE40F4000091684C
:1009F00021F0E07101439160204821490068B0FB7B
:100A0000F1F0401C00EB40008000009002E00098F4
:100A1000401E009000980028F9D139E6194D1A4B74
:100A2000A9420CD1C5010AD421689942F5D040F001
:100A30008070916821F0E0710143916028E6134DC8
:100A4000A942EAD14102E8D421689942E5D040F4B4
:100A50008000916821F0E0710143916018E6000088
:100A600000007F4000F0FF03FFFF07000000088048
:100A700000030050000021C31000C090400000207F
:100A8000400D0300000052C700010050000084CB5D
:100A900000680649B0F1A04F05D0054A904201D147
:100AA0000120487070470020087070470400002043
:100AB0000001005070477047F8B504460025002635
:100AC0000096002C02D0E06D10B107E00120F8BDC7
:100AD000204600F0F1F8266684F8586020688168A6
:100AE000C1F3407119B181686C4A1140816020687E
:100AF0008168C1F30071A1B98168694A114041F070
:100B000080518160674868490068B0FBF1F0401C83
:100B10004000009002E00098401E009000980028DD
:100B2000F9D120688168C1F3007141B9E16D41F0EC
:100B30001001E165216E41F001012166012502F0FD
:100B40005DFBE16DC90600D430B1E06D40F01000EE
:100B5000E06501252846F8BDE06D20F4807040F086
:100B60000200E065206802F045FB88B94FF0A04024
:100B70008068C0F300004D498968C1F30001084353
:100B800006D160684A498A6822F47C1202438A606E
:100B9000E168E06B627F0843A16841EA42310843A3
:100BA00094F8241040EA0140012903D1218D491E07
:100BB00040EA4140E16A29B101F47871226B0143B6
:100BC00042EA01002168CA683A4B1A400243CA60EF
:100BD00020680169626B21F0406111430161206866
:100BE00002F004FB80BB207F94F83810800340EAB9
:100BF00041012068C26844F202039A430A43C2607A
:100C0000206968B12068016941F480310161206880
:100C100050F8C01F22696FF30D01114301600AE013
:100C20002068016921F480310161206850F8C01FFB
:100C30006FF30D01016094F84000012813D0206883
:100C4000016921F001010161606901281CD020685F
:100C5000016B21F00F010163E06D20F0020040F014
:100C60000100E06576E7D4E911100143D4E91302ED
:100C7000104301432068026940F2FC739A43114318
:100C800041F001010161DFE72068016B226A21F078
:100C90000F01521E11430163DEE70000C0FFFF5F3A
:100CA000C0FFFF7F40000020400D03000001005006
:100CB000000300500740F0FF2DE9F04397B00446D1
:100CC000142112A8FFF7DCFA442101A8FFF7D8FA93
:100CD0004FF40041206800268A03DFF8188180273E
:100CE000454D4FF00309B0F1A04F12D0434B98424D
:100CF0004CD10191109201A800F0B8FE08B1FFF7A5
:100D000037FCD8F80000401CC8F80000012840D08B
:100D100047E00191109201A800F0A8FE08B1FFF78A
:100D200027FCD8F80000401CC8F80000012807D1B3
:100D3000E86C40F40050E864E86C00F40050009067
:100D4000E86C40F00100E864E86C00F001000090FD
:100D500001201290CDF84C90149612A94FF09040BB
:100D600000F044FB274D2648286005206860AE60EF
:100D7000EE602F616E61AE61EE612E62284600F07A
:100D8000EDF908B1FFF7F4FB6565AC6217B0BDE89B
:100D9000F083E86C40F40050E864E86C00F4005024
:100DA0000090E86C40F00200E864E86C00F002009B
:100DB00000904FF400601290CDF84C90149612A958
:100DC000114800F013FB0E480E4D143060352860BA
:100DD00024206860AE60EE602F616E61AE61EE61EE
:100DE0002E62284600F0BAF908B1FFF7C1FB65652D
:100DF000AC62CBE728000020001002400001005048
:100E00000800024094090020000400482DE9F04148
:100E100004460E4617463548806800F01F052068D6
:100E200002F0ECF910B10220BDE8F08194F858000E
:100E300001280CD0012084F858004FF0000845B17B
:100E4000052D06D0092D04D084F85880ECE7022047
:100E5000EAE72046FFF7A2FA10B184F85880E3E7EA
:100E6000E06D40F60161884340F48070E065204900
:100E70002068884202D14FF0A04200E00246824240
:100E800000D01DB9E06D20F48010E065E06DC00475
:100E900004D5206E20F00600206601E0C4F86080D2
:100EA000616D1448C862616D13480863616D134831
:100EB000486321681C20086084F8588020684168D5
:100EC00041F0100141602068C16841F00101C1603A
:100ED00021683B4640313246606D00F09FF9216841
:100EE0008A68074B1A40121D8A609DE70003005074
:100EF00000010050F9020008910300087703000880
:100F0000C0FFFF7F10B5002190F825200123022AA1
:100F100003D00421C163012122E00268146824F097
:100F20000E041460826C146824F4807414600268E7
:100F3000146824F00104146090F84420046C02F05A
:100F40001F0203FA02F26260D0E913426260426D4E
:100F500032B1146824F480741460D0E916426260DF
:100F60002430437000220270084610BD70B5002482
:100F700090F8251000230122022906D004212430F4
:100F8000816142700370012429E001680D6825F039
:100F90000E050D6001680D6825F001050D60816C7E
:100FA0000D6825F480750D6090F84410154601F029
:100FB0001F018A40016C4A60D0E913215160416DE4
:100FC00031B10A6822F480720A60D0E916215160BA
:100FD00080F8255080F82430816B01B18847204685
:100FE00070BD000070B50446002C12D02068016866
:100FF00021F001010160224A2068142190420AD2A6
:10100000204A0244B2FBF1F1890061641E49216467
:101010000BE0012070BD1A4A52420244B2FBF1F1CA
:10102000890061641649083921640025056094F837
:10103000440000F01F0101208840216C48602046D8
:10104000FFF742FAA06C0560D4E9131048606068AD
:10105000401E032807D82046FFF756FA606D05604A
:10106000D4E916104860243425636563A563A56040
:10107000E56025616561A56165702570002070BD22
:1010800008040240F8FFFDBF00000240C06B70473B
:10109000F0B4016C0A6801680B6890F844400426BB
:1010A00004F01F0406FA04F5154215D05D0713D5A8
:1010B0000A68920603D40A6822F004020A6090F8D3
:1010C000441001F01F0106FA01F5016C4D60016B3F
:1010D000002941D0F0BC08474FF0020C0CFA04F68E
:1010E00016424FF000074FF0010519D09E0717D5A3
:1010F0000A68920605D40A6822F00A020A6080F89B
:10110000255090F8441001F01F010CFA01F6016C13
:101110004E6080F82470C16A00291DD0F0BC0847D9
:101120000826A640164217D01A0715D50A6822F0DD
:101130000E020A6090F84410026C01F01F0105FADB
:1011400001F15160C56380F8255080F82470416B2F
:10115000002901D0F0BC0847F0BC704770B50446C8
:10116000002C0DD02A4A2068142190420AD2294A24
:101170000244B2FBF1F189006164274921640BE06C
:10118000012070BD224A52420244B2FBF1F18900B3
:1011900061641F4908392164022184F8251002681E
:1011A00047F6F0718A43D4E902131943D4E90435B0
:1011B0002B431943A3691943E3691943236A19436C
:1011C000114301602046FFF77FF9A0680025B0F5C4
:1011D000804F00D16560A16C20790860D4E91310BC
:1011E00048606068401E032808D82046FFF78CF945
:1011F000606D0560D4E91610486002E06565A5657C
:10120000E5652434A561012060702570002070BD63
:1012100008040240F8FFFDBF0000024070B504461C
:10122000002594F8240001280CD0012084F8240023
:1012300094F825600020012E06D084F824000225B1
:10124000284670BD022070BD022684F82560E06348
:101250002068066826F0010606602046FFF766F95A
:10126000206B28B12068016841F00E01016009E09F
:101270002068016821F0040101602068016841F0E4
:101280000A010160A06C0168C90303D5016841F43B
:1012900080710160606D18B1016841F48071016076
:1012A0002068016841F001010160C9E770B504469A
:1012B00000F07AF90546601C02D0044840680444F6
:1012C00000F072F9401BA042FAD370BD3400002038
:1012D0002DE9F04F0022DFF8F8804FF0010C0F27C6
:1012E00071E00CFA02F4A1460C40002C6AD022F006
:1012F000030303EB0805AB6896074FEA167A07FA73
:101300000AF606EA030BB0F1904F04D0314B984235
:1013100003D1012316E0002314E02F4B984201D1A2
:1013200002230FE02D4B984201D103230AE02C4BFE
:10133000984201D1042305E02A4B984201D10523AC
:1013400000E0062303FA0AF35B4520D1DFF898A0FA
:10135000DAF80030A343CAF800300AF1040ADAF8D8
:101360000030A343CAF80030DFF87CA00AF10C0A71
:10137000DAF80030A343CAF80030AAF1040ADAF818
:101380000030A343CAF80030AB68B343AB600468D5
:1013900055000323AB401C430460D40800EB8404D5
:1013A000266A55074FEAD56A07FA0AF5AE43266260
:1013B000C4689C43C460446824EA090444608468A7
:1013C0009C438460521C31FA02F38AD1BDE8F08F4D
:1013D000000001400004004800080048000C0048DC
:1013E0000010004800140048000401402DE9F84FA7
:1013F0000022DFF888914FF0010803274FF00F0C0F
:1014000009F1040AA9F1040BB1E008FA02F52B4036
:10141000002B72D00C7904F00304012C01D0022CB3
:1014200015D18668540007FA04FE26EA0E06D1F8A4
:101430000CE00EFA04FE4EEA060EC0F808E044681E
:10144000AC430D79C5F300159540254345600C79F3
:10145000E443A40708D0C568540007FA04F6B5436E
:101460008E68A6402E43C6600C7904F00304022C5B
:1014700011D1D40800EB8406356A5407E40E0CFA47
:1014800004FE25EA0E05D1F810E00EFA04FE4EEA3D
:10149000050EC6F820E00568540007FA04F6B543C7
:1014A0000E7906F00306A6402E4306604C6814F43D
:1014B000403F5BD0324C256E45F001052566246E19
:1014C00004F0010400942F4C22F003052E19B56896
:1014D00094074FEA147E0CFA0EF4A543B0F1904F36
:1014E00004D0294CA04203D1012417E0002415E0C8
:1014F000264CA04202D1022410E037E0244CA04246
:1015000001D103240AE0234CA04201D1042405E0C8
:10151000214CA04201D1052400E0062404FA0EF477
:101520002C43B460D9F800409C434D68ED0200D5CF
:101530001C43C9F80040DAF800409C434D68AD02F6
:1015400000D51C43CAF80040DBF800409C434D68BE
:10155000AD0300D51C43CBF80040084D083D2C6876
:101560009C434E68F60300D51C432C60521C0B684C
:1015700033FA02F47FF449AFBDE8F88F0804014064
:10158000001002400000014000040048000800482C
:10159000000C00480010004800140048002A01D048
:1015A0008161704781627047014880687047000020
:1015B0003400002090F84120202A01D002207047FA
:1015C00090F84020012A20D0012280F840202422D7
:1015D00080F841200268136823F001031360026859
:1015E000136823F480531360026813680B4313607D
:1015F00001680A6842F001020A60202180F8411067
:10160000002180F84010002070470220704790F8B9
:101610004120202A01D00220704790F84020012A62
:101620001ED0012280F84020242280F84120026848
:10163000136823F0010313600268136823F47063D6
:1016400043EA0121116001680A6842F001020A6060
:10165000202180F84110002180F8401000207047C0
:101660000220704770B50446002C04D094F8410065
:10167000002510B106E0012070BD84F840502046DE
:1016800000F056F8242084F841002068016821F019
:10169000010101606068216820F0706008612068C5
:1016A000816821F400418160E068012831D0A068A0
:1016B000216840F404408860E06802282FD0206848
:1016C000416821F40061416020684168174A114374
:1016D00041602068C16821F40041C160D4E904017F
:1016E0000843A16940EA01202168C860D4E90701E4
:1016F0000843216808602068016841F00101016029
:101700006564202084F84100256384F8425000205D
:1017100070BDA068216840F400408860CCE7206874
:10172000416841F400614160CEE7000000800002A2
:1017300070B598B00446142113A8FEF7A1FD44210A
:1017400002A8FEF79DFD1F492068884238D1861502
:10175000029600250A9502A800F088F908B1FEF764
:1017600007FF194CE06C40F00100E064E06C00F011
:1017700001000190E06C40F00400E064E06C00F0D7
:1017800004000190139612261496159516950220C2
:10179000179013A9B006FFF729FEE01413901496D2
:1017A000159516950820179013A90848FFF71EFEF7
:1017B000A06D40F08040A065A06D00F080400190D9
:1017C00018B070BD007800400010024000080048CA
:1017D00070B50446002C11D021684CF6CC4008604E
:1017E000216845F255500860D4E90010486021682E
:1017F000A0688860FFF7D8FE05460CE0012070BDA8
:10180000FFF7D2FE401B312805D92068C068400789
:1018100001D0032070BD2068C0684007F0D1206867
:101820000269E1688A4201D0016102E04AF6AA2118
:101830000160002070BD00684AF6AA210160002006
:101840007047000002488168426811448160704717
:101850003400002010B50024032000F087F80F208A
:1018600000F008F808B1012401E000F029F8204652
:1018700010BD000070B5054600240F4E70680028AA
:1018800017D04FF47A71B1FBF0F00C490968B1FB45
:10189000F0F001F094F808B101240BE0102D06D20D
:1018A00000222946501E00F041F8356002E0012474
:1018B00000E00124204670BD3400002040000020DC
:1018C00082B00A48016E41F001010166016E01F02B
:1018D00001010191816D41F080518165806D00F0C1
:1018E0008050019002B000F0B9B800000010024032
:1018F00000280DDB00F01F0201219140400980000B
:1019000000F1E020C0F88011BFF34F8FBFF36F8F5D
:101910007047002809DB00F01F02012191404009B7
:10192000800000F1E020C0F800117047F0B40D46CF
:101930000D4B1B68C3F30223C3F10704042C00D929
:101940000424191D072901D2002300E0DB1E012613
:1019500006FA04F1491E294099409E40761E164021
:101960003143F0BC02F02ABF0CED00E000F00701AB
:10197000054A10684FF6FF03184040EA012003496A
:1019800008431060704700000CED00E00000FA050D
:101990002F49304B0A6832214A432F4900280AD088
:1019A000B0F5007F2DD0086820F4C06040F480605E
:1019B0000860002070470868C0F34120022805D065
:1019C00051F8800F20F480700860F2E7D1F88000B1
:1019D00020F48070C1F88000086820F4C06040F4F2
:1019E00000700860B2FBF3F0401C00E0401E4A6942
:1019F000520501D50028F9D148694005D9D5032001
:101A000070470868C0F34120022805D051F8800FC4
:101A100040F480700860CCE7D1F8800040F480701A
:101A2000C1F88000086820F4C06040F400700860CD
:101A3000B2FBF3F0401C00E0401E4A69520501D59C
:101A40000028F9D148694005B3D50320704700004C
:101A50004000002040420F000070004002488168B2
:101A600041F4804181607047007000402DE9F84FDB
:101A70000446002600272068A04D000366D54FF0DD
:101A80000008A86DC00009D4A86D40F08050A8657A
:101A9000A86D00F0805000904FF00108DFF860A2C0
:101AA000DAF8000040F48070CAF80000FFF77CFD0F
:101AB000814607E0FFF778FDA0EB0900022801D975
:101AC000032603E0DAF80000C005F3D526B1374657
:101AD000B8F1010F36D039E0D5F8900000F440702D
:101AE00080B1216C81420DD055F8900F20F44070E8
:101AF000296841F480312960296821F48031296006
:101B000045F89009C00711D0FFF74EFD814641F21C
:101B1000883A07E0FFF748FDA0EB0900504501D9DE
:101B2000032603E0D5F890008007F3D50EB13746C1
:101B3000CEE7D5F89000216C20F440700843C5F83A
:101B40009000C5E7A86D20F08050A8652078C007F8
:101B500007D0D5F88800616820F003000843C5F875
:101B600088002078800707D5D5F88800A16820F084
:101B70000C000843C5F888002078400707D5D5F841
:101B80008800E16820F030000843C5F8880020781C
:101B9000000707D5D5F88800216920F0C000084368
:101BA000C5F888002078800607D5D5F888006169D7
:101BB00020F440600843C5F888002078400607D527
:101BC000D5F88800A16920F440500843C5F8880082
:101BD0002078000607D5D5F88800E16920F4404058
:101BE0000843C5F888002088C00507D5D5F88800C7
:101BF000216A20F440300843C5F888002088800519
:101C000007D5D5F88800616A20F440200843C5F85C
:101C10008800208840050FD5D5F88800A16A20F4F7
:101C200040100843C5F88800A06AB0F5801F03D1B2
:101C3000E86840F48010E860208800050FD5D5F8EA
:101C40008800E16A20F440000843C5F88800E06A93
:101C5000B0F5800F03D1E86840F48010E860208878
:101C6000C0040FD5D5F88800216B20F040700843E0
:101C7000C5F88800206BB0F1807F03D1E86840F49C
:101C80008010E86020884FF0006180040ED5D5F800
:101C90008800626B20F040601043C5F88800606BDC
:101CA000884203D1E86840F48010E860208840044E
:101CB0000ED5D5F88800A26B20F040601043C5F81F
:101CC0008800A06B884203D1E86840F48010E86087
:101CD000208800040FD5D5F88800E16B20F0405033
:101CE0000843C5F88800E06BB0F1805F03D1E86875
:101CF00040F48030E8603846BDE8F88F00100240BC
:101D0000007000402DE9F04704460D460027002CE6
:101D100017D0DFF8A091D9F8000000F00F00A8421A
:101D200011D2D9F8000020F00F002843C9F80000B4
:101D3000D9F8000000F00F00A84204D00120BDE84F
:101D4000F0870120FBE720785B4EC00741F2883A1C
:101D50004ED06068DFF86481032806D002281ED0C8
:101D60003068400520D40120E9E73068800101D4C3
:101D70000120E4E701F0D2FC404520D9B06810F022
:101D8000F00F04D02078800719D5A068B8B9B068E2
:101D900020F0F00040F08000B06080270FE0306855
:101DA000800301D40120CAE700F0BAF8404506D903
:101DB000B06820F0F00040F08000B0608027B0688C
:101DC000616820F003000843B060FFF7EDFB804638
:101DD00007E0FFF7E9FBA0EB0800504501D903201D
:101DE000ADE7B068616800F00C00B0EB810FF0D196
:101DF0002068810715D5400703D5B06840F4E0603E
:101E0000B0602078000705D5B06820F4605040F439
:101E1000E060B060B068A16820F0F0000843B060F6
:101E200005E0802F03D1B06820F0F000B060D9F851
:101E3000000000F00F00A84217D9D9F8000020F0E8
:101E40000F002843C9F80000FFF7AEFB074606E085
:101E5000FFF7AAFBC01B504501D903206FE7D9F853
:101E6000000000F00F00A842F2D12078400705D50D
:101E7000B068E16820F4E0600843B06020780007B3
:101E800006D5B068216920F4605040EAC100B06016
:101E900000F046F8B1680A4AC1F30311515C01F041
:101EA0001F01C8400749086007480068BDE8F047BF
:101EB000FFF7E0BC002002400010024000B4C40460
:101EC0006E500008400000203400002001480068E7
:101ED000704700004000002000B5FFF7F7FF0549FC
:101EE0008968054AC1F30221515C01F01F01C84015
:101EF00000BD0000001002407E50000800B5FFF752
:101F0000E5FF05498968054AC1F3C221515C01F02A
:101F10001F01C84000BD0000001002407E500008B4
:101F200010B51A4A9068C0F38101194801290BD0F5
:101F300091684410C1F38101022906D09168C1F370
:101F40008101032903D0002010BD204610BDD168B7
:101F500001F00303D168C1F30311491C032B0DD019
:101F6000B0FBF1F0D168C1F306214843D168C1F359
:101F70004161491C4900B0FBF1F010BDB4FBF1F028
:101F8000D168C1F306214843F0E700000010024089
:101F90000024F4002DE9F8430446002C0CD02078EE
:101FA000FE4DC00752D0A86800F00C00E96801F0AF
:101FB00003010C2803D004E00120BDE8F8830329C5
:101FC00016D0082814D06068B0F5803F17D0B0F55F
:101FD000A02F19D0286820F480302860286820F4C9
:101FE00080202860606818B3FFF7DEFA06461BE021
:101FF000286880032AD5606840BB0120DDE7286897
:1020000040F480302860EDE7286840F480202860A4
:10201000286840F480302860E4E7FFF7C5FA801BA9
:10202000642801D90320C8E728688003F5D50DE0AE
:10203000FFF7BAFA064606E0FFF7B6FA801B6428F7
:1020400001D90320B9E728688003F5D420788007F8
:102050004ED5A86800F00C00E96801F003010C28D7
:1020600001D102290BD0042809D0E06870B3286898
:1020700040F480702860FFF797FA06461BE0286856
:10208000400501D5E06868B16868217C20F0FE4019
:1020900040EA01606860C2480068FFF7EBFB38B3B4
:1020A00001208AE7012088E7FFF77EFA801B0228DB
:1020B00001D9032081E728684005F5D56868217CAF
:1020C00020F0FE4040EA0160686011E0286820F4DA
:1020D00080702860FFF768FA064606E0FFF764FAAA
:1020E000801B022801D9032067E728684005F5D442
:1020F000207800072CD56069A8B1D5F8940040F08D
:102100000100C5F89400FFF74FFA064606E0FFF716
:102110004BFA801B022801D903204EE7D5F8940022
:102120008007F4D514E0D5F8940020F00100C5F83C
:102130009400FFF739FA064606E0FFF735FA801BF0
:10214000022801D9032038E7D5F894008007F4D499
:10215000207840076FD54FF00008A86DC00009D463
:10216000A86D40F08050A865A86D00F080500090E8
:102170004FF001088B4E3068C00511D4306840F430
:1021800080703060FFF710FA074606E0FFF70CFAA0
:10219000C01B022801D903200FE73068C005F5D520
:1021A000A068012813D0052818D055F8900F20F00A
:1021B00001002860286820F0040045F89009A06814
:1021C00041F2883608B3FFF7EFF9074618E0D5F873
:1021D000900040F00100C5F89000F0E755F8900F2E
:1021E00040F004002860286840F0010045F890099C
:1021F000E5E7FFF7D9F9C01BB04201D90320DCE6BF
:10220000D5F890008007F4D50EE0FFF7CDF907462A
:1022100006E0FFF7C9F9C01BB04201D90320CCE6A4
:10222000D5F890008007F4D4B8F1010F03D1A86D60
:1022300020F08050A865207880062CD5A069A8B130
:10224000D5F8980040F00100C5F89800FFF7ACF908
:10225000064606E0FFF7A8F9801B022801D90320F3
:10226000ABE6D5F898008007F4D514E0D5F89800CF
:1022700020F00100C5F89800FFF796F9064606E041
:10228000FFF792F9801B022801D9032095E6D5F8C3
:1022900098008007F4D4E069F0B3A9684FF0FF37E5
:1022A000C1F3810103295ED0022807D0286820F0FD
:1022B00080702860FFF778F904464CE0286820F029
:1022C00080702860FFF770F9064606E0FFF76CF9AA
:1022D000801B022801D903206FE628688001F5D40D
:1022E00054F8201F6068228A401E41EA0010A1684D
:1022F00007EB5202090241EA42510843217D07EBF4
:10230000510140EA4160217B40EAC160E968264A08
:1023100011400843E86000E062E0286840F0807007
:102320002860E86840F08070E860FFF73DF90446F7
:1023300006E0FFF739F9001B022801D903203CE62B
:1023400028688001F5D54BE0FFF72EF9001B022825
:1023500001D9032031E628688001F5D4E8681349E3
:102360000840E8603CE0012838D0E868226A00F0C4
:102370000301914230D1616A00F0F002491EB2EBD4
:10238000011F29D1A26A00F4FE41B1EB022F23D133
:1023900000F0784194F82C200AE000000010024080
:1023A00034000020007000400C809F01FCFFEEFE16
:1023B000B1EBC26F10D1228E00F4C00107EB5202C4
:1023C000B1EB425F08D194F8341000F0C06007EB25
:1023D0005101B0EB416F03D00120EEE50120ECE5A7
:1023E0000020EAE510B50446002C10D0022084F845
:1023F0005D002068016821F040010160204600F086
:1024000001F900205C3460606070207010BD012014
:1024100010BD704738B50446206842688168C943DA
:102420004B060AD5CB0708D1D3435B0605D4E16C34
:1024300001B02046BDE8304008478B0708D4D3439D
:102440001B0605D4216D01B02046BDE83040084789
:102450008B0603D54B0601D5CB0551D4D3439B0640
:102460004ED44B060AD494F85D30032B49D0236E2A
:1024700043F004032366C368836800938B0609D482
:10248000236E43F00103236683680093036823F0FF
:1024900040030360C80506D4206E40F008002066A3
:1024A000206880680090206E002829D0206841684C
:1024B00021F0E0014160012084F85D00900701D423
:1024C000D00722D02068416821F003014160114DFE
:1024D000A06D40B18563A06DFEF748FD18B1206E78
:1024E00040F040002066606D002809D08563606D73
:1024F000FEF73CFD002803D0206E40F0400020662F
:1025000038BDC1688068009038BD2046FFF781FF64
:1025100038BD0000FD3B000870B50446002C09D012
:10252000606A002540B125616561A56294F85D008F
:1025300040B10CE0012070BD6068B0F5827FF4D03E
:10254000E561F2E784F85C50204600F07DF8022057
:1025500084F85D002068016821F040010160E168B5
:102560004FF4E062914201D9002001E04FF4805025
:10257000B1F5706F02D0914200D0A562A188228986
:1025800001F4827102F404421143227C02F002023F
:102590001143227D02F001021143228B02F40072EA
:1025A0001143227F02F03802114394F8202002F0F8
:1025B00080021143228D02F40052114322681160FF
:1025C000A169042202EA114194F8242000F4805009
:1025D00002F01002114394F8342002F00802114373
:1025E000A28902F4706211430143206841602068AF
:1025F000C16921F40061C1612566012084F85D0094
:10260000002070BD10B504460C492068884214D1E2
:102610000B48816D21F4804181654FF46041094888
:10262000FEF756FEA06DFEF7DDFC606DFEF7DAFCEE
:10263000BDE810402420FFF75BB910BD0038004012
:102640000010024000040048F0B587B00446142191
:1026500002A8FDF715FE2C492068884252D12B486C
:10266000816D41F480418165816D01F4804101916A
:10267000C16C41F00201C164C06C00F00200019025
:102680004FF460400290022003900026049603203D
:1026900005900520069002A91D48FEF7A7FE1E4DD5
:1026A0001C4828600C206860AE60EE6080272F61B7
:1026B0006E61AE61EE612E622846FEF74FFD08B1F5
:1026C000FDF756FFA565AC62134D144860352860D0
:1026D0000D2068601020A860EE602F616E61AE6111
:1026E000EE612E622846FEF739FD08B1FDF740FF86
:1026F0006565AC62002211462420FFF717F92420FB
:10270000FFF707F907B0F0BD0038004000100240A5
:10271000000400486C0002401C0B0020080402402A
:102720002DE9FF5F04460E9E93461F460125FEF7E6
:102730003BFF804694F85D00616801280AD0B1F53E
:10274000827F03D1A16809B9042803D0022004B014
:10275000BDE8F09F019890B3BBF1000F30D0380076
:102760002ED094F85C0001282CD04FF0010A84F898
:102770005CA094F85D00042802D0052084F85D0078
:102780004FF00009C4F86090C4F840B0A4F8467057
:10279000A4F844700198A063E787A787C4F84C9019
:1027A000C4F85090E0684FF4E061884201D8012FEE
:1027B0000AD92068426822F48052426009E0FFE7AB
:1027C0000120C4E70220C2E72068426842F4805238
:1027D000426020680268520603D4026842F0400258
:1027E0000260E068884249D9606808B1012F3DD194
:1027F000A06B21680088C860A06B801CA063E08F7C
:10280000401EE08732E02068816889070DD5E18F9E
:1028100059B1012D09D1A16B0988C160A06B801C41
:10282000A063E08F401EE087002520688168C9070B
:102830000ED0B4F8461059B1C068216C0880206CE5
:10284000801C2064B4F84600401EA4F84600012510
:10285000FEF7AAFEA0EB0800B04207D3701C05D01B
:1028600084F85DA084F85C90032070E7E08F002876
:10287000C9D1B4F846000028C5D176E0606808B137
:10288000012F6BD1E08F01280AD9A06B2168008845
:10289000C860A06B801CA063E08F801EE0875DE0B5
:1028A000A06B216800780873A06B401CA063E08FC8
:1028B000401EE08752E02068816889071AD5E18FC1
:1028C000C1B1012D16D1E18F012909D9A16B098868
:1028D000C160A06B801CA063E08F801EE08708E0D1
:1028E000A16B09780173A06B401CA063E08F401EB0
:1028F000E087002520688168C90726D0B4F8461013
:1029000019B3B4F84610012913D9C06854F8401F10
:1029100008802068801C2060E088801EE080E088BD
:10292000403C012810D82068416841F48051416042
:102930000AE0007B216C0870206C401C2064B4F815
:102940004600401EA4F846000125FEF72DFEA0EB30
:102950000800B04201D3701C13D196B1E08F00285B
:10296000A9D1B4F846000028A5D1424631462046F8
:1029700001F04DF958B12020206684F85C900120C8
:10298000E5E684F85DA084F85C900320DFE684F837
:102990005DA084F85C90206E08B10120D7E600208D
:1029A000D5E64FF0E021042804D0086920F00400A7
:1029B00008617047086940F004000861704710B56D
:1029C000401EB0F1807F01D3012010BD4FF0E02404
:1029D00060610F21601701F0F1FE0020A061072067
:1029E0002061002010BD90F88410012918D0012129
:1029F00080F884102421C0F8881001680A680B68E8
:102A000023F001030B6022F00051002242660368AC
:102A100019602021C0F8881080F8842000207047B9
:102A2000022070477047704770B5044694F88400E0
:102A300001281DD0012084F884002420C4F88800D7
:102A400020680568026822F001020260206882683E
:102A500022F060620A438260204601F01DFA20687D
:102A600005602020C4F88800002084F8840070BD30
:102A7000022070BD70B5044694F8840001281DD072
:102A8000012084F884002420C4F8880020680568A8
:102A9000026822F0010202602068826822F060422F
:102AA0000A438260204601F0F7F920680560202083
:102AB000C4F88800002084F8840070BD022070BD36
:102AC0007047704770B50446206850E8001F21F435
:102AD000907140E80012002AF6D1254A206808309B
:102AE00050E8001F114040E80013002BF6D1E06EC3
:102AF000012808D1206850E8001F21F0100140E8AB
:102B00000012002AF6D1206880684FF000054006C8
:102B100018D52068083050E8001F21F0400140E837
:102B20000012002AF5D1D4F8800058B18563D4F89A
:102B30008000FEF7E7F928B1D4F88000FEF7A6FA86
:102B400020280FD0A4F85E5021680F20086220686A
:102B5000816941F0080181612020C4F88C00E5669C
:102B6000002070BD1020C4F89000032070BD00004C
:102B7000FEFFFFEF704700002DE9F0410446236897
:102B8000D86919689A6840F60F0500EA0507002F12
:102B90000ED185060CD501F0200502F08056354394
:102BA00006D0616F00297DD02046BDE8F04108477E
:102BB00000260225002F76D0B54FDFF8D8C2174087
:102BC00001EA0C0C57EA0C0C6DD05FEAC07C0CD00B
:102BD0005FEAC15C09D54FF0010CC3F820C0D4F8FE
:102BE000903043F00103C4F89030830709D5D30730
:102BF00007D023681D62D4F8903043F00403C4F872
:102C0000903043070AD5D30708D0256804232B62E8
:102C1000D4F8903043F00203C4F8903003070CD589
:102C200001F020033B4308D0256808232B62D4F829
:102C3000903043F00803C4F8903003050BD54B01E6
:102C400009D525684FF400632B62D4F8903043F027
:102C50002003C4F89030D4F89030002B3CD080068C
:102C600009D501F0200002F08051084303D0616FC4
:102C700009B120468847D4F8900021688968490640
:102C800002D410F0280F2DD0204601F065FA2068FC
:102C90008068400622D52068083050E8001F21F0E7
:102CA000400101E018E023E040E80012002AF2D1E0
:102CB000D4F8800068B178498163D4F88000FEF7C9
:102CC00055F9002808D0D4F88000816BBDE8F041A8
:102CD00008472046FFF74EFFBDE8F0812046FFF78A
:102CE00049FFF9E72046FFF745FFC4F89060F3E796
:102CF000E76E012F7DD1C7067BD5CF0679D5102091
:102D00001862206880684FF02003400655D5D4F83B
:102D100080100A68506880B2F0B3B4F85C708742E3
:102D20003FD9A4F85E000868006880062CD42068AB
:102D300050E8001F21F4807140E80012002AF6D10B
:102D40002068083050E8001F21F0010140E800121F
:102D5000002AF5D12068083050E8001F21F040011A
:102D600040E80012002AF5D1C4F88C30E6662068ED
:102D700050E8001F21F0100140E80012002AF6D1AF
:102D8000D4F88000FEF7BEF82567B4F85C00B4F80C
:102D90005E10401A81B200E003E02046FFF742FED9
:102DA0009AE7B4F85C10814296D11068800693D5FA
:102DB00025672046FFF736FE8EE734F85C0F618802
:102DC000401A81B260885C3C002885D0002983D0FD
:102DD000206850E8002F22F4907240E80027002F6E
:102DE000F6D12B4FFF432068083050E8002F3A40BF
:102DF00000E016E040E8002CBCF1000FF3D1C4F86D
:102E00008C30E6666667206850E8002F22F01002DA
:102E100040E80023002BF6D125672046FFF702FE8D
:102E20005AE7C50209D5550207D54FF4801018623C
:102E30002046BDE8F041FFF744BE03060CD501F083
:102E4000800302F40002134306D0A16F0029A7D02B
:102E50002046BDE8F0410847420606D54A0604D59B
:102E60002046BDE8F04101F0A1B9020206D54A00B2
:102E700004D52046BDE8F041FFF722BEC0018FD542
:102E800000298DDA2046BDE8F041FFF7CCBD0000F7
:102E900001000010200100045340000810B5044652
:102EA000002C03D0D4F8880010B107E0012010BD39
:102EB000002084F88400204600F028F82420C4F87C
:102EC00088002068016821F001010160A06A10B14A
:102ED000204601F005F8204601F092F9012813D0B0
:102EE0002068416821F4904141602068816821F0A8
:102EF0002A0181602068016841F0010101602046DB
:102F0000BDE8104001F050B8012010BD2DE9F04F90
:102F100097B00446142112A8FDF7B2F9442101A884
:102F2000FDF7AEF964492068644E002580274FF014
:102F300007094FF0100A4FF0180B4FF002088842B3
:102F40005CD101200190029501A8FEF78FFD08B128
:102F5000FDF70EFB306E40F480403066306E00F4BA
:102F600080400090F06C40F00100F064F06C00F0E4
:102F7000010000904FF4C0601290CDF84C80149581
:102F80001595CDF8589012A94FF09040FEF72EFA03
:102F90004C4E4B48306019207060C6F808A0F560B0
:102FA00037617561B561F56135623046FEF7D6F877
:102FB00008B1FDF7DDFAE667B462424E424860367A
:102FC0003060C6F804B0B560F56037617561B56111
:102FD000F56135623046FEF7C1F808B1FDF7C8FA71
:102FE000C4F88060B462002211462520FEF79EFCE2
:102FF0002520FEF78EFC17B0BDE8F08F33498842DC
:10300000F9D1CDF80480039501A8FEF72FFD08B192
:10301000FDF7AEFAB06D40F40030B065B06D00F46D
:1030200000300090F06C40F00200F064F06C00F0B2
:1030300002000090CDF848B0CDF84C80149515955D
:10304000CDF8589012A92248FEF7D0F91C481D4E21
:103050001430C03630601A207060B560F56037619A
:103060007561B561F56135623046FEF777F808B1F4
:10307000FDF77EFAC4F88060B4621148154E28301E
:1030800030601B207060C6F808A0F560376175617C
:10309000B561F56135623046FEF760F808B1FDF7BD
:1030A00067FAE667B462002211462620FEF73EFC6E
:1030B0002620FEF72EFC9EE700380140001002405B
:1030C00030000240040D00201C0402400044004077
:1030D00000040048240E002030B4D0F88C30202B9F
:1030E00002D0022030BC7047A9B1A2B10023C36650
:1030F0000A4C0368A3420BD05B681B0208D5036827
:1031000053E8004F44F0806443E80045002DF6D1B9
:1031100030BC01F0DFB90120E4E70000008000408E
:10312000704770472DE9F84304460E4615461F4682
:10313000D4F88800202802D00220BDE8F8838EB1A0
:1031400085B100201834A06721202067FEF72CFAF3
:103150008146A587E58754F8100C183CB0F5805FD0
:1031600002D003E00120E8E7206920B135460026BF
:103170004FF0200817E00025FAE74B460022802197
:103180002046009701F0F8F918B1C4F888800320B0
:10319000D3E7C5B1216815F8010B8862B4F8560071
:1031A000401EA4F85600B4F856000028E5D14B465E
:1031B000002240212046009701F0DEF950B1C4F80A
:1031C00088800320B9E736F8020B2168C0F30800B5
:1031D0008862E3E7C4F888800020AEE77047FEE726
:1031E00000EB8100006E00F0F84070478068C0F38B
:1031F000C00070478068C0F3000070478068C0F36B
:10320000800070478068C0F380007047C06810F489
:10321000406F01D0002070470120704710B501F0C9
:10322000007300EBD3504369C1F3045107248C4071
:10323000A3438A401343436110BD00EB8100016E3C
:1032400021F00041114301667047000030B58BB09A
:103250000024089409940A9420216846FDF710F888
:103260001D484FF0A04101604FF44031416084603F
:10327000C4600461446104258561047701214177BC
:10328000016280F82440C462046380F83810C4638B
:1032900080F84040FDF710FC08B1FDF769F908948B
:1032A00008A90D48FDF766F908B1FDF761F90B486B
:1032B000009006200190072002907F200390049543
:1032C000059469460448FDF7C9F9002801D0FDF7C7
:1032D0004FF90BB030BD0000BC08002002003004E4
:1032E00030B589B0202101A8FCF7CAFF1A48194956
:1032F00001604FF440314160102181600024C460BE
:1033000004614461042585610477012141770162EC
:1033100080F82440C462046380F83810C46380F8E5
:103320004040FDF7C9FB08B1FDF722F90B480190B9
:103330000620029003947F2004900595069401A92D
:103340000548FDF78BF9002801D0FDF711F909B008
:1033500030BD000000010050280900200040C03AA4
:1033600008B52D48816C41F004018164816C01F045
:1033700004010091816C41F001018164816C01F0D4
:1033800001010091816C41F002018164806C00F0C8
:1033900002000090002211460B20FEF7C7FA0B2016
:1033A000FEF7B7FA002211460C20FEF7BFFA0C20F8
:1033B000FEF7AFFA002211460D20FEF7B7FA0D20F6
:1033C000FEF7A7FA002211460E20FEF7AFFA0E20F4
:1033D000FEF79FFA002211460F20FEF7A7FA0F20F2
:1033E000FEF797FA002211461020FEF79FFA1020F0
:1033F000FEF78FFA002211463820FEF797FA3820A0
:10340000FEF787FA002211463920FEF78FFABDE851
:1034100008403920FEF77DBA001002402DE9F04344
:1034200087B0142102A8FCF72BFF4D48C16C41F076
:103430000401C164C16C01F004010191C16C41F04F
:103440002001C164C16C01F020010191C16C41F007
:103450000101C164C16C01F001010191C16C41F035
:103460000201C164C06C00F0020001903D4F0022D7
:1034700040F2DF713846FEF791F84FF09048002295
:1034800048F2FE014046FEF789F8DFF8DC900022A2
:1034900040F227414846FEF781F8012214032146F5
:1034A0004846FEF77BF8012221464046FEF776F8B3
:1034B0004FF44040029000240394049402A938463B
:1034C000FDF794FF40F2DF3002900125039504944C
:1034D0000326059602A93846FDF788FFFE200290D4
:1034E00003950494059602A94046FDF77FFF41F23B
:1034F0000740029003950494059602A94846FDF7FB
:1035000075FFE80202900394049502A94046FDF776
:103510006DFFF813029003950494059402A94046A8
:10352000FDF764FFA802029003950494059402A994
:103530003846FDF75BFF2020029003950494059424
:1035400002A94846FDF752FF80200290039404949C
:1035500002A94846FDF74AFF07B0BDE8F083000026
:1035600000100240000800480004004810B513484D
:103570001149016012494160002181600122C2604D
:10358000016141618161C1610162FEF76BF808B1BF
:10359000FCF7EEFF00210948FEF70CF808B1FCF734
:1035A000E7FF00210548FEF732F8002803D0BDE808
:1035B0001040FCF7DDBF10BD00780040540A002029
:1035C000C285B24010B50A48084901600021416037
:1035D00040F6FF71C1608160FEF7FAF8002803D061
:1035E000BDE81040FCF7C4BF10BD00000030004033
:1035F000A80A002010B51248104901604FF48271EA
:103600004160002181604FF4E062C260016141616C
:103610004FF4007282610822C261016241628162DC
:103620000722C26201634163FEF776FF002803D0E0
:10363000BDE81040FCF79CBF10BD00000038004002
:10364000B80A002010B51848164901604FF46121EE
:10365000416000218160C16001610C224261816191
:10366000C161016241628162FFF718FC08B1FCF799
:103670007FFF00210C48FFF7FDF908B1FCF778FF48
:1036800000210948FFF7D0F908B1FCF771FF06489F
:10369000FFF7A9F9002803D0BDE81040FCF768BF88
:1036A00010BD000000380140DC0B002010B51848A8
:1036B000164901604FF4E131416000218160C16031
:1036C00001610C2242618161C161016241628162DA
:1036D000FFF7E4FB08B1FCF74BFF00210C48FFF7B4
:1036E000C9F908B1FCF744FF00210948FFF79CF92C
:1036F00008B1FCF73DFF0648FFF775F9002803D035
:10370000BDE81040FCF734BF10BD0000004400408D
:10371000700C0020FEE7FEE7704700001049C86803
:1037200000F00302C868C0F30310401C032A0ED047
:103730000C4AB2FBF0F0CA68C2F306225043C968D3
:10374000C1F34161491C4900B0FBF1F07047064AE2
:10375000B2FBF0F0CA68C2F306225043EFE7000064
:10376000001002400024F40000127A002DE9F0411C
:103770000D4600F047F80446204F4FF480560022D3
:1037800031463846FDF70AFF2146112000F0E8F9DE
:1037900004463CB1012231463846FDF7FFFE204683
:1037A000BDE8F081164C04E0FF2000F0C7F9FE28C8
:1037B00002D0641E601CF7D1CCB100244FF4007815
:1037C000FF2000F0BBF92855641C4445F8DBFF20BE
:1037D00000F0B4F9FF2000F0B1F90122314638467B
:1037E000FDF7DCFEFF2000F0A9F90020D8E7012258
:1037F00031463846FDF7D2FEFF20D1E700040048ED
:10380000A086010002490978002900D140027047D2
:103810002C000020F0B585B0364E4FF480550022C4
:1038200029463046FDF7BAFE0021092000F098F93C
:1038300004463CB1012229463046FDF7AFFE204642
:1038400005B0F0BD2C4C04E0FF2000F077F9FE2815
:1038500002D0641E601CF7D1002C44D0002401AFBC
:10386000FF2000F06BF93855641C102CF8DBFF20AA
:1038700000F064F9FF2000F061F90122294630468A
:10388000FDF78CFEFF2000F059F99DF8090000F0CB
:103890000F049DF80A009DF80B108007000D40EA08
:1038A00081009DF80C1040EA91139DF80D009DF8E1
:1038B0000E108007400F40EAD112012101FA04F0F6
:1038C000921C91405B1C4B4343430C49580A48608F
:1038D00000220A70009040F2DD12094909A000F0B0
:1038E0005DFF0020ACE7012229463046FDF756FE79
:1038F000FF20A5E700040048A08601002C0000205E
:10390000035000085B25733A25645D2053445343FC
:103910002063617061636974793A20256C75206257
:10392000797465732028256C7520626C6F636B73E6
:10393000290D0A0070B54FF47A7001F0E1F900F03A
:10394000EFF800F0B9F80346012B06D040F2FD1263
:103950001E491FA000F022FF30E000F071F830B1E6
:1039600040F20522194921A000F018FF26E0FFF7D8
:1039700051FF30B140F20D22144922A000F00EFF99
:103980001CE0264E4FF48055002229463046FDF7B4
:1039900005FEE910102000F0E3F804460122294654
:1039A0003046FDF7FBFDFF2000F0C8F854B1234678
:1039B00040F2192205491AA000F0F0FE00F0A2F82A
:1039C000012070BD00F09EF8002070BD135000086B
:1039D0005B25733A25645D20434D44302066616960
:1039E0006C65643A20253032580D0A005B25733A25
:1039F00025645D2041434D443431206661696C6526
:103A0000640D0A005B25733A25645D20434D4439FB
:103A1000206661696C65640D0A00000000040048BE
:103A20005B25733A25645D20434D44313620666141
:103A3000696C65643A20253032580D0A0000000098
:103A40002DE9F04164241B4F4FF48056002231468B
:103A50003846FDF7A3FD0021372000F081F8054628
:103A6000012231463846FDF799FDFF2000F066F847
:103A7000012D02D92846BDE8F081002231463846A2
:103A8000FDF78CFD0021292000F06AF8054601228F
:103A900031463846FDF782FDFF2000F04FF835B182
:103AA0000A20FDF703FC641ED0D1FF20E3E70020CD
:103AB000E1E700000004004870B50122104D160334
:103AC00031462846FDF76AFD0024FF2000F036F855
:103AD000641C0A2CF9DB002231462846FDF75EFD06
:103AE0000021084600F03CF80446012231462846F1
:103AF000FDF754FDFF2000F021F8204670BD0000C6
:103B00000004004810B50548FEF76CFC034910207E
:103B1000C861BDE810400846FEF7FEBCB80A0020A8
:103B200010B50548FEF75EFC03493020C861BDE8CA
:103B300010400846FEF7F0BCB80A002001B582B07C
:103B4000FF2001904FF0FF300090012301AA02A94D
:103B50000248FEF7E5FD9DF804000EBDB80A0020FE
:103B600070B506460C46002E29D0082E29D0FF2518
:103B700000224FF480511448FDF710FD46F040003C
:103B8000FFF7DCFF200EFFF7D9FFC4F30740FFF774
:103B9000D5FFC4F30720FFF7D1FFE0B2FFF7CEFF58
:103BA0002846FFF7CBFF00244FF6FF75FF20FFF7F5
:103BB000C5FFFF2802D1641CAC42F7D370BD952528
:103BC000D6E78725D4E700000004004810B5074C6D
:103BD00004E0FF20FFF7B2FFFF2804D0641E601C42
:103BE000F7D1012010BD002010BD000020A107006A
:103BF0000148FEF70FBC0000B80A002010B5806A2B
:103C00000021A0F84610C187FEF703FC10BDF8B5EF
:103C100004460E461546334600224FF4C051204656
:103C2000009500F027F828B1206E40F020002066B3
:103C30000320F8BD3346002280212046009500F085
:103C400089F828B1206E40F0200020660320F8BDDE
:103C5000334600224FF4C0612046009500F00AF878
:103C600028B1206E40F0200020660320F8BD00201F
:103C7000F8BD00002DE9FC5F04460C9D0E4617467A
:103C800098464FF0000BCDF800B0FDF78DFC401BBF
:103C9000A8EB0005FDF788FC8146D4F800A00AF1E6
:103CA0000C0A2B480068C0EBC00000EB8000000D40
:103CB0006843019044E0B6F5C06F05D127B99AF882
:103CC000000000909DF80000B8F1FF3F38D0FDF7EC
:103CD0006BFCA0EB0900A84203D215B1019858B3C0
:103CE0002BE02068416821F0E00141606068B0F598
:103CF000827F0BD1A068B0F5004F02D0B0F5806F85
:103D000004D12068016821F040010160A06AB0F58B
:103D1000005F09D12068016821F40051016020682A
:103D2000016841F400510160012084F85D0084F8CD
:103D30005CB00320BDE8FC9F00250198401E019067
:103D4000206880683040B842B5D10020F2E700001A
:103D5000400000202DE9F84304460F4691461E46D8
:103D6000089DFDF721FC401B351AFDF71DFC804620
:103D700026480068C0F3CB30684300903AE0701CDE
:103D800038D0FDF711FCA0EB0800A84203D215B112
:103D9000009858B32BE02068416821F0E0014160B1
:103DA0006068B0F5827F0BD1A068B0F5004F02D0FB
:103DB000B0F5806F04D12068016821F040010160F6
:103DC000A06AB0F5005F09D12068016821F40051B4
:103DD00001602068016841F40051016001205C34F9
:103DE0006070002020700320BDE8F8830025009853
:103DF000401E00902068806837EA000004D0002050
:103E00004845BCD10020EFE70120F9E74000002041
:103E10007047FDF717BD00B593B0382105A8FCF732
:103E20002FFA14216846FCF72BFA0020FDF7B0FDAD
:103E30000A2005904FF480700890402009900120DE
:103E40000A9002200C900D9004210E9155210F91A3
:103E500010901190129005A8FEF79CF808B1FCF79D
:103E600087FB0F2000900320019000200290039018
:103E7000049004216846FDF745FF002801D0FCF7B7
:103E800077FB13B000BD00000248016841F47001E7
:103E90000160704788ED00E030B5416E002917D011
:103EA00002689168C1F342619268520F0B4B9C5CAF
:103EB000E50003F10804A25CB5FBF2F2A0F86A2069
:103EC0005A5C615CD200B2FBF1F1A0F8681030BD21
:103ED000012168304180018030BD00005E50000843
:103EE00090F82810090706D501684A68836B22F408
:103EF00000421A434A6090F82810C90706D00168AA
:103F00004A68C36A22F400321A434A6090F82810C3
:103F1000890706D501684A68036B22F480321A4388
:103F20004A6090F82810490706D501684A68436B33
:103F300022F480221A434A6090F82810C90606D558
:103F400001688A68C36B22F480521A438A6090F831
:103F50002810890606D501688A68036C22F400528D
:103F60001A438A6090F82810490611D501684A68FA
:103F7000436C22F480121A434A60416CB1F5801FF1
:103F800006D101684A68836C22F4C0021A434A6071
:103F900090F82810090606D501684A68C06C22F41A
:103FA000002202434A6070472DE9F8430446002589
:103FB000C4F89050FDF7F8FA8046206800684FF08A
:103FC000200600076FF07E4716D5434600223104D5
:103FD0002046009700F0D0FA70B1206850E8001F2A
:103FE00021F0800140E80012002AF6D18434666096
:103FF00025700320BDE8F88320680068400720D5BD
:10400000434600224FF480012046009700F0B4FAA6
:10401000B8B1206850E8001F21F4907140E8001208
:10402000002AF6D12068083050E8001F21F0010175
:1040300040E80012002AF5D18434A66025700320E0
:10404000D8E76C34E661266225606560257600203D
:10405000D0E710B5806A0021A0F85E10FEF78AFD57
:1040600010BD70B5846AD4F88800D4F88C502168EB
:1040700089684FF00006090606D5212804D1A4F866
:104080005660204600F0A4F820688068400606D5F7
:10409000222D04D1A4F85E60204600F05DF8D4F82B
:1040A000900040F01000C4F890002046FEF762FD3A
:1040B00070BD10B50146886A096809684FF00003B1
:1040C00089062DD4A0F85E30016851E8002F22F453
:1040D000807241E80024002CF6D10168083151E8D3
:1040E000002F22F0010241E80024002CF5D10168E4
:1040F000083151E8002F22F0400241E80024002C52
:10410000F5D12021C0F88C10C16E012908D10168B9
:1041100051E8002F22F0100241E80024002CF6D1D3
:104120000367C16E012902D0FEF7FAFF10BDB0F897
:104130005C10FEF777FC10BD10B5806A01210167A5
:10414000C16E012902D0FEF7ECFF10BDB0F85C1083
:104150004908FEF767FC10BD10B5016851E8002F53
:1041600022F4907241E80023002BF6D10E4B016837
:10417000083151E8002F1A4041E80024002CF6D104
:10418000C16E012908D1016851E8002F22F0100208
:1041900041E80023002BF6D12021C0F88C1000212B
:1041A000C166416710BD0000FEFFFFEF10B501685A
:1041B00051E8002F22F0400241E80023002BF6D105
:1041C0002021C0F8881000218167FFF707F810BD93
:1041D000016851E8002F22F0C00241E80023002BC3
:1041E000F6D10168083151E8002F22F4000241E8BD
:1041F0000023002BF5D12021C0F888107047000063
:104200002DE9F04104460025A74B20682269A168EA
:10421000E66911436269324311430268A34E32409A
:104220000A43026020684168E26821F4405111436A
:104230004160A0692168994201D0226A10438A68CE
:104240009B4E324002438A602068C16A626A21F054
:104250000F011143C1629749226897488A4214D1DD
:10426000D0F8880010F0030007D0012809D00228F8
:1042700005D0032807D010216AE0012168E002215F
:1042800066E0042164E0082162E08C498A4214D18E
:10429000D0F8880010F00C0007D0042809D00828B6
:1042A00005D00C2807D0102152E0002150E0022157
:1042B0004EE004214CE008214AE081498A4214D1B1
:1042C000D0F8880010F0300007D0102809D020283E
:1042D00005D0302807D010213AE0002138E0022133
:1042E00036E0042134E0082132E076498A4214D1D4
:1042F000D0F8880010F0C00007D0402809D08028EE
:1043000005D0C02807D0102122E0002120E00221A2
:104310001EE004211CE008211AE09A4217D1D0F8CF
:10432000880010F440600AD0B0F5806F0BD0B0F573
:10433000006F06D0B0F5406F07D0102108E00021D3
:1043400006E0022104E0042102E0082100E010213F
:104350005D485E4E00274FF4004C9A4239D1B9B106
:10436000022905D0042916D0082917D000200125DC
:1043700060B3616A36F81120B0FBF2F1666806EBB3
:1043800046038B4202D8B1EB063F09D9012582E0F2
:10439000FDF7A2FDECE7FDF7C3FDE9E76046E7E7BF
:1043A00000231946FBF734FF090241EA10610202BB
:1043B00070081018794132460023FBF729FF444A60
:1043C000A0F54071914202D82168C86063E00125E0
:1043D00061E0E2694FF6EF78624530D1092911D2E8
:1043E000DFE801F0050812100B1010100E00FDF7A9
:1043F00073FD09E0FDF782FD06E0FDF791FD03E0A6
:10440000604601E000200125F0B3616A36F8111022
:10441000B0FBF1F04100606801EB5001B1FBF0F03E
:10442000A0F11001414508D84FF6F0710140C0F3EA
:10443000420001432068C1602DE001252BE00929DD
:1044400011D2DFE801F0050812100B1010100E0059
:10445000FDF742FD09E0FDF751FD06E0FDF760FDC7
:1044600003E0604601E00020012568B1616A36F88A
:104470001110B0FBF1F1606801EB5001B1FBF0F0FD
:10448000A0F11001414500E005E003D8216880B2A9
:10449000C86000E001250120683460802080E7606A
:1044A00027612846BDE8F08100800040F369FFCF16
:1044B000FFF4FF11003801400010024000440040AA
:1044C00000480040004C00400024F4004650000822
:1044D000FFFC0F0070B5044644F8581FA28000216D
:1044E000A16322206063A06A583C00281DD01F4BA6
:1044F000C362241D1E48E36F1863E36F1D485863B1
:10450000E06F8163606D54F8041CE56F134602464A
:104510002431241F2846FCF781FE30B110208C3452
:10452000606020202060012070BD206940B12068BB
:1045300050E8001F41F4807140E80012002AF6D1D3
:104540002068083050E8001F41F0010140E80012E7
:10455000002AF5D12068083050E8001F41F04001E2
:1045600040E80012002AF5D1002070BDB3400008D9
:1045700039410008634000082DE9F0470446089ED1
:104580000D46174698464FF0000935E0701C33D0B1
:10459000FDF70AF8A0EB0800B04219D8C6B12068B0
:1045A0000168490728D5802D26D0402D24D0C16927
:1045B000C94309070ED42068082505622046FFF785
:1045C000CBFDC4F8905084F884900120BDE8F087BA
:1045D0000320FBE7C069C04300050DD421684FF4F8
:1045E000006008622046FFF7B7FD2020C4F8900065
:1045F00084F884900320E9E72068C06935EA000068
:1046000004D00020B842C1D00020DFE70120F9E744
:1046100010B50348FEF7B0FABDE8104000F0A0BCAA
:10462000DC0B002010B50348FEF7A6FABDE81040E9
:1046300000F0BABC700C0020FEE700002DE9F0414C
:104640000D46FFF7DFF80446FFF76AFADFF8D4807B
:104650004FF48057002239464046FCF79FFF214621
:104660001820FFF77DFA044684B1234640F2471232
:104670002D492EA000F092F8012239464046FCF761
:104680008DFFFFF73FFA2046BDE8F081FF20FFF7DE
:1046900055FAFE20FFF752FA00244FF40076285D09
:1046A000FFF74CFA641CB442F9DBFF20FFF746FA2F
:1046B000FF20FFF743FAFF20FFF740FA044604F01B
:1046C0001F0005280FD0012239464046FCF766FF3F
:1046D00023464FF4AF7214491CA000F05FF8FFF7B7
:1046E00011FA2046D0E7FFF771FA70B1012239467E
:1046F0004046FCF753FF4FF4B4720B491FA000F083
:104700004DF8FFF7FFF9FF20BEE70122394640468A
:10471000FCF744FFFF20FFF711FAFFF7F3F9002041
:10472000B2E7000000040048F04F00085B25733A30
:1047300025645D20534420434D4432342066616932
:104740006C65643A20253032580D0A005B25733AB7
:1047500025645D2053442064617461207265737028
:104760006F6E736520746F6B656E206572726F7209
:104770003A203078253032580D0A00005B25733A14
:1047800025645D20534420777269746520627573D7
:10479000792074696D656F75740D0A000FB4054B4F
:1047A00010B503A9044A029800F028F810BC5DF87F
:1047B00014FB0000394D0008440000200907090ED1
:1047C000002804DB00F1E02080F80014704700F0BE
:1047D0000F0000F1E02080F8141D704702E008C8C7
:1047E000121F08C1002AFAD170477047002001E06B
:1047F00001C1121F002AFBD1704700002DE9FF4FB5
:104800008DB00F460546002606E025280BD0DDE9D1
:104810000F1290476D1C761C28780028F5D111B036
:104820003046BDE8F08F0024A246A1460122EC49A3
:1048300000E0044315F8013F203B02FA03F0084270
:10484000F7D128782A2810D06FF02F022878A0F10D
:104850003001092914D80AEB8A0102EB410144F026
:10486000020400EB010A6D1CF0E701CF5FEA000AC9
:1048700003D544F40054CAF1000A44F002046D1C4C
:1048800028782E2817D115F8010F44F004042A289F
:104890000ED06FF02F022878A0F1300109290AD834
:1048A00009EB890102EB410100EB01096D1CF2E704
:1048B00057F8049B6D1C28786C280FD006DC4C2818
:1048C00017D068280DD06A2814D104E0742810D0BD
:1048D0007A280FD10DE044F400140AE044F4801467
:1048E00001E044F440146978814202D104F5801457
:1048F0006D1C6D1C2A786E2A1FD00CDC632A31D007
:1049000004DC002A8BD0582A11D1A3E0642A68D095
:10491000692A0CD165E0732A2ED004DC6F2A73D08B
:10492000702A04D19BE0752A6FD0782A6ED0104689
:10493000DDE90F129047761C50E1C4F302500228C3
:1049400006D0032809D0042801CF09D0066045E12C
:1049500001CFF117C0E9006140E101CF06803DE1E0
:1049600006703BE117F8040B8DF8000000208DF86D
:104970000100EB46012003E057F804BB4FF0FF3085
:1049800061074FF0000102D40DE008F101018846F3
:1049900049450FDA8045F8DB1BF808100029F4D1EF
:1049A00008E008F1010188468142FADB1BF8081093
:1049B0000029F6D1DDE90F23AAEB08008146214644
:1049C00000F036F9304400EB080604E0DDE90F1290
:1049D0001BF8010B9047B8F10108F7D22146484671
:1049E000F7E00A21C4F302534FF0000B0891022BA9
:1049F00004D001CFC117032B09D00AE0FF1D27F017
:104A00000707F7E8020108E032E01FE020E000B20B
:104A1000C117042B01D140B2C117031E71F100036D
:104A200007DA4FF0000CD0EB0C006CEB01012D23EA
:104A300002E0230504D52B238DF82430012303E065
:104A4000E30701D02023F7E7984658E00A2110E059
:104A500010210EE010204FF0000B08900CE0102108
:104A60004FF0000B44F004044FF00809089103E0F4
:104A700008214FF0000B0891C4F30253022B04D01D
:104A800001CF0021032B06D006E0FF1D27F007070A
:104A9000F7E8020103E080B2042B00D1C0B24FF06E
:104AA000000823072BD5702A07D0DDF820C08CF032
:104AB000100C5CEA0B0C05D00EE040238DF824307E
:104AC000012308E050EA010306D030238DF824309A
:104AD0008DF8252002239846DDF820C08CF0080CC4
:104AE0005CEA0B0C0BD150EA010301D1630706D538
:104AF00030238DF824304FF00108A9F10109582A1C
:104B000004D038A20B9208AA0A920BE03AA2F9E765
:104B10005B46089AFBF77CFB0B9B9B5C0A9A521E38
:104B20000A92137050EA0102F2D10A98ADEB00002C
:104B300000F1200B600702D524F4803401E04FF02F
:104B40000109D94502DDA9EB0B0000E0002000EBD4
:104B50000B0141440890AAEB010AE00306D4DDE909
:104B60000F232146504600F063F806444FF0000939
:104B700008E009A911F80900DDE90F12904709F1D1
:104B80000109761CC145F4DBE0030CD5DDE90F23F8
:104B90002146504600F04CF8064404E0DDE90F12CF
:104BA00030209047761C0899481E08900029F5DCB3
:104BB00008E00A980A990078491C0A91DDE90F1269
:104BC0009047761CBBF10001ABF1010BF1DC2146F3
:104BD0005046DDE90F2300F019F806446D1C1BE672
:104BE00009280100303132333435363738396162C3
:104BF0006364656600000000303132333435363787
:104C00003839414243444546000000002DE9F04157
:104C1000044600251E461746880404D405E039469C
:104C20002020B0476D1C641EF9D52846BDE8F081F0
:104C30002DE9F041044600251E469046C80301D5E3
:104C4000302700E02027880404D505E04146384697
:104C5000B0476D1C641EF9D52846BDE8F081000000
:104C600010B5012291020848FCF798FC0122D103FB
:104C70004FF09040FCF792FC0122BDE8104020214B
:104C80000248FCF78BBC0000000800480004004804
:104C900030B50A4B00210A4C08460022C50702D055
:104CA00083EA500000E04008521C082AF6DB44F872
:104CB0002100491CFF29EFD930BD00002083B8ED49
:104CC0004800002030B54FF0FF330022064C07E0CB
:104CD000855C5D40EDB254F8255085EA1323521CE3
:104CE0008A42F5D3D84330BD4800002010B50420D7
:104CF000FDF757FE0149AA20886010BD040000207E
:104D000070B500214FF0E0256C690A4A9268504363
:104D1000AB69AA699A42FCD003D2A3EB02031944FF
:104D200003E0A4EB02063344194413468142F0D356
:104D300070BD00000400002013B54FF0FF330122C6
:104D400069460248FEF7EEF900981CBDDC0B002016
:104D5000F8B500242F4E304D4FF4D4772E6068689C
:104D6000401C6860FCF720FCA860002022182B186B
:104D70001A74511C83F89810921C83F82021401C4F
:104D80007028F3D324484FF4CC711030FFF79AFF0A
:104D9000E86021492046FFF751FC48B101B02346A5
:104DA000BDE8F04040F262221C491DA0FFF7F6BCAE
:104DB00039461948FBF764FA2248FCF73CFD641CAD
:104DC000642CCBD339461448FBF75AFA00241E4F03
:104DD0001CE011492046FEF7C9FC48B101B023464A
:104DE000BDE8F04040F273220C4918A0FFF7D6BC92
:104DF0002868B04209D028680090234640F2792202
:104E000006491AA0FFF7CAFCF8BD641C7868844202
:104E1000DFD3F8BD474C4453841600202D500008C2
:104E20005B25733A25645D20577269746520626C56
:104E30006F636B20256C75206661696C65640D0A73
:104E400000000000A80A00202C0000205B25733A17
:104E500025645D205265616420626C6F636B202560
:104E60006C75206661696C65640D0A005B25733A98
:104E700025645D20426C6F636B20256C753A206958
:104E80006E76616C6964206D616769633A20307881
:104E90002530386C580D0A00FCF7DCFCFEF7BBFF30
:104EA000FEF7BCFAFEF75CFAFEF7D0F9FEF718FA47
:104EB000FEF75CFBFEF79EFBFEF7C4FBFEF7F6FB7E
:104EC000FEF780FBFFF712FFFFF7CAFEFFF7E0FED9
:104ED00000F020F80A220A490A48FBF797FF6422EB
:104EE00009490A48FBF792FFFEF724FD6420FCF70E
:104EF000DDF9FFF72DFF0648FCF79DFCFBE70000FE
:104F000090050020BC080020C804002028090020CB
:104F1000A80A002010B50F490868026842F0100284
:104F2000026008681024046240220B490948FEF719
:104F3000D3F80A490868026842F010020260086863
:104F4000046205494022BDE8104040310348FEF7A5
:104F5000C3B80000DC0B002048040020700C0020C7
:104F600010B50E490868C269D243D20615D4102282
:104F70000262D1F880000068406880B218B1C0F1C8
:104F80004000074908700548FDF79CFDBDE810404A
:104F9000402204490148FEF79FB810BDDC0B0020F9
:104FA000000000204804002010B50E490868C269BE
:104FB000D243D20615D410220262D1F880000068D4
:104FC000406880B218B1C0F14000074948700548F8
:104FD000FDF778FDBDE81040402204490148FEF786
:104FE0007BB810BD700C0020000000208804002059
:104FF00057726974655F53696E676C655F426C6F69
:10500000636B0053445F4765745F43617264496E2C
:10501000666F0053445F496E69745F5344534300A5
:10502000746573745F73645F63617264006C6F6F47
:105030006B5F666F725F757365645F626C6F636BE5
:105040005F7465737400010002000400060008002C
:105050000A000C0010002000400080000001010147
:105060000103070100000804020408010101000017
:105070000000000000000102030406070809000008
:105080000000010203040000A850000800000020F6
:1050900048000000DC470008F050000848000020ED
:1050A000E81B0000EC4700080000000000000000C2
:1050B000000000000000000003AA55039900000052
:1050C0000000803F00000000000000000000000021
:1050D000000000000000000000F03A001000000096
:1050E00001000000000000000024F40000000000A7
:04000005080001D915
:00000001FF
