:020000040800F2
:10000000700E0020ED010008093700084331000898
:1000100005370008F9020008AD41000800000000A3
:100020000000000000000000000000009F370008F2
:1000300025040008000000000D370008A137000863
:10004000070200080702000807020008070200086C
:10005000070200080702000807020008070200085C
:10006000070200080702000807020008FD02000856
:100070000D0300081D0300082D0300083D030008C0
:100080004D030008000000000702000807020008F6
:10009000070200080702000807020008070200081C
:1000A000070200080702000807020008070200080C
:1000B00007020008070200080702000807020008FC
:1000C00007020008070200080702000807020008EC
:1000D00079370008854100089941000807020008A7
:1000E00007020008070200080702000807020008CC
:1000F00007020008070200080702000800000000CD
:1001000000000000070200080000000007020008CD
:1001100007020008000000000702000807020008AC
:100120005D0300086D0300080702000807020008CD
:10013000070200080000000000000000070200089D
:10014000070200080702000800000000000000008D
:10015000000000000000000000000000000000009F
:10016000000000000000000000000000070200087E
:10017000070200080000000000000000000000006E
:10018000000000000702000800000000000000005E
:10019000000000000000000000000000000000005F
:1001A000000000000000000007020008070200082D
:1001B000070200080702000807020008000000000C
:1001C000000000000702000800000000000000001E
:1001D0000702000807020008DFF80CD000F07AF8E8
:1001E0000048004789420008700E002006488047FA
:1001F00006480047FEE7FEE7FEE7FEE7FEE7FEE70C
:10020000FEE7FEE7FEE7FEE715380008D901000823
:100210002DE9F05F0546002092469B46884606463B
:10022000814640241BE0284641464746224600F0CE
:1002300041F853465A46C01A914110D31146184608
:10024000224600F028F82D1A67EB01084F46224697
:100250000120002100F01FF817EB00094E41201E7D
:10026000A4F10104DFDC484631462A464346BDE896
:10027000F09FD2B201E000F8012B491EFBD270477B
:100280000022F6E710B513460A4604461946FFF762
:10029000F0FF204610BD202A04DB203A00FA02F1CC
:1002A000002070479140C2F1200320FA03F3194364
:1002B00090407047202A04DB203A21FA02F0002106
:1002C000704721FA02F3D040C2F120029140084366
:1002D00019467047064C074D06E0E06840F0010300
:1002E00094E8070098471034AC42F6D3FFF778FF44
:1002F000F84300081844000800BFFEE710B50248A4
:1003000000F020FE10BD00009005002010B502484E
:1003100000F018FE10BD0000F005002010B50248E6
:1003200000F010FE10BD0000F008002010B50248DB
:1003300000F008FE10BD0000B009002010B5024812
:1003400000F000FE10BD0000100A002010B50248A9
:1003500000F0F8FD10BD00000807002010B50248AD
:1003600000F0F0FD10BD00006807002010B5024845
:1003700000F0E8FD10BD00005009002030B50E4D22
:100380000468AC4201D20D4901E00C4920310B4612
:100390000478083C1425B4FBF5F2446CA40803EB84
:1003A00084048464054C8034C46402F01F05012475
:1003B000AC40046530BD0000080402400008024063
:1003C00001794A1E064B03EB82024265044A403221
:1003D00082654A1E02F01F0301229A40C2657047DF
:1003E0000009024030B5D0E913546C60446D14B17B
:1003F000D0E916546C6090F8444004F01F050124C5
:10040000AC40056C6C60046863608468102C04D197
:100410000468A2600468E16003E00468A160046805
:10042000E26030BD704772B600BFFEE72DE9F043D1
:100430009BB004460E464FF00008306800B100BF84
:1004400000BF94F85800012803D102201BB0BDE87A
:10045000F083012084F8580000BF00201790189006
:100460002068B0F1A04F02D13148009001E0002097
:100470000090009850B9E06D40F02000E06500BFAA
:10048000002084F8580000BF0120DFE7009802F048
:100490007CFE0746206802F078FED8BBD7BB254D0E
:1004A000306800B394F83800716841EA4030A968B8
:1004B00021F460410843A8604FF0A04002F056FECE
:1004C00081461B4802F052FE49EA0009B9F1000FCB
:1004D00027D1B16830680843A96840F61F7291437C
:1004E0000843A8601DE0A86820F46040A8604FF0B1
:1004F000A04002F03BFE81460D4802F037FE49EA7B
:100500000009B9F1000F0CD1A86840F61F718843AB
:10051000A86006E0FFE7E06D40F02000E0654FF0E6
:10052000010800BF002084F8580000BF40468DE756
:1005300000010050000300502DE9F84F05460C461D
:100540004FF0000A00200090FE49E068884200D089
:1005500000E000BF00BF95F85800012802D102203A
:10056000BDE8F88F012085F8580000BF286802F028
:1005700007FE00287DD12968D4E9002001F1300C64
:10058000C0F3012B0CEB8B03D3F800C000F01F0E5F
:100590004FF01F0B0BFA0EFB2CEA0B0C00F01F0B9D
:1005A000C2F3846E0EFA0BFE4CEA0E0CC3F800C0C8
:1005B00000BF286802F0E4FD8146286802F0CCFD07
:1005C0008046B9F1000F64D1B8F1000FFBD1A068EB
:1005D000B0F1004F0AD121680022286802F0DAFD4C
:1005E0004FF00041286802F0FAFD08E0A268216897
:1005F000286802F0CFFD0021286802F0F0FD606954
:100600002968C968C1F3C101490000FA01F72069EE
:1006100004283FD028682268216900F1600C0CEBA7
:100620008103D3F800C0DFF820B30CEA0B0C02F012
:10063000F84B4BF0004B4BEA070B4CEA0B0CC3F8A2
:1006400000C000BF2868A269216900F1600C0CEBB2
:100650008103D3F800C02CF0807C4CEA020CC3F874
:1006600000C000BF2868227F2169012A02D15206FA
:1006700001E0C6E10022134600F1600C0CEB8102A0
:10068000D2F800C02CF0007C4CEA030CC2F800C089
:1006900000BFA7E00021286802F055FDC0F312005A
:1006A00030B90021286802F04EFDC0F3846007E0F5
:1006B0000021286802F047FD90FAA0F0B0FA80F01F
:1006C0002168C1F3120119B92168C1F3846104E002
:1006D000216891FAA1F1B1FA81F1884204D1002296
:1006E0001146286802F070FD0121286802F02BFDF8
:1006F000C0F3120030B90121286802F024FDC0F3D4
:10070000846007E00121286802F01DFD90FAA0F046
:10071000B0FA80F02168C1F3120119B92168C1F360
:10072000846104E0216891FAA1F1B1FA81F1884273
:1007300004D100220121286802F046FD0221286828
:1007400002F001FDC0F3120030B90221286802F066
:10075000FAFCC0F3846007E00221286802F0F3FC91
:1007600090FAA0F0B0FA80F02168C1F3120119B933
:100770002168C1F3846104E0216891FAA1F1B1FA22
:1007800081F1884204D100220221286802F01CFD78
:100790000321286802F0D7FCC0F3120030B903210E
:1007A000286802F0D0FCC0F3846007E003212868C9
:1007B00002F0C9FC90FAA0F0B0FA80F02168C1F311
:1007C000120119B92168C1F3846104E0216891FA2A
:1007D000A1F1B1FA81F1884204D1002203212868F5
:1007E00002F0F2FC286802F0BCFC002872D12868F4
:1007F000E2682168D0F8B030C1F3120C23EA0C0390
:1008000002F0180BDFF844C12CFA0BFC0CEA010CC7
:1008100043EA0C03C0F8B03000BF4A49E0688842A0
:1008200058D12368C3F312031BB92368C3F384634D
:1008300004E0236893FAA3F3B3FA83F35B1C03F099
:100840001F03092B3ED82368C3F312031BB9236887
:10085000C3F3846304E0236893FAA3F3B3FA83F346
:100860005B1C03F01F034FF0010C0CFA03FC236820
:10087000C3F312031BB92368C3F3846304E0236842
:1008800093FAA3F3B3FA83F35B1C03F01F034CEA60
:10089000836C2368C3F312031BB92368C3F3846317
:1008A00004E0236893FAA3F3B3FA83F35B1C03F029
:1008B0001F0303EB43034FF0000B4BEA03534CEAD7
:1008C000030347E02368C3F3120323B92368C3F388
:1008D000846305E043E0236893FAA3F3B3FA83F358
:1008E0005B1C03F01F034FF0010C0CFA03FC2368A0
:1008F000C3F312031BB92368C3F3846304E02368C2
:1009000093FAA3F3B3FA83F35B1C03F01F034CEADF
:10091000836C2368C3F312031BB92368C3F3846396
:1009200004E0236893FAA3F3B3FA83F35B1C03F0A8
:100930001F030A3B03EB43034FF0007B4BEA0353D7
:1009400006E0000000007F4000F0FF03FFFF07000B
:100950004CEA03031946A268286802F01BFC2F49E1
:100960002068084050B300BF2D48806800F0E07652
:1009700000BF2C492068884203D02B492068884258
:100980001DD106F40000D0B92868B0F1A04F3ED1C7
:1009900046F40001224802F011FC24480068244972
:1009A000B0FBF1F0401C00EB40008000009002E042
:1009B0000098401E009000980028F9D127E01D49BA
:1009C000206888420CD106F0807048B91A4928681E
:1009D00088421CD046F08071114802F0EFFB16E00F
:1009E00016492068884212D106F4800078B912496D
:1009F000286888420BD046F48001094802F0DEFBEB
:100A000005E0E86D40F02000E8654FF0010A00BF06
:100A1000002085F8580000BF5046A1E5000008807E
:100A200000030050000021C31000C09034000020DB
:100A3000400D0300000052C700010050000084CBAD
:100A40002DE9F84304464FF000080020009014B947
:100A50000120BDE8F883606920B194F824000128E2
:100A600000D100BFE06D30B9204600F017F900203A
:100A7000206684F8580020688168C1F3407131B164
:100A8000206881687E4A1140816000BF00BF2068F5
:100A900002F071FBB0B9206881687A4A114041F0D8
:100AA0008051816000BF784800687849B0FBF1F060
:100AB000401C4000009002E00098401E009000980A
:100AC0000028F9D1206802F056FB48B9E06D40F0EB
:100AD0001000E065206E40F0010020664FF0010834
:100AE000206802F04DFB0646E06D00F01000002883
:100AF00077D1002EFCD1E06D20F4807040F0020030
:100B0000E065206802F02DFBB0B94FF0A04002F084
:100B100028FB81465E4802F024FB49EA0009B9F14E
:100B2000000F09D160685B49896821F47C11014399
:100B3000584A916000BF00BF607FE16B41EA4030DE
:100B4000E1680843A168084394F8241040EA01458D
:100B500094F82400012803D1208D401E45EA404529
:100B6000E06A28B1A08D00F47870216B084305433A
:100B70002068C0684849084028432168C860206848
:100B8000006920F04060616B0843216808612068BB
:100B900002F0E2FA0746002E50D1EFBB207F002181
:100BA00041EA803194F8380041EA40052068C06885
:100BB00044F20201884328432168C860206988B153
:100BC0002068006940F48030216808612068D0F80E
:100BD000C0006FF30D00216908432168C1F8C0000F
:100BE0000EE045E02068006920F48030216808614B
:100BF0002068D0F8C0006FF30D002168C1F8C00074
:100C000094F84000012813D1606C40F00101A06C01
:100C10000843E16C084300E010E0216D08432168BF
:100C2000096940F2FC72914308432168086105E0BC
:100C30002068006920F001002168086160690128CE
:100C400009D12068006B20F00F00216A491E08437B
:100C50002168086305E02068006B20F00F00216820
:100C60000863E06D20F0020040F00100E06505E05F
:100C7000E06D40F01000E0654FF001084046E8E606
:100C8000C0FFFF5FC0FFFF7F34000020400D030066
:100C900000010050000300500740F0FF10B598B06D
:100CA0000446142113A8FFF7EBFA442102A8FFF72A
:100CB000E7FA2068B0F1A04F54D14FF40040029001
:100CC0008003119002A800F023FE08B1FFF7ABFBF0
:100CD00051480068401C50490860084600680128D7
:100CE0000DD100BF4D48C06C40F400504B49C86462
:100CF0000846C06C00F40050019000BF00BF00BF68
:100D00004648C06C40F001004449C8640846C06CC5
:100D100000F00100019000BF00BF012013900320EC
:100D200014900020159013A94FF0904000F054FA51
:100D30003B483C49086005204860002139488160F3
:100D4000C16080210161002141618161C161016255
:100D500000F078F908B1FFF766FB00BF3148606525
:100D6000846257E030492068884253D1C001029024
:100D70008003119002A800F0CBFD08B1FFF753FBF0
:100D800025480068401C244908600846006801287E
:100D90000DD100BF2148C06C40F400501F49C86409
:100DA0000846C06C00F40050019000BF00BF00BFB7
:100DB0001A48C06C40F002001849C8640846C06C6C
:100DC00000F00200019000BF00BFC8141390032080
:100DD00014900020159013A9144800F0FDF9104854
:100DE00014301349086024204860002110488160B5
:100DF000C16080210161002141618161C1610162A5
:100E000000F020F908B1FFF70EFB00BF084860654D
:100E1000846200BF18B010BD240000200010024002
:100E20000800024090050020000100500004004826
:100E3000F00500200146002091F82520022A03D069
:100E40000422CA63012027E00A68126822F00E0219
:100E50000B681A608A6C126822F480728B6C1A60BC
:100E60000A68126822F001020B681A6091F84420A7
:100E700002F01F0301229A400B6C5A60D1E9133231
:100E80005A604A6D42B14A6D126822F480724B6D0D
:100E90001A60D1E916325A60012281F8252000BF7C
:100EA000002281F8242000BF704770B50446002559
:100EB00094F8250002280BD00420E063012084F878
:100EC000250000BF002084F8240000BF012534E085
:100ED0002068006820F00E00216808602068006823
:100EE00020F0010021680860A06C006820F4807088
:100EF000A16C086094F8440000F01F0101208840B4
:100F0000216C4860D4E913104860606D40B1606D99
:100F1000006820F48070616D0860D4E916104860A4
:100F2000012084F8250000BF002084F8240000BFC1
:100F3000A06B10B12046A16B8847284670BD0146C2
:100F4000C86B704770B50446206C05682068066859
:100F500094F8440000F01F01042088402840E0B1CC
:100F600006F00400C8B12068006800F0200028B92D
:100F70002068006820F004002168086094F84400AC
:100F800000F01F0104208840216C4860206B00287D
:100F900056D02046216B884752E094F8440000F078
:100FA0001F0102208840284018B306F0020000B359
:100FB0002068006800F0200040B92068006820F038
:100FC0000A0021680860012084F8250094F8440094
:100FD00000F01F0102208840216C486000BF002003
:100FE00084F8240000BFE06A50B32046E16A8847D5
:100FF00026E094F8440000F01F01082088402840B3
:10100000F0B106F00800D8B12068006820F00E00AA
:101010002168086094F8440000F01F010120884016
:10102000216C48600120E06384F8250000BF0020A7
:1010300084F8240000BF606B10B12046616B8847C4
:1010400070BD000070B504460CB9012070BD2F4979
:10105000206888420BD22E492068401A1421B0FB28
:10106000F1F0800060642A48083820640AE02749CB
:101070002068401A1421B0FBF1F08000606423481E
:1010800008382064022084F825002068056847F6A7
:10109000F0708543D4E9020108432169084361697E
:1010A0000843A1690843E1690843216A08430543ED
:1010B000206805602046FFF761F9A068B0F5804F11
:1010C00001D1002060602079A16C0860D4E9131080
:1010D0004860606860B16068042809D82046FFF75E
:1010E0006FF90020616D0860D4E91610486003E0D4
:1010F00000206065A065E0650020E063012084F8C1
:101100002500002084F8240000BF9FE70804024067
:10111000080002402DE9F04104460D4616461F46E0
:101120004FF0000800BF94F82400012802D10220EB
:10113000BDE8F081012084F8240000BF94F8250068
:1011400001283FD1022084F825000020E0632068B8
:10115000006820F00100216808603B4632462946BD
:101160002046FFF73FF9206B30B12068006840F05F
:101170000E00216808600BE02068006820F0040081
:10118000216808602068006840F00A002168086053
:10119000A06C006800F4803028B1A06C006840F4B6
:1011A0008070A16C0860606D28B1606D006840F4CB
:1011B0008070616D08602068006840F0010021685F
:1011C000086006E000BF002084F8240000BF4FF054
:1011D00002084046ACE7000078B502460B46002105
:1011E000CAE001268E401D6805EA0604002C73D073
:1011F0001D7905F00305012D04D01D7905F00305C7
:10120000022D13D190684E000325B540A8434E002F
:10121000DD68B54028439060506801258D40A843A3
:101220001D79C5F300158D40284350601D7905F0E8
:101230000305032D09D0D0684E000325B540A8430F
:101240004E009D68B5402843D0601D7905F0030528
:10125000022D13D1CE0802F1200555F826004D07C6
:10126000EE0E0F25B540A8434E07F60E1D69B5409A
:101270002843CE0802F1200545F8260010684E00EC
:101280000325B540A8431D7905F003054E00B54080
:10129000284310605D6805F44035002D6BD000BF19
:1012A000384D2D6E45F00105364E356635462D6EAE
:1012B00005F00105009500BF00BF4FEAB6358E0866
:1012C00055F826008D072E0F0F25B540A843B2F123
:1012D000904F02D100251AE04DE02B4DAA4201D1DA
:1012E000012514E0294DAA4201D102250FE0284D25
:1012F000AA4201D103250AE0264DAA4201D10425C4
:1013000005E0254DAA4201D1052500E006258E07FE
:10131000360FB5402843214D8E0845F82600204D54
:101320002868A0435D6805F4801505B120431C4D75
:1013300028602D1D2868A0435D6805F4001505B1DF
:101340002043174D2D1D2860154D2D1F2868A043E3
:101350005D6805F4003505B12043114D2D1F28604F
:101360002D1F2868A0435D6805F4803505B1204332
:101370000B4D083D2860491C1D68CD40002D7FF4B1
:1013800030AF78BD0010024000040048000800485B
:10139000000C0048001000480014004808000140FC
:1013A00008040140024613690B400BB1012000E024
:1013B000002070470AB1816100E08162704700003F
:1013C000014800687047000028000020024692F89B
:1013D000410020282DD100BF92F84000012801D102
:1013E00002207047012082F8400000BF242082F8CC
:1013F00041001068006820F0010013681860106850
:10140000006820F480501368186010680068084372
:10141000136818601068006840F0010013681860D5
:10142000202082F8410000BF002082F8400000BF69
:10143000D7E70220D5E710B502460B4692F84100E7
:1014400020282AD100BF92F84000012801D10220B3
:1014500010BD012082F8400000BF242082F8410026
:101460001068006820F001001468206010680168AE
:1014700021F4706141EA032110680160106800687E
:1014800040F0010014682060202082F8410000BF75
:10149000002082F8400000BFDAE70220D8E7000011
:1014A00010B504460CB9012010BD94F8410028B9CC
:1014B000002084F84000204600F05EF8242084F8E4
:1014C00041002068006820F0010021680860606821
:1014D00020F07060216808612068806820F4004076
:1014E00021688860E068012805D1A06840F40040C8
:1014F0002168886004E0A06840F4044021688860A6
:10150000E068022806D12068406840F40060216845
:10151000486005E02068406820F400602168486069
:101520002068406813490843216848602068C06803
:1015300020F400402168C860D4E904010843A1698F
:1015400040EA01202168C860D4E907010843216806
:1015500008602068006840F00100216808600020F1
:101560006064202084F841000020206384F8420059
:1015700000BF99E70080000210B598B0044614211E
:1015800013A8FEF77DFE442102A8FEF779FE2A4942
:10159000206888424ED18015029000200A9002A84F
:1015A00000F0B6F908B1FEF73EFF00BF2348C06C5B
:1015B00040F001002149C8640846C06C00F00100F9
:1015C000019000BF00BF00BF0846C06C40F004009F
:1015D000C8640846C06C00F00400019000BF00BF62
:1015E0008815139012201490002015901690022058
:1015F000179013A94FF09040FFF7EEFD4FF40060F5
:101600001390122014900020159016900820179027
:1016100013A90B48FFF7E0FD00BF0848806D40F0BC
:101620008040064988650846806D00F08040019042
:1016300000BF00BF18B010BD00780040001002408D
:101640000008004803480068034909680844014944
:1016500008607047280000203000002010B50024EA
:10166000032000F0ABF80F2000F008F808B10124C7
:1016700001E000F02FF8204610BD000070B50446D0
:10168000002511480068D8B10F4800684FF47A71FE
:10169000B1FBF0F00D490968B1FBF0F6304601F0FE
:1016A000D5F858B9102C07D200222146501E00F060
:1016B00047F80748046004E0012502E0012500E046
:1016C0000125284670BD00003000002034000020B5
:1016D0002C00002008B500BF0E48006E40F001004D
:1016E0000C4908660846006E00F00100009000BF3B
:1016F00000BF00BF0846806D40F0805088650846F6
:10170000806D00F08050009000BF00BF00F0F6F840
:1017100008BD0000001002400146084600280DDB0D
:1017200000BF00BF00F01F0301229A4043099B0045
:1017300003F1E023C3F8002100BF00BF00BF7047E2
:101740002DE9F05F80460D46164602F031FD074652
:1017500039462A46334601F00700C0F1070ABAF1BC
:10176000040F02D94FF0040A01E0C0F1070AD14684
:1017700000F1040ABAF1070F02D24FF0000A01E0AB
:10178000A0F1030AD4464FF0010A0AFA09FAAAF1B5
:10179000010A0AEA020A0AFA0CFA4FF0010B0BFAE4
:1017A0000CFBABF1010B0BEA030B4AEA0B042146DD
:1017B000404602F005FDBDE8F09F000000BF00F0CC
:1017C0000702064B19684FF6FF031940044B0B4301
:1017D00043EA0221014B196000BF70470CED00E0A5
:1017E0000000FA0502468ABB4148006800F4C06068
:1017F000B0F5806F2BD13E488030006820F48070B7
:101800003B4BC3F880001846006820F4C06040F4E9
:10181000007018603748006832235843364BB0FBDD
:10182000F3F0411C00E0491E3148406900F480603B
:10183000B0F5806F01D10029F5D12D48406900F441
:101840008060B0F5806F51D10320704708E02848D0
:101850008030006820F48070254BC3F8800045E09C
:10186000B2F5007F3AD12248006800F4C060B0F5BC
:10187000806F2AD11E488030006840F480701C4B75
:10188000C3F880001846006820F4C06040F400707F
:1018900018601848006832235843174BB0FBF3F028
:1018A000411C00E0491E1248406900F48060B0F518
:1018B000806F01D10029F5D10D48406900F48060A6
:1018C000B0F5806F12D10320BFE70948803000686F
:1018D00040F48070064BC3F8800007E004480068BD
:1018E00020F4C06040F48060014B18600020ACE739
:1018F000007000403400002040420F000348806820
:1019000040F480400149886070470000007000404A
:101910002DE9F84304460027B846206800F400206B
:10192000B0F5002F73D1B946D348806D00F08050D8
:1019300078B900BFD048806D40F08050CE498865AE
:101940000846806D00F08050009000BF00BF4FF04F
:101950000109CA48006840F48070C8490860FFF770
:101960002FFD064606E0FFF72BFD801B022801D95C
:10197000032705E0C148006800F480700028F2D019
:1019800000BF002F46D1BC489030006800F440757D
:10199000CDB1206CA84216D0B7489030006820F432
:1019A0004075B548D0F8900040F48030B249C1F895
:1019B00090000846D0F8900020F48030C1F89000E4
:1019C0000846C0F8905005F00100A0B1FFF7F8FC00
:1019D000064608E0FFF7F4FC801B41F2883188429C
:1019E00001D9032706E0A4489030006800F0020007
:1019F0000028EFD000BF5FB99F489030006820F406
:101A00004070216C08439C49C1F8900003E00CE051
:101A1000B84600E0B846B9F1010F05D19648806D8F
:101A200020F080509449886500BF207800F00100C4
:101A300048B191488830006820F00300616808438D
:101A40008D49C1F88800207800F00200022809D1F1
:101A500089488830006820F00C00A1680843864956
:101A6000C1F88800207800F00400042809D18248D9
:101A70008830006820F03000E16808437E49C1F8F2
:101A80008800207800F00800082809D17A488830BA
:101A9000006820F0C000216908437749C1F8880038
:101AA000207800F02000202809D173488830006891
:101AB00020F44060616908436F49C1F888002078CC
:101AC00000F04000402809D16B488830006820F4BD
:101AD0004050A16908436849C1F88800207800F0A7
:101AE0008000802809D164488830006820F4404094
:101AF000E16908436049C1F88800208800F48070DB
:101B0000B0F5807F09D15C488830006820F440300F
:101B1000216A08435849C1F88800208800F4007001
:101B2000B0F5007F09D154488830006820F4402087
:101B3000616A08435049C1F88800208800F4806039
:101B4000B0F5806F13D14C488830006820F4401005
:101B5000A16A0843484988310860A06AB0F5801F2F
:101B600005D14548C06840F480104349C8602088CA
:101B700000F40060B0F5006F13D13F488830006872
:101B800020F44000E16A08433B4988310860E06A7C
:101B9000B0F5800F05D13848C06840F48010364950
:101BA000C860208800F48050B0F5805F13D13248BF
:101BB0008830006820F04070216B08432E4988313E
:101BC0000860206BB0F1807F05D12B48C06840F4DD
:101BD00080102949C860208800F40050B0F5005FEB
:101BE00013D125488830006820F04060616B0843BD
:101BF000214988310860606BB0F1006F05D11E4843
:101C0000C06840F480101C49C860208800F48040FF
:101C1000B0F5804F13D118488830006820F040603C
:101C2000A16B0843144988310860A06BB0F1006FC4
:101C300005D11148C06840F480100F49C860208861
:101C400000F40040B0F5004F13D10B488830006815
:101C500020F04050E16B0843074988310860E06B91
:101C6000B0F1805F05D10448C06840F4803002497B
:101C7000C8604046BDE8F883001002400070004094
:101C80002DE9F04104460D464FF0000814B901203B
:101C9000BDE8F0817D48006800F00F00A8420ED238
:101CA0007A48006820F00F00284378490860084609
:101CB000006800F00F00A84201D00120E8E720787A
:101CC00000F00100002864D06068032823D1704828
:101CD000006800F0007008B90120D9E701F018FD94
:101CE00006466C48864237D96948806800F0F000A3
:101CF00030B1207800F0020002282DD1A06858BB36
:101D00006348806820F0F00040F0800060498860FF
:101D10004FF0800820E06068022806D15C48006827
:101D200000F4003040B90120B2E75948006800F4DF
:101D3000806008B90120ABE700F0DEF806465548A0
:101D4000864209D95248806820F0F00040F08000B7
:101D50004F4988604FF080084D48806820F00300AC
:101D6000616808434A498860FFF72AFB074608E094
:101D7000FFF726FBC01B41F28831884201D90320BE
:101D800086E74348806800F00C006168B0EB810F83
:101D9000EED1207800F00200022820D1207800F057
:101DA0000400042805D13A48806840F4E0603849CE
:101DB0008860207800F00800082807D1344880683F
:101DC00020F4605040F4E060314988603048806819
:101DD00020F0F000A16808432D49886008E0B8F1C0
:101DE000800F05D12A48806820F0F00028498860DB
:101DF0002648006800F00F00A84219D9234800685F
:101E000020F00F00284321490860FFF7D9FA074660
:101E100008E0FFF7D5FAC01B41F28831884201D9AA
:101E2000032035E71948006800F00F00A842F0D100
:101E3000207800F00400042807D11548806820F4B9
:101E4000E060E168084312498860207800F00800EB
:101E5000082808D10E48806820F46050216940EAC3
:101E6000C1000B49886000F047F809498968C1F34F
:101E70000311094A515C01F01F01C840074908607D
:101E800007480068FFF7FAFB02E700000020024065
:101E90000010024000B4C404E043000834000020F5
:101EA0002C0000200148006870470000340000202A
:101EB00000B5FFF7F7FF05498968C1F30221044A1D
:101EC000515C01F01F01C84000BD0000001002403D
:101ED000F043000800B5FFF7E5FF05498968C1F345
:101EE000C221044A515C01F01F01C84000BD00003E
:101EF00000100240F043000870B5224DAD6805F0B7
:101F00000C05042D01D120483AE01E4DAD6805F0C6
:101F10000C05082D01D11D4832E01A4DAD6805F0C1
:101F20000C050C2D2BD1174DED6805F00304154D54
:101F3000ED68C5F303156A1C022C0CD0032C09D1E3
:101F4000124DB5FBF2F50F4EF668C6F3062605FBFB
:101F500006F10AE000BF0C4DB5FBF2F5094EF6683C
:101F6000C6F3062605FB06F100BF00BF054DED6870
:101F7000C5F341656D1C6B00B1FBF3F000E0002080
:101F800070BD0000001002400024F40000127A002E
:101F90002DE9F843044614B90120BDE8F883207800
:101FA00000F00100002865D0FC48806800F00C07B4
:101FB000FA48C06800F003060C2F01D1032E01D0AF
:101FC000082F0AD1F548006800F40030002851D0ED
:101FD000606800284ED10120DFE700BF6068B0F5DF
:101FE000803F06D1ED48006840F48030EB4908603E
:101FF0001AE06068B0F5A02F0BD1E848006840F403
:102000008020E64908600846006840F48030086097
:102010000AE0E248006820F48030E04908600846A1
:10202000006820F48020086000BF606888B1FFF776
:10203000C7F9054606E0FFF7C3F9401B642801D93C
:102040000320AAE7D548006800F400300028F2D049
:1020500010E0FFF7B5F9054606E0FFF7B1F9401BC0
:10206000642801D9032098E7CC48006800F40030C8
:102070000028F2D1207800F00200022860D1C74881
:10208000806800F00C07C548C06800F003060C2FFC
:1020900001D1022E01D0042F18D1C048006800F4ED
:1020A000806018B1E06808B9012076E7BB48406855
:1020B00020F0FE40217C40EA0160B8494860B84801
:1020C0000068FFF7DBFA18B3012066E7E06800B3A9
:1020D000B248006840F48070B0490860FFF770F9BA
:1020E000054606E0FFF76CF9401B022801D90320E2
:1020F00053E7AA48006800F480600028F2D0A7489F
:10210000406820F0FE40217C40EA0160A34948601D
:1021100016E0A248006820F48070A0490860FFF72C
:102120004FF9054606E0FFF74BF9401B022801D99D
:10213000032032E79948006800F480600028F2D15B
:10214000207800F00800082836D16069D0B19348A3
:102150009430006840F001009049C1F89400FFF706
:102160002FF9054606E0FFF72BF9401B022801D99D
:10217000032012E789489430006800F0020000282C
:10218000F1D019E085489430006820F001008349BF
:10219000C1F89400FFF714F9054606E0FFF710F9BF
:1021A000401B022801D90320F7E67C4894300068E0
:1021B00000F002000028F1D1207800F0040004288B
:1021C00072D14FF000087548806D012121EA10702E
:1021D00078B100BF7148806D40F080506F498865CC
:1021E0000846806D00F08050009000BF00BF4FF0A7
:1021F00001086C48006800F48070B0B96948006854
:1022000040F4807067490860FFF7DAF8054606E099
:10221000FFF7D6F8401B022801D90320BDE661482C
:10222000006800F480700028F2D000BFA068012888
:1022300008D15A489030006840F001005749C1F871
:10224000900021E0A06805280FD154489030006824
:1022500040F004005149C1F890000846D0F89000C1
:1022600040F00100C1F890000EE04C48903000684A
:1022700020F001004949C1F890000846D0F89000CC
:1022800020F00400C1F8900000BFA068A8B1FFF7DB
:1022900097F8054609E0FFF793F8401B41F28831B3
:1022A000884202D9032078E625E03C489030006857
:1022B00000F002000028EED013E0FFF781F8054699
:1022C00008E0FFF77DF8401B41F28831884201D9D0
:1022D000032062E631489030006800F002000028D8
:1022E000EFD1B8F1010F05D12C48806D20F080505E
:1022F0002A49886500BF207800F02000202836D1C8
:10230000A069D0B125489830006840F00100234909
:10231000C1F89800FFF754F8054606E0FFF750F8BB
:10232000401B022801D9032037E61C48983000687A
:1023300000F002000028F1D019E018489830006839
:1023400020F001001549C1F89800FFF739F805465B
:1023500006E0FFF735F8401B022801D903201CE6F0
:102360000E489830006800F002000028F1D1E069C2
:10237000002860D00948806800F00C000C287AD052
:10238000E069022858D10548006820F080700349B0
:102390000860FFF715F805460DE000000010024048
:1023A0002C00002000700040FFF70AF8401B0228B4
:1023B00001D90320F1E54A48006800F000700028C8
:1023C000F2D1D4E90810401E41EA0011A06A41EAA6
:1023D0000021208E0122C2EB500041EA40513420FE
:1023E000005DC2EB500041EA40612C20005D41EAF3
:1023F000C0603B49C9683B4A114008433849C8603E
:102400000846006840F0807008600846C06840F0E8
:102410008070C860FEF7D4FF054606E0FEF7D0FFE7
:10242000401B022801D90320B7E52D48006800F0C1
:1024300000700028F2D051E02948006820F0807038
:1024400027490860FEF7BCFF054606E0FEF7B8FF27
:10245000401B022801D903209FE52148006800F0B5
:1024600000700028F2D11E48C0681F4908401C496E
:10247000C86033E0FFE7E069012800D18DE5184826
:10248000C66806F00301206A814225D106F0F001FA
:10249000606A401EB1EB001F1ED106F4FE41A06A27
:1024A000B1EB002F18D106F078412C20005DB1EB84
:1024B000C06F11D106F4C001208E0122C2EB500082
:1024C000B1EB405F08D106F0C0613420005DC2EB83
:1024D0005000B1EB406F01D001205EE500205CE5CB
:1024E000001002400C809F01FCFFEEFE70470000D0
:1024F000F8B504462068466820688568C5F38010F2
:1025000048B905F0010030B1C6F3801018B120467B
:10251000E16C8847F8BDC5F3400030B1C6F3C01088
:1025200018B12046216D8847F4E7C5F3401030B953
:10253000C5F3801018B9C5F3002000287CD0C6F37D
:10254000401000287DD0C5F38010F0B194F85D00F4
:1025500003280ED0206E40F00400206600BF00204B
:1025600000902068C068009020688068009000BFDC
:102570000BE000BF002000902068C0680090206839
:102580008068009000BF00BFC4E7C5F3401088B169
:10259000206E40F00100206600BF002000902068FF
:1025A000806800902068006820F040002168086082
:1025B00000BF00BFC5F3002058B1206E40F00800F6
:1025C000206600BF0020009020688068009000BF57
:1025D00000BF206E78B32068406820F0E0002168DA
:1025E0004860012084F85D0006F00200022802D055
:1025F00006F0010008B32068406820F0030021685D
:102600004860A06D50B11048A16D8863A06DFEF7C1
:102610004CFC18B1206E40F040002066606D50B157
:102620000948616D8863606DFEF73FFC18B1206E4C
:1026300040F04000206603E003E02046FFF756FF2D
:1026400068E700BF66E700008937000870B50446F8
:102650000CB9012070BD606A38B96068B0F5827F3E
:1026600000D105E00021E16102E00021216161610A
:102670000021A16294F85D0028B9002084F85C0074
:10268000204600F061F8022084F85D0020680068B0
:1026900020F0400021680860E068B0F5E06F01D9E3
:1026A000002501E04FF48055E068B0F5706F05D06B
:1026B000E068B0F5E06F01D00021A162A08800F4CD
:1026C0008270218901F404410843217C01F0020158
:1026D0000843217D01F001010843218B01F40071C1
:1026E0000843217F01F0380108432021095D01F0F2
:1026F00080010843218D01F40051084321680860DE
:102700000421A06901EA104094F8241001F010019E
:10271000084394F8341001F008010843A18901F43A
:102720007061084305F480510843216848602068BF
:10273000C06920F400602168C86100202066012083
:1027400084F85D00002085E710B586B004461421AA
:1027500001A8FDF795FD36492068884266D100BF83
:102760003448806D40F48040324988650846806D69
:1027700000F48040009000BF00BF00BF0846C06C5E
:1027800040F00200C8640846C06C00F002000090EF
:1027900000BF00BF4FF46040019002200290002073
:1027A0000390032004900520059001A92248FEF71C
:1027B00013FD2248224908600C204860002120486F
:1027C0008160C16080210161002141618161C1613D
:1027D0000162FEF737FC08B1FDF725FE00BF18487F
:1027E000A065846200BF1748174908600D20486043
:1027F0001021154881600021C16080210161002104
:1028000041618161C1610162FEF71CFC08B1FDF705
:102810000AFE00BF0C486065846200BF00221146BA
:102820002420FEF78DFF2420FEF776FF06B010BDB2
:102830000038004000100240000400486C000240D4
:1028400008070020080402406807002070B504460D
:102850002546681EB0F1807F01D301200FE0681E7D
:102860004FF0E02148610F214FF0FF3001F0A8FC4C
:1028700000204FF0E021886107200861002070BD32
:10288000014600BF91F88400012801D10220704761
:10289000012081F8840000BF2420C1F88800086866
:1028A00002680868006820F001000B68186022F0D8
:1028B000005200204866086802602020C1F88800A5
:1028C00000BF002081F8840000BF00BFDFE7704731
:1028D000704770B504460D4600BF94F88400012887
:1028E00001D1022070BD012084F8840000BF2420A3
:1028F000C4F88800206806682068006820F001009D
:10290000216808602068806820F0606028432168A2
:102910008860204600F088FF206806602020C4F808
:10292000880000BF002084F8840000BF00BFD9E702
:1029300070B504460D4600BF94F88400012801D10B
:10294000022070BD012084F8840000BF2420C4F858
:102950008800206806682068006820F0010021686F
:1029600008602068806820F0604028432168886003
:10297000204600F059FF206806602020C4F8880037
:1029800000BF002084F8840000BF00BFD9E7704773
:102990007047000010B5044600BF00BF216851E831
:1029A000001F21F49070226842E800010029F5D14F
:1029B00000BF00BF00BF2168083151E8001F2C4A4A
:1029C00001EA02002168083141E80002002AF2D140
:1029D00000BFE06E01280CD100BF00BF216851E8A4
:1029E000001F21F01000226842E800010029F5D103
:1029F00000BF2068806800F04000402825D100BF5B
:102A000000BF2168083151E8001F21F04000216813
:102A1000083141E80002002AF3D100BFD4F8800059
:102A200098B10020D4F880108863D4F88000FEF7B5
:102A300001FA50B1D4F88000FEF781FA202804D1C1
:102A40001020C4F89000032010BD0020A4F85E0000
:102A50000F20216808622068806940F00800216822
:102A600088612020C4F88C000020E06600BFEBE7FE
:102A7000FEFFFFEF704700002DE9F0470446206895
:102A8000C569206806682068876840F60F0005EA77
:102A90000009B9F1000F0FD105F0200060B106F078
:102AA000200010B907F0805030B1606F10B120469F
:102AB000616F8847BDE8F087B9F1000F7ED0DF482D
:102AC000384018B9DE4830400028F7D005F0010042
:102AD00058B106F4807040B1012021680862D4F832
:102AE000900040F00100C4F8900005F0020058B1D9
:102AF00007F0010040B1022021680862D4F890007C
:102B000040F00400C4F8900005F0040058B107F04C
:102B1000010040B1042021680862D4F8900040F020
:102B20000200C4F8900005F0080070B106F0200023
:102B300010B9C248384040B1082021680862D4F872
:102B4000900040F00800C4F8900005F4006060B107
:102B500006F0806048B14FF4006021680862D4F844
:102B6000900040F02000C4F89000D4F890000028B5
:102B700052D005F0200050B106F0200010B907F047
:102B8000805020B1606F10B12046616F8847D4F843
:102B900090A02068806800F04000402802D00AF031
:102BA000280070B3204601F003F82068806800F028
:102BB0004000402826D100BF00BF00E02DE0216882
:102BC000083151E8001F21F040002168083141E838
:102BD0000002002AF1D100BFD4F8800068B1994802
:102BE000D4F880108863D4F88000FEF75EF998B1BD
:102BF000D4F88000816B88470EE02046FFF73AFF4B
:102C00000AE003E02046FFF735FF05E02046FFF726
:102C100031FF0020C4F890004CE7E06E012865D138
:102C200005F01000002861D006F010000028FAD04E
:102C30001020216808622068806800F04000402869
:102C40007AD1D4F88000006840681FFA80F8B8F1A3
:102C5000000F5CD0B4F85C00404558DDA4F85E80FD
:102C6000D4F880000068006800F02000E8BB00BFD6
:102C700000BF216851E8001F21F48070226842E8FB
:102C800000010029F5D100BF00BF00BF2168083155
:102C900051E8001F21F001002168083141E80002DD
:102CA000002AF3D100BF00BF00BF2168083151E8FE
:102CB000001F21F040002168083141E80002002A8D
:102CC000F3D100BF2020C4F88C000020E06600BFD4
:102CD00000BF216851E8001F21F01000226842E87F
:102CE00000010029F5D100BF01E004E068E0D4F85C
:102CF0008000FEF79FF802202067B4F85C00B4F86B
:102D00005E20801A81B22046FFF7E1FD12E0B4F8A0
:102D10005C0040450ED1D4F880000068006800F0E7
:102D20002000202806D102202067B4F85C1020463D
:102D3000FFF7CDFDBEE6FFE734F85C0F6188401A6F
:102D40001FFA80F860885C3CC8B3B8F1000F36D039
:102D500000BF00BF216851E8001F21F49070226875
:102D600042E800010029F5D100BF00BF00BF216883
:102D7000083151E8001F314AD24301EA02002168BC
:102D8000083141E80002002AF1D100BF2020C4F838
:102D90008C000020E066606700BF00BF216851E83A
:102DA000001F21F01000226842E800010029F5D13F
:102DB00000BF0220206741462046FFF788FD79E6E4
:102DC00005F4801050B107F4800038B14FF4801042
:102DD000216808622046FFF7DBFD6BE605F0800006
:102DE00058B106F0800010B907F4000028B1A06FB8
:102DF00010B12046A16F88475CE605F0400030B175
:102E000006F0400018B1204600F008FF52E605F435
:102E1000000030B106F0804018B12046FFF7B7FD42
:102E200048E605F0807030B106F0004018B1204649
:102E3000FFF74EFD3EE600BF3CE60000010000103B
:102E400020010004633A000810B504460CB90120C3
:102E500010BDA06900B100E000BFD4F8880028B917
:102E6000002084F88400204600F02AF82420C4F8CA
:102E700088002068006820F0010021680860A06ACE
:102E800010B1204600F0FCFC204600F0FFFE0128B7
:102E900000D1DDE72068406820F490402168486058
:102EA0002068806820F02A00216888602068006817
:102EB00040F0010021680860204600F05DFDC7E792
:102EC00010B598B00446142113A8FDF7D9F9442190
:102ED00002A8FDF7D5F978492068884273D101200E
:102EE00002900020039002A8FEF712FD08B1FDF742
:102EF0009AFA00BF7148006E40F480406F4908663E
:102F00000846006E00F48040019000BF00BF00BF83
:102F10000846C06C40F00100C8640846C06C00F070
:102F20000100019000BF00BF4FF4C0601390022069
:102F300014900020159016900720179013A94FF0B9
:102F40009040FEF749F95E485E49086019204860E4
:102F500010215C4881600021C16080210161002155
:102F600041618161C1610162FEF76CF808B1FDF752
:102F70005AFA00BF5348E067846200BF5248534981
:102F8000086018204860002150488160C16080219D
:102F90000161002141618161C1610162FEF752F866
:102FA00008B1FDF740FA00BF4848C4F880008462C9
:102FB00000BF002211462520FEF7C2FB2520FEF7A8
:102FC000ABFB76E0FFE742492068884271D10220DE
:102FD00002900020049002A8FEF79AFC08B1FDF7C9
:102FE00022FA00BF3548806D40F4003033498865CF
:102FF0000846806D00F40030019000BF00BF00BFA4
:103000000846C06C40F00200C8640846C06C00F07E
:103010000200019000BF00BF1820139002201490FE
:103020000020159016900720179013A92948FEF745
:10303000D3F823481430284908601A20486000213A
:1030400025488160C1608021016100214161816169
:10305000C1610162FDF7F6FF08B1FDF7E4F900BFB9
:103060001D48C4F88000846200BF154828301B4901
:1030700008601B2048601021184881600021C16051
:1030800080210161002141618161C1610162FDF71F
:10309000D9FF08B1FDF7C7F900BF1048E0678462A7
:1030A00000BF002211462620FEF74AFB2620FEF72D
:1030B00033FB18B010BD0000003801400010024082
:1030C00030000240F00800201C040240500900209B
:1030D0000044004000040048B0090020100A00200D
:1030E00070B504460D461646D4F88C00202821D130
:1030F00005B10EB9012070BD0020E0660E492068C0
:10310000884211D02068406800F4000060B100BF20
:1031100000BF216851E8001F41F08060226842E84A
:1031200000010029F5D100BF32462946204600F0B3
:103130006FFFE0E70220DEE7008000407047704745
:10314000704700BFFEE7024602F1600000EB81031A
:10315000186800F0F840704701468868C0F3C00066
:1031600070470146886800F0010070470146886892
:1031700000F00100704701468868C0F30070704796
:1031800001468868C0F38000704701468868C0F334
:103190008000704770B500F11404C1F3406504EB82
:1031A00085031C68C1F304560725B540AC43C1F341
:1031B000045502FA05F52C431C6070BD826822F0AC
:1031C000E0720A438260704710B500F1600404EBBE
:1031D00081031C6824F0004414431C6010BD426944
:1031E00022F000420A4342617047000000B58BB0F4
:1031F0000020089009900A9020216846FDF740F8C9
:103200004FF0A040204908604FF440304860002152
:103210001D488160C160016141610421816100211B
:103220000177012141770162002180F82410C162F9
:103230000163012180F838100021C16380F840103B
:10324000FDF7FEFB08B1FDF7EEF80020089008A995
:103250000D48FDF7EBF808B1FDF7E5F80B480090D5
:1032600006200190072002907F2003900420049004
:103270000020059069460448FDF75EF908B1FDF7A6
:10328000D2F80BB000BD0000B804002002003004EA
:1032900000B589B0202101A8FCF7F2FF1C481D49A8
:1032A00008604FF44030486010211A4881600021C6
:1032B000C160016141610421816100210177012127
:1032C00041770162002180F82410C162016301216D
:1032D00080F838100021C16380F84010FDF7B0FB82
:1032E00008B1FDF7A0F80C480190062002900020DC
:1032F00003907F200490042005900020069001A9EF
:103300000448FDF719F908B1FDF78DF809B000BDC3
:1033100000010050240500200040C03A08B500BF5D
:103320003348806C40F00400314988640846806C62
:1033300000F00400009000BF00BF00BF0846806C92
:1033400040F0010088640846806C00F001000090A5
:1033500000BF00BF00BF0846806C40F002008864D8
:103360000846806C00F00200009000BF00BF002201
:1033700011460B20FEF7E4F90B20FEF7CDF90022F1
:1033800011460C20FEF7DCF90C20FEF7C5F90022EF
:1033900011460D20FEF7D4F90D20FEF7BDF90022ED
:1033A00011460E20FEF7CCF90E20FEF7B5F90022EB
:1033B00011460F20FEF7C4F90F20FEF7ADF90022E9
:1033C00011461020FEF7BCF91020FEF7A5F90022E7
:1033D00011463820FEF7B4F93820FEF79DF9002297
:1033E00011463920FEF7ACF93920FEF795F908BDF2
:1033F0000010024000B587B0142102A8FCF740FF7E
:1034000000BF5C48C06C40F004005A49C8640846DC
:10341000C06C00F00400019000BF00BF00BF084670
:10342000C06C40F02000C8640846C06C00F020006A
:10343000019000BF00BF00BF0846C06C40F0010013
:10344000C8640846C06C00F00100019000BF00BFD6
:1034500000BF0846C06C40F00200C8640846C06C5B
:1034600000F00200019000BF00BF002240F2DF71B7
:103470004148FDF79FFF002248F2FE014FF09040C7
:10348000FDF798FF002240F227413C48FDF792FFEC
:10349000012211033948FDF78DFF4FF4404002909F
:1034A00000200390049002A93348FDF795FE40F2F6
:1034B000DF3002900120039000200490032005904B
:1034C00002A92D48FDF788FEFE20029001200390FE
:1034D000002004900320059002A94FF09040FDF7D2
:1034E0007BFE41F2074002900120039000200490EF
:1034F0000320059002A92148FDF76EFE4FF40060FD
:103500000290002003900120049002A94FF0904007
:10351000FDF762FE4FF4004002900120039000206E
:103520000490059002A94FF09040FDF755FE4FF42E
:10353000806002900120039000200490059002A971
:103540000D48FDF749FE2020029001200390002045
:103550000490059002A90948FDF73EFE80200290E4
:1035600000200390049002A90448FDF735FE07B03F
:1035700000BD0000001002400008004800040048A0
:1035800010B51248124908601248486000211048DE
:1035900081600121C1600021016141618161C161DE
:1035A0000162FDF77DFF08B1FCF73DFF00210848EF
:1035B000FDF70CFF08B1FCF736FF00210448FDF7CA
:1035C0003AFF08B1FCF72FFF10BD00000078004063
:1035D00050060020C285B24010B51248124908605A
:1035E0004FF48270486000210F4881604FF4E06121
:1035F000C1600021016141614FF4007181610821C6
:10360000C16100210162416281620721C162002122
:10361000016308214163FFF719F808B1FCF703FFC4
:1036200010BD000000380040A406002010B5184866
:10363000184908604FF461204860002115488160F6
:10364000C16001610C21416100218161C1610162A0
:10365000416200200F4988620846FFF7F5FB08B178
:10366000FCF7E1FE00210B48FFF762F908B1FCF717
:10367000DAFE00210748FFF72CF908B1FCF7D3FE6A
:103680000448FFF7FDF808B1FCF7CDFE10BD0000BF
:1036900000380140C807002010B5184818490860D4
:1036A0004FF4E1304860002115488160C16001613C
:1036B0000C21416100218161C161016241620020F0
:1036C0000F4988620846FFF7BFFB08B1FCF7ABFE65
:1036D00000210B48FFF72CF908B1FCF7A4FE0021EC
:1036E0000748FFF7F6F808B1FCF79DFE0448FFF71E
:1036F000C7F808B1FCF797FE10BD00000044004079
:103700005C08002000BFFEE700BFFEE77047000036
:1037100070B5164DED6805F00304144DED68C5F362
:1037200003156B1C022C0CD0032C09D1104DB5FBDA
:10373000F3F50E4EF668C6F3062605FB06F10AE021
:1037400000BF0C4DB5FBF3F5084EF668C6F3062630
:1037500005FB06F100BF00BF044DED68C5F34165F0
:103760006D1C6A00B1FBF2F070BD00000010024059
:1037700000127A000024F40010B50248FEF7B8FEEB
:1037800010BD0000A406002070B50546AC6A0020FC
:10379000A4F84600E0872046FEF7A8FE70BD7047FB
:1037A00010B5FDF74FFF10BD00B593B0382105A847
:1037B000FCF766FD14216846FCF762FD0020FEF769
:1037C00011F802200590C0010890402009900220C5
:1037D0000C9002210D9104210E9155210F9102218F
:1037E00010911191129105A8FEF7D2FB08B1FCF7D8
:1037F0001AFE0F20009003200190002002900390F9
:10380000049004216846FEF73BFA08B1FCF70BFE72
:1038100013B000BD0348006840F47000014908601F
:103820007047000088ED00E070B5456E2DB90125A8
:10383000A0F86A50A0F868501CE008230824056826
:10384000AD68C5F342610568AD686A0F0A4DAD5CAD
:1038500015FB04F5094EB65C95FBF6F5A0F86A5029
:10386000054D6D5C15FB03F5044E765C95FBF6F596
:10387000A0F8685070BD0000D0430008D84300088D
:1038800090F8281001F00801082907D1016849685B
:1038900021F40041826B11430268516090F82810B6
:1038A00001F0010139B10168496821F40031C26AAF
:1038B00011430268516090F8281001F002010229BA
:1038C00007D10168496821F48031026B1143026815
:1038D000516090F8281001F00401042907D1016813
:1038E000496821F48021426B11430268516090F8CD
:1038F000281001F01001102907D10168896821F40E
:103900008051C26B11430268916090F8281001F059
:103910002001202907D10168896821F40051026C37
:1039200011430268916090F8281001F0400140298D
:1039300013D10168496821F48011426C1143026877
:103940005160416CB1F5801F07D10168496821F4CD
:10395000C001826C11430268516090F8281001F098
:103960008001802907D10168496821F40021C26CD7
:10397000114302685160704738B504460020C4F80E
:103980009000FDF71DFD05462068006800F0080066
:10399000082821D16FF07E402B4600224FF4001101
:1039A0000090204600F098FBB0B100BF00BF216836
:1039B00051E8001F21F08000226842E80001002940
:1039C000F5D100BF2020C4F8880000BF002084F893
:1039D000840000BF032038BD2068006800F00400A8
:1039E000042830D16FF07E402B4600224FF4800136
:1039F0000090204600F070FB28B300BF00BF216894
:103A000051E8001F21F49070226842E8000100296B
:103A1000F5D100BF00BF00BF2168083151E8001F89
:103A200021F001002168083141E80002002AF3D1A9
:103A300000BF2020C4F88C0000BF002084F8840060
:103A400000BF0320C7E72020C4F88800C4F88C001A
:103A50000020E066206700BF84F8840000BF00BF3C
:103A6000B9E770B50446A56A0020A5F85E002846AF
:103A7000FFF700F870BD2DE9F0410546AC6AD4F8B7
:103A80008860D4F88C702068806800F080008028FE
:103A900007D1212E05D10020A4F85600204600F0C1
:103AA000D5F82068806800F04000402807D1222F18
:103AB00005D10020A4F85E00204600F079F8D4F883
:103AC000900040F01000C4F890002046FEF7D2FFAE
:103AD000BDE8F08170B50546AC6A2868006800F062
:103AE0002000E0BB0020A4F85E0000BF00BF2168FA
:103AF00051E8001F21F48070226842E8000100298B
:103B0000F5D100BF00BF00BF2168083151E8001F98
:103B100021F001002168083141E80002002AF3D1B8
:103B200000BF00BF00BF2168083151E8001F21F02D
:103B300040002168083141E80002002AF3D100BFAB
:103B40002020C4F88C00E06E01280ED100BF00BF19
:103B5000216851E8001F21F01000226800E004E015
:103B600042E800010029F3D100BF00202067E06E89
:103B7000012805D1B4F85C102046FEF7A8FE02E04B
:103B80002046FFF7DBFA70BD70B50546AC6A012030
:103B90002067E06E012806D1B4F85C004108204699
:103BA000FEF795FE02E02046FFF7C9FA70BD00005F
:103BB00000BF00BF026852E8002F22F49071036832
:103BC00043E80012002AF5D100BF00BF00BF026821
:103BD000083252E8002F104B02EA03010268083253
:103BE00042E80013002BF2D100BFC16E01290CD1B5
:103BF00000BF00BF026852E8002F22F010010368E6
:103C000043E80012002AF5D100BF2021C0F88C1033
:103C10000021C16641677047FEFFFFEF10B5044603
:103C200000BF00BF216851E8001F21F0400022685A
:103C300042E800010029F5D100BF2020C4F8880027
:103C40000020A0672046FFF77BFA10BD00BF00BF31
:103C5000026852E8002F22F0C001036843E8001216
:103C6000002AF5D100BF00BF00BF0268083252E849
:103C7000002F22F400010268083242E80013002BF2
:103C8000F3D100BF2021C0F8881070472DE9FE4F06
:103C9000044600200290D4492068884200D100E008
:103CA00000BF2169A068084361690843E16940EAEF
:103CB000010820680068CD49084040EA08002168F2
:103CC00008602068406820F44050E168084321689B
:103CD0004860D4F81880C4492068884202D0206A1D
:103CE00040EA080820688068C149084040EA0800A6
:103CF000216888602068C06A20F00F00616A08436C
:103D00002168C86200BFBB492068884216D1BA4802
:103D1000006800F0030030B1012808D0022804D068
:103D2000032808D105E0012507E0022505E0042568
:103D300003E0082501E0102500BF6FE0AF492068CF
:103D4000884216D1AC48006800F00C0030B104285D
:103D500008D0082804D00C2808D105E0002507E089
:103D6000022505E0042503E0082501E0102500BF39
:103D700054E0A3492068884216D19F48006800F0AB
:103D8000300030B1102808D0202804D0302808D1C5
:103D900005E0002507E0022505E0042503E00825ED
:103DA00001E0102500BF39E096492068884216D10D
:103DB0009148006800F0C00030B1402808D0802849
:103DC00004D0C02808D105E0002507E0022505E061
:103DD000042503E0082501E0102500BF1EE082490C
:103DE0002068884219D18448006800F4406048B1D6
:103DF000B0F5806F0AD0B0F5006F05D0B0F5406F18
:103E000008D105E0002507E0022505E0042503E0D0
:103E1000082501E0102500BF00E0102500BF724911
:103E20002068884259D135B1022D08D0042D08D020
:103E3000082D0DD109E0FEF73BF806460CE0724E66
:103E40000AE0FEF759F8064606E04FF4004603E0A4
:103E500000260120029000BF00BF002E10D06B4949
:103E6000606A31F81000B6FBF0F9606800EB4000C2
:103E7000484503D860680003484502D201200290FB
:103E8000A6E06249606A31F810C0624600233046FD
:103E90001946FCF7BDF94FF4807C0022A0FB0C3BD7
:103EA00001FB0CB100FB0211606840081818514179
:103EB000CDE90001D4F804C062460023FCF7A8F95C
:103EC0000746B7F5407F05D3B7F5801F02D22068BB
:103ED000C7607DE0012002907AE0E069B0F5004F14
:103EE0003FD1092D17D2DFE805F005090D160F1691
:103EF00016161300FDF7DCFF064610E0FDF7EAFF9B
:103F000006460CE0404E0AE0FDF7F6FF064606E0E6
:103F10004FF4004603E000260120029000BF00BFDE
:103F200086B33A49606A31F81000B6FBF0F0400001
:103F3000616800EB5100B0FBF1F7102F0ED3B7F51D
:103F4000803F0BD24FF6F07007EA000AC7F3420039
:103F50004AEA000A2068C0F80CA039E0012002906B
:103F600036E0092D18D2DFE805F005090E17101705
:103F700017171400FDF79CFF064611E0FDF7AAFF96
:103F800006460DE024E0204E0AE0FDF7B5FF0646A8
:103F900006E04FF4004603E000260120029000BF37
:103FA00000BFAEB11949606A31F81000B6FBF0F0FD
:103FB000616800EB5100B0FBF1F7102F06D3B7F5A5
:103FC000803F03D2B8B22168C86001E001200290AE
:103FD0000120A4F86A00A4F8680000206067A067C8
:103FE0000298BDE8FE8F000000800040F369FFCF1B
:103FF000FFF4FF11003801408810024000440040E7
:1040000000480040004C00400024F400B843000881
:1040100070B504460E46154644F8586FA58000203A
:10402000A06322206063A06A583CF8B12748241D91
:10403000E16FC8622648E16F08632648E16F486374
:104040000020E16F886354F8043C03F12401626DA1
:10405000E06F241F2B46FDF75DF838B11020C4F83F
:1040600090002020C4F88C00012070BD206960B150
:1040700000BF00BF216851E8001F41F48070226832
:1040800042E800010029F5D100BF00BF00BF216850
:10409000083151E8001F41F001002168083141E872
:1040A0000002002AF3D100BF00BF00BF2168083121
:1040B00051E8001F41F040002168083141E800024A
:1040C000002AF3D100BF0020CFE70000D53A000856
:1040D000893B0008773A00082DE9F04104460D4677
:1040E00017469846069E41E0701C00283ED0FDF71A
:1040F00067F9A0EB0800B04200D816B90320BDE86C
:10410000F0812068006800F0040070B3802D2DD08D
:10411000402D2BD02068C069C0F3C00078B10820C2
:10412000216808622046FFF743FD0820C4F890008C
:1041300000BF002084F8840000BF0120DFE7206872
:10414000C069C0F3C02080B14FF4006021680862EC
:104150002046FFF72DFD2020C4F8900000BF00206E
:1041600084F8840000BF0320C9E7FFE72068C06926
:104170002840A84201D1012000E00020B842B3D07D
:104180000020BCE710B50348FEF776FC00F0C4F849
:1041900010BD0000C807002010B50348FEF76CFCF6
:1041A00000F0E2F810BD00005C08002000BFFEE750
:1041B00002480068C0F30220704700000CED00E0E8
:1041C00010B5002804DB0A07130E054A135406E055
:1041D0000A07140E034A00F00F031B1FD45410BD2E
:1041E00000E400E018ED00E002E008C8121F08C17A
:1041F000002AFAD170477047002001E001C1121F68
:10420000002AFBD17047000010B5FDF7D9F80C4922
:104210000968401AB0F57A7F00D210BDFDF7D0F8DA
:104220000749086080210748FDF7BCF8012802D142
:104230000549087002E000200349087000BFECE760
:104240001C000020000400481500002010B50C4B95
:10425000002011E00146002208E001F0010414B141
:1042600083EA510400E04C082146521C082AF4DB82
:10427000044A42F82010401CFF28EBD910BD000072
:104280002083B8ED38000020FDF7E8F9FFF78CFA3D
:10429000FFF7B0F8FFF742F8FEF7A8FFFEF7F8FFC8
:1042A000FFF76EF9FFF798F9FFF7C0F9FFF7F4F998
:1042B000FFF7CCFF00F004F801E0FFF7A5FFFCE7F3
:1042C00010B511480068006840F010000E490968F8
:1042D000086010200C490968086240220B490A480E
:1042E000FEF7FEFE0A480068006840F0100008492A
:1042F00009680860102006490968086240220549DB
:104300000348FEF7EDFE10BDC8070020380400206A
:104310005C0800207804002010B510480068C069CF
:10432000C0F30010C8B110200C49096808620B489E
:10433000D0F880000068406884B22CB1C4F140011C
:1043400088B2074A107000BF0448FEF723FB4022E2
:1043500004490248FEF7C4FE00BF10BDC807002094
:10436000200000203804002010B510480068C06903
:10437000C0F30010C8B110200C49096808620B484E
:10438000D0F880000068406884B22CB1C4F14001CC
:1043900088B2074A107000BF0448FEF7FBFA4022BB
:1043A00004490248FEF79CFE00BF10BD5C080020D7
:1043B0002100002078040020010002000400060013
:1043C00008000A000C0010002000400080000001DE
:1043D00001010103070100000804020408010101B2
:1043E00000000000000000000102030406070809A5
:1043F000000000000102030418440008000000202F
:1044000038000000E841000850440008380000204F
:10441000380E0000F84100082B52454144590D0A5E
:104420002B434F4E4E452B444953434F4E00000003
:10443000000000000000000000000000000000007C
:104440000000000010000000010000000024F40043
:04000005080001D915
:00000001FF
